{
	"contracts/Crossing.sol": {
		"TrainCrossing": {
			"abi": [
				{
					"inputs": [
						{
							"internalType": "uint256",
							"name": "_crossingValidity",
							"type": "uint256"
						},
						{
							"internalType": "uint256",
							"name": "_maxCarsPerLane",
							"type": "uint256"
						},
						{
							"internalType": "uint256",
							"name": "_preLockedTime",
							"type": "uint256"
						}
					],
					"stateMutability": "nonpayable",
					"type": "constructor"
				},
				{
					"anonymous": false,
					"inputs": [
						{
							"indexed": false,
							"internalType": "address",
							"name": "requester",
							"type": "address"
						}
					],
					"name": "CarCrossingPermissionGranted",
					"type": "event"
				},
				{
					"anonymous": false,
					"inputs": [
						{
							"indexed": false,
							"internalType": "address",
							"name": "requester",
							"type": "address"
						}
					],
					"name": "CarCrossingPermissionReleased",
					"type": "event"
				},
				{
					"anonymous": false,
					"inputs": [
						{
							"indexed": false,
							"internalType": "address",
							"name": "requester",
							"type": "address"
						}
					],
					"name": "StopTrain",
					"type": "event"
				},
				{
					"anonymous": false,
					"inputs": [
						{
							"indexed": false,
							"internalType": "address",
							"name": "requester",
							"type": "address"
						}
					],
					"name": "TrainCrossingPermissionGranted",
					"type": "event"
				},
				{
					"anonymous": false,
					"inputs": [
						{
							"indexed": false,
							"internalType": "address",
							"name": "requester",
							"type": "address"
						}
					],
					"name": "TrainCrossingPermissionReleased",
					"type": "event"
				},
				{
					"anonymous": false,
					"inputs": [
						{
							"indexed": false,
							"internalType": "address",
							"name": "requester",
							"type": "address"
						},
						{
							"indexed": false,
							"internalType": "bool",
							"name": "first",
							"type": "bool"
						}
					],
					"name": "TrainCrossingRequest",
					"type": "event"
				},
				{
					"anonymous": false,
					"inputs": [
						{
							"indexed": false,
							"internalType": "address",
							"name": "requester",
							"type": "address"
						}
					],
					"name": "TrainCrossingWaitingForRetry",
					"type": "event"
				},
				{
					"inputs": [
						{
							"internalType": "address",
							"name": "train",
							"type": "address"
						}
					],
					"name": "authorizeTrain",
					"outputs": [],
					"stateMutability": "nonpayable",
					"type": "function"
				},
				{
					"inputs": [
						{
							"internalType": "address",
							"name": "",
							"type": "address"
						}
					],
					"name": "authorizedTrains",
					"outputs": [
						{
							"internalType": "bool",
							"name": "",
							"type": "bool"
						}
					],
					"stateMutability": "view",
					"type": "function"
				},
				{
					"inputs": [],
					"name": "crossingState",
					"outputs": [
						{
							"internalType": "enum TrainCrossing.CrossingState",
							"name": "",
							"type": "uint8"
						}
					],
					"stateMutability": "view",
					"type": "function"
				},
				{
					"inputs": [],
					"name": "crossingValidity",
					"outputs": [
						{
							"internalType": "uint256",
							"name": "",
							"type": "uint256"
						}
					],
					"stateMutability": "view",
					"type": "function"
				},
				{
					"inputs": [
						{
							"internalType": "address",
							"name": "",
							"type": "address"
						}
					],
					"name": "crossingVehicles",
					"outputs": [
						{
							"internalType": "bool",
							"name": "",
							"type": "bool"
						}
					],
					"stateMutability": "view",
					"type": "function"
				},
				{
					"inputs": [],
					"name": "currentCrossingCarNumber",
					"outputs": [
						{
							"internalType": "uint256",
							"name": "",
							"type": "uint256"
						}
					],
					"stateMutability": "view",
					"type": "function"
				},
				{
					"inputs": [
						{
							"internalType": "address",
							"name": "train",
							"type": "address"
						}
					],
					"name": "deauthorizeTrain",
					"outputs": [],
					"stateMutability": "nonpayable",
					"type": "function"
				},
				{
					"inputs": [],
					"name": "infrastructure",
					"outputs": [
						{
							"internalType": "address",
							"name": "",
							"type": "address"
						}
					],
					"stateMutability": "view",
					"type": "function"
				},
				{
					"inputs": [],
					"name": "lastUpdate",
					"outputs": [
						{
							"internalType": "uint256",
							"name": "",
							"type": "uint256"
						}
					],
					"stateMutability": "view",
					"type": "function"
				},
				{
					"inputs": [],
					"name": "maxCarsPerLane",
					"outputs": [
						{
							"internalType": "uint256",
							"name": "",
							"type": "uint256"
						}
					],
					"stateMutability": "view",
					"type": "function"
				},
				{
					"inputs": [],
					"name": "preLockedTime",
					"outputs": [
						{
							"internalType": "uint256",
							"name": "",
							"type": "uint256"
						}
					],
					"stateMutability": "view",
					"type": "function"
				},
				{
					"inputs": [],
					"name": "releaseCarPermission",
					"outputs": [],
					"stateMutability": "nonpayable",
					"type": "function"
				},
				{
					"inputs": [],
					"name": "releaseTrainCrossing",
					"outputs": [],
					"stateMutability": "nonpayable",
					"type": "function"
				},
				{
					"inputs": [],
					"name": "requestCarPermission",
					"outputs": [],
					"stateMutability": "nonpayable",
					"type": "function"
				},
				{
					"inputs": [],
					"name": "requestTrainCrossing",
					"outputs": [],
					"stateMutability": "nonpayable",
					"type": "function"
				},
				{
					"inputs": [],
					"name": "trainCrossingRequestNumber",
					"outputs": [
						{
							"internalType": "uint256",
							"name": "",
							"type": "uint256"
						}
					],
					"stateMutability": "view",
					"type": "function"
				},
				{
					"inputs": [
						{
							"internalType": "address",
							"name": "",
							"type": "address"
						}
					],
					"name": "trainCrossingRequests",
					"outputs": [
						{
							"internalType": "bool",
							"name": "",
							"type": "bool"
						}
					],
					"stateMutability": "view",
					"type": "function"
				},
				{
					"inputs": [
						{
							"internalType": "address",
							"name": "",
							"type": "address"
						}
					],
					"name": "trainRequestTimes",
					"outputs": [
						{
							"internalType": "uint256",
							"name": "",
							"type": "uint256"
						}
					],
					"stateMutability": "view",
					"type": "function"
				},
				{
					"inputs": [],
					"name": "updateFreeToCrossState",
					"outputs": [],
					"stateMutability": "nonpayable",
					"type": "function"
				}
			],
			"devdoc": {
				"kind": "dev",
				"methods": {},
				"version": 1
			},
			"evm": {
				"assembly": "    /* \"contracts/Crossing.sol\":27:5097  contract TrainCrossing {... */\n  mstore(0x40, 0x80)\n    /* \"contracts/Crossing.sol\":1834:2256  constructor(uint _crossingValidity, uint _maxCarsPerLane, uint _preLockedTime) {... */\n  callvalue\n  dup1\n  iszero\n  tag_1\n  jumpi\n  0x00\n  dup1\n  revert\ntag_1:\n  pop\n  mload(0x40)\n  sub(codesize, bytecodeSize)\n  dup1\n  bytecodeSize\n  dup4\n  codecopy\n  dup2\n  dup2\n  add\n  0x40\n  mstore\n  dup2\n  add\n  swap1\n  tag_2\n  swap2\n  swap1\n  tag_3\n  jump\t// in\ntag_2:\n    /* \"contracts/Crossing.sol\":1941:1951  msg.sender */\n  caller\n    /* \"contracts/Crossing.sol\":1924:1938  infrastructure */\n  0x00\n  0x01\n    /* \"contracts/Crossing.sol\":1924:1951  infrastructure = msg.sender */\n  0x0100\n  exp\n  dup2\n  sload\n  dup2\n  0xffffffffffffffffffffffffffffffffffffffff\n  mul\n  not\n  and\n  swap1\n  dup4\n  0xffffffffffffffffffffffffffffffffffffffff\n  and\n  mul\n  or\n  swap1\n  sstore\n  pop\n    /* \"contracts/Crossing.sol\":1981:1998  _crossingValidity */\n  dup3\n    /* \"contracts/Crossing.sol\":1962:1978  crossingValidity */\n  0x02\n    /* \"contracts/Crossing.sol\":1962:1998  crossingValidity = _crossingValidity */\n  dup2\n  swap1\n  sstore\n  pop\n    /* \"contracts/Crossing.sol\":2026:2041  _maxCarsPerLane */\n  dup2\n    /* \"contracts/Crossing.sol\":2009:2023  maxCarsPerLane */\n  0x03\n    /* \"contracts/Crossing.sol\":2009:2041  maxCarsPerLane = _maxCarsPerLane */\n  dup2\n  swap1\n  sstore\n  pop\n    /* \"contracts/Crossing.sol\":2068:2082  _preLockedTime */\n  dup1\n    /* \"contracts/Crossing.sol\":2052:2065  preLockedTime */\n  0x04\n    /* \"contracts/Crossing.sol\":2052:2082  preLockedTime = _preLockedTime */\n  dup2\n  swap1\n  sstore\n  pop\n    /* \"contracts/Crossing.sol\":2109:2129  CrossingState.LOCKED */\n  0x01\n    /* \"contracts/Crossing.sol\":2093:2106  crossingState */\n  0x00\n  dup1\n    /* \"contracts/Crossing.sol\":2093:2129  crossingState = CrossingState.LOCKED */\n  0x0100\n  exp\n  dup2\n  sload\n  dup2\n  0xff\n  mul\n  not\n  and\n  swap1\n  dup4\n  0x02\n  dup2\n  gt\n  iszero\n  tag_6\n  jumpi\n  tag_7\n  tag_8\n  jump\t// in\ntag_7:\ntag_6:\n  mul\n  or\n  swap1\n  sstore\n  pop\n    /* \"contracts/Crossing.sol\":2167:2168  0 */\n  0x00\n    /* \"contracts/Crossing.sol\":2140:2164  currentCrossingCarNumber */\n  0x05\n    /* \"contracts/Crossing.sol\":2140:2168  currentCrossingCarNumber = 0 */\n  dup2\n  swap1\n  sstore\n  pop\n    /* \"contracts/Crossing.sol\":2208:2209  0 */\n  0x00\n    /* \"contracts/Crossing.sol\":2179:2205  trainCrossingRequestNumber */\n  0x06\n    /* \"contracts/Crossing.sol\":2179:2209  trainCrossingRequestNumber = 0 */\n  dup2\n  swap1\n  sstore\n  pop\n    /* \"contracts/Crossing.sol\":2233:2248  block.timestamp */\n  timestamp\n    /* \"contracts/Crossing.sol\":2220:2230  lastUpdate */\n  0x01\n    /* \"contracts/Crossing.sol\":2220:2248  lastUpdate = block.timestamp */\n  dup2\n  swap1\n  sstore\n  pop\n    /* \"contracts/Crossing.sol\":1834:2256  constructor(uint _crossingValidity, uint _maxCarsPerLane, uint _preLockedTime) {... */\n  pop\n  pop\n  pop\n    /* \"contracts/Crossing.sol\":27:5097  contract TrainCrossing {... */\n  jump(tag_9)\n    /* \"#utility.yul\":88:205   */\ntag_11:\n    /* \"#utility.yul\":197:198   */\n  0x00\n    /* \"#utility.yul\":194:195   */\n  dup1\n    /* \"#utility.yul\":187:199   */\n  revert\n    /* \"#utility.yul\":334:411   */\ntag_13:\n    /* \"#utility.yul\":371:378   */\n  0x00\n    /* \"#utility.yul\":400:405   */\n  dup2\n    /* \"#utility.yul\":389:405   */\n  swap1\n  pop\n    /* \"#utility.yul\":334:411   */\n  swap2\n  swap1\n  pop\n  jump\t// out\n    /* \"#utility.yul\":417:539   */\ntag_14:\n    /* \"#utility.yul\":490:514   */\n  tag_22\n    /* \"#utility.yul\":508:513   */\n  dup2\n    /* \"#utility.yul\":490:514   */\n  tag_13\n  jump\t// in\ntag_22:\n    /* \"#utility.yul\":483:488   */\n  dup2\n    /* \"#utility.yul\":480:515   */\n  eq\n    /* \"#utility.yul\":470:533   */\n  tag_23\n  jumpi\n    /* \"#utility.yul\":529:530   */\n  0x00\n    /* \"#utility.yul\":526:527   */\n  dup1\n    /* \"#utility.yul\":519:531   */\n  revert\n    /* \"#utility.yul\":470:533   */\ntag_23:\n    /* \"#utility.yul\":417:539   */\n  pop\n  jump\t// out\n    /* \"#utility.yul\":545:688   */\ntag_15:\n    /* \"#utility.yul\":602:607   */\n  0x00\n    /* \"#utility.yul\":633:639   */\n  dup2\n    /* \"#utility.yul\":627:640   */\n  mload\n    /* \"#utility.yul\":618:640   */\n  swap1\n  pop\n    /* \"#utility.yul\":649:682   */\n  tag_25\n    /* \"#utility.yul\":676:681   */\n  dup2\n    /* \"#utility.yul\":649:682   */\n  tag_14\n  jump\t// in\ntag_25:\n    /* \"#utility.yul\":545:688   */\n  swap3\n  swap2\n  pop\n  pop\n  jump\t// out\n    /* \"#utility.yul\":694:1357   */\ntag_3:\n    /* \"#utility.yul\":782:788   */\n  0x00\n    /* \"#utility.yul\":790:796   */\n  dup1\n    /* \"#utility.yul\":798:804   */\n  0x00\n    /* \"#utility.yul\":847:849   */\n  0x60\n    /* \"#utility.yul\":835:844   */\n  dup5\n    /* \"#utility.yul\":826:833   */\n  dup7\n    /* \"#utility.yul\":822:845   */\n  sub\n    /* \"#utility.yul\":818:850   */\n  slt\n    /* \"#utility.yul\":815:934   */\n  iszero\n  tag_27\n  jumpi\n    /* \"#utility.yul\":853:932   */\n  tag_28\n  tag_11\n  jump\t// in\ntag_28:\n    /* \"#utility.yul\":815:934   */\ntag_27:\n    /* \"#utility.yul\":973:974   */\n  0x00\n    /* \"#utility.yul\":998:1062   */\n  tag_29\n    /* \"#utility.yul\":1054:1061   */\n  dup7\n    /* \"#utility.yul\":1045:1051   */\n  dup3\n    /* \"#utility.yul\":1034:1043   */\n  dup8\n    /* \"#utility.yul\":1030:1052   */\n  add\n    /* \"#utility.yul\":998:1062   */\n  tag_15\n  jump\t// in\ntag_29:\n    /* \"#utility.yul\":988:1062   */\n  swap4\n  pop\n    /* \"#utility.yul\":944:1072   */\n  pop\n    /* \"#utility.yul\":1111:1113   */\n  0x20\n    /* \"#utility.yul\":1137:1201   */\n  tag_30\n    /* \"#utility.yul\":1193:1200   */\n  dup7\n    /* \"#utility.yul\":1184:1190   */\n  dup3\n    /* \"#utility.yul\":1173:1182   */\n  dup8\n    /* \"#utility.yul\":1169:1191   */\n  add\n    /* \"#utility.yul\":1137:1201   */\n  tag_15\n  jump\t// in\ntag_30:\n    /* \"#utility.yul\":1127:1201   */\n  swap3\n  pop\n    /* \"#utility.yul\":1082:1211   */\n  pop\n    /* \"#utility.yul\":1250:1252   */\n  0x40\n    /* \"#utility.yul\":1276:1340   */\n  tag_31\n    /* \"#utility.yul\":1332:1339   */\n  dup7\n    /* \"#utility.yul\":1323:1329   */\n  dup3\n    /* \"#utility.yul\":1312:1321   */\n  dup8\n    /* \"#utility.yul\":1308:1330   */\n  add\n    /* \"#utility.yul\":1276:1340   */\n  tag_15\n  jump\t// in\ntag_31:\n    /* \"#utility.yul\":1266:1340   */\n  swap2\n  pop\n    /* \"#utility.yul\":1221:1350   */\n  pop\n    /* \"#utility.yul\":694:1357   */\n  swap3\n  pop\n  swap3\n  pop\n  swap3\n  jump\t// out\n    /* \"#utility.yul\":1363:1543   */\ntag_8:\n    /* \"#utility.yul\":1411:1488   */\n  0x4e487b7100000000000000000000000000000000000000000000000000000000\n    /* \"#utility.yul\":1408:1409   */\n  0x00\n    /* \"#utility.yul\":1401:1489   */\n  mstore\n    /* \"#utility.yul\":1508:1512   */\n  0x21\n    /* \"#utility.yul\":1505:1506   */\n  0x04\n    /* \"#utility.yul\":1498:1513   */\n  mstore\n    /* \"#utility.yul\":1532:1536   */\n  0x24\n    /* \"#utility.yul\":1529:1530   */\n  0x00\n    /* \"#utility.yul\":1522:1537   */\n  revert\n    /* \"contracts/Crossing.sol\":27:5097  contract TrainCrossing {... */\ntag_9:\n  dataSize(sub_0)\n  dup1\n  dataOffset(sub_0)\n  0x00\n  codecopy\n  0x00\n  return\nstop\n\nsub_0: assembly {\n        /* \"contracts/Crossing.sol\":27:5097  contract TrainCrossing {... */\n      mstore(0x40, 0x80)\n      callvalue\n      dup1\n      iszero\n      tag_1\n      jumpi\n      0x00\n      dup1\n      revert\n    tag_1:\n      pop\n      jumpi(tag_2, lt(calldatasize, 0x04))\n      shr(0xe0, calldataload(0x00))\n      dup1\n      0x826b1d68\n      gt\n      tag_22\n      jumpi\n      dup1\n      0xc0463711\n      gt\n      tag_23\n      jumpi\n      dup1\n      0xc0463711\n      eq\n      tag_17\n      jumpi\n      dup1\n      0xcee321d6\n      eq\n      tag_18\n      jumpi\n      dup1\n      0xe4fa8da9\n      eq\n      tag_19\n      jumpi\n      dup1\n      0xec9aaec8\n      eq\n      tag_20\n      jumpi\n      dup1\n      0xfae68b4d\n      eq\n      tag_21\n      jumpi\n      jump(tag_2)\n    tag_23:\n      dup1\n      0x826b1d68\n      eq\n      tag_12\n      jumpi\n      dup1\n      0x8d46e930\n      eq\n      tag_13\n      jumpi\n      dup1\n      0x9bd565d6\n      eq\n      tag_14\n      jumpi\n      dup1\n      0xa21c30de\n      eq\n      tag_15\n      jumpi\n      dup1\n      0xbaa12859\n      eq\n      tag_16\n      jumpi\n      jump(tag_2)\n    tag_22:\n      dup1\n      0x40ef3a69\n      gt\n      tag_24\n      jumpi\n      dup1\n      0x40ef3a69\n      eq\n      tag_7\n      jumpi\n      dup1\n      0x6bab9804\n      eq\n      tag_8\n      jumpi\n      dup1\n      0x6fcc55fc\n      eq\n      tag_9\n      jumpi\n      dup1\n      0x74e18625\n      eq\n      tag_10\n      jumpi\n      dup1\n      0x80db9e50\n      eq\n      tag_11\n      jumpi\n      jump(tag_2)\n    tag_24:\n      dup1\n      0x064527ca\n      eq\n      tag_3\n      jumpi\n      dup1\n      0x312d6a81\n      eq\n      tag_4\n      jumpi\n      dup1\n      0x3c3244ab\n      eq\n      tag_5\n      jumpi\n      dup1\n      0x3ed6ba3d\n      eq\n      tag_6\n      jumpi\n    tag_2:\n      0x00\n      dup1\n      revert\n        /* \"contracts/Crossing.sol\":2291:2588  function requestCarPermission() external onlyFreeToCross onlyWhenCrossingNotFull {... */\n    tag_3:\n      tag_25\n      tag_26\n      jump\t// in\n    tag_25:\n      stop\n        /* \"contracts/Crossing.sol\":4536:4655  function deauthorizeTrain(address train) external onlyInfrastructure {... */\n    tag_4:\n      tag_27\n      0x04\n      dup1\n      calldatasize\n      sub\n      dup2\n      add\n      swap1\n      tag_28\n      swap2\n      swap1\n      tag_29\n      jump\t// in\n    tag_28:\n      tag_30\n      jump\t// in\n    tag_27:\n      stop\n        /* \"contracts/Crossing.sol\":538:587  mapping(address => uint) public trainRequestTimes */\n    tag_5:\n      tag_31\n      0x04\n      dup1\n      calldatasize\n      sub\n      dup2\n      add\n      swap1\n      tag_32\n      swap2\n      swap1\n      tag_29\n      jump\t// in\n    tag_32:\n      tag_33\n      jump\t// in\n    tag_31:\n      mload(0x40)\n      tag_34\n      swap2\n      swap1\n      tag_35\n      jump\t// in\n    tag_34:\n      mload(0x40)\n      dup1\n      swap2\n      sub\n      swap1\n      return\n        /* \"contracts/Crossing.sol\":297:322  uint public preLockedTime */\n    tag_6:\n      tag_36\n      tag_37\n      jump\t// in\n    tag_36:\n      mload(0x40)\n      tag_38\n      swap2\n      swap1\n      tag_35\n      jump\t// in\n    tag_38:\n      mload(0x40)\n      dup1\n      swap2\n      sub\n      swap1\n      return\n        /* \"contracts/Crossing.sol\":123:157  CrossingState public crossingState */\n    tag_7:\n      tag_39\n      tag_40\n      jump\t// in\n    tag_39:\n      mload(0x40)\n      tag_41\n      swap2\n      swap1\n      tag_42\n      jump\t// in\n    tag_41:\n      mload(0x40)\n      dup1\n      swap2\n      sub\n      swap1\n      return\n        /* \"contracts/Crossing.sol\":264:290  uint public maxCarsPerLane */\n    tag_8:\n      tag_43\n      tag_44\n      jump\t// in\n    tag_43:\n      mload(0x40)\n      tag_45\n      swap2\n      swap1\n      tag_35\n      jump\t// in\n    tag_45:\n      mload(0x40)\n      dup1\n      swap2\n      sub\n      swap1\n      return\n        /* \"contracts/Crossing.sol\":2915:3742  function requestTrainCrossing() external onlyAuthorizedTrain {... */\n    tag_9:\n      tag_46\n      tag_47\n      jump\t// in\n    tag_46:\n      stop\n        /* \"contracts/Crossing.sol\":4241:4404  function updateFreeToCrossState() external onlyInfrastructure {... */\n    tag_10:\n      tag_48\n      tag_49\n      jump\t// in\n    tag_48:\n      stop\n        /* \"contracts/Crossing.sol\":2596:2874  function releaseCarPermission() external {... */\n    tag_11:\n      tag_50\n      tag_51\n      jump\t// in\n    tag_50:\n      stop\n        /* \"contracts/Crossing.sol\":3750:4200  function releaseTrainCrossing() external onlyAuthorizedTrain {... */\n    tag_12:\n      tag_52\n      tag_53\n      jump\t// in\n    tag_52:\n      stop\n        /* \"contracts/Crossing.sol\":4412:4528  function authorizeTrain(address train) external onlyInfrastructure {... */\n    tag_13:\n      tag_54\n      0x04\n      dup1\n      calldatasize\n      sub\n      dup2\n      add\n      swap1\n      tag_55\n      swap2\n      swap1\n      tag_29\n      jump\t// in\n    tag_55:\n      tag_56\n      jump\t// in\n    tag_54:\n      stop\n        /* \"contracts/Crossing.sol\":164:193  address public infrastructure */\n    tag_14:\n      tag_57\n      tag_58\n      jump\t// in\n    tag_57:\n      mload(0x40)\n      tag_59\n      swap2\n      swap1\n      tag_60\n      jump\t// in\n    tag_59:\n      mload(0x40)\n      dup1\n      swap2\n      sub\n      swap1\n      return\n        /* \"contracts/Crossing.sol\":478:531  mapping(address => bool) public trainCrossingRequests */\n    tag_15:\n      tag_61\n      0x04\n      dup1\n      calldatasize\n      sub\n      dup2\n      add\n      swap1\n      tag_62\n      swap2\n      swap1\n      tag_29\n      jump\t// in\n    tag_62:\n      tag_63\n      jump\t// in\n    tag_61:\n      mload(0x40)\n      tag_64\n      swap2\n      swap1\n      tag_65\n      jump\t// in\n    tag_64:\n      mload(0x40)\n      dup1\n      swap2\n      sub\n      swap1\n      return\n        /* \"contracts/Crossing.sol\":423:471  mapping(address => bool) public crossingVehicles */\n    tag_16:\n      tag_66\n      0x04\n      dup1\n      calldatasize\n      sub\n      dup2\n      add\n      swap1\n      tag_67\n      swap2\n      swap1\n      tag_29\n      jump\t// in\n    tag_67:\n      tag_68\n      jump\t// in\n    tag_66:\n      mload(0x40)\n      tag_69\n      swap2\n      swap1\n      tag_65\n      jump\t// in\n    tag_69:\n      mload(0x40)\n      dup1\n      swap2\n      sub\n      swap1\n      return\n        /* \"contracts/Crossing.sol\":200:222  uint public lastUpdate */\n    tag_17:\n      tag_70\n      tag_71\n      jump\t// in\n    tag_70:\n      mload(0x40)\n      tag_72\n      swap2\n      swap1\n      tag_35\n      jump\t// in\n    tag_72:\n      mload(0x40)\n      dup1\n      swap2\n      sub\n      swap1\n      return\n        /* \"contracts/Crossing.sol\":329:365  uint public currentCrossingCarNumber */\n    tag_18:\n      tag_73\n      tag_74\n      jump\t// in\n    tag_73:\n      mload(0x40)\n      tag_75\n      swap2\n      swap1\n      tag_35\n      jump\t// in\n    tag_75:\n      mload(0x40)\n      dup1\n      swap2\n      sub\n      swap1\n      return\n        /* \"contracts/Crossing.sol\":229:257  uint public crossingValidity */\n    tag_19:\n      tag_76\n      tag_77\n      jump\t// in\n    tag_76:\n      mload(0x40)\n      tag_78\n      swap2\n      swap1\n      tag_35\n      jump\t// in\n    tag_78:\n      mload(0x40)\n      dup1\n      swap2\n      sub\n      swap1\n      return\n        /* \"contracts/Crossing.sol\":594:642  mapping(address => bool) public authorizedTrains */\n    tag_20:\n      tag_79\n      0x04\n      dup1\n      calldatasize\n      sub\n      dup2\n      add\n      swap1\n      tag_80\n      swap2\n      swap1\n      tag_29\n      jump\t// in\n    tag_80:\n      tag_81\n      jump\t// in\n    tag_79:\n      mload(0x40)\n      tag_82\n      swap2\n      swap1\n      tag_65\n      jump\t// in\n    tag_82:\n      mload(0x40)\n      dup1\n      swap2\n      sub\n      swap1\n      return\n        /* \"contracts/Crossing.sol\":372:410  uint public trainCrossingRequestNumber */\n    tag_21:\n      tag_83\n      tag_84\n      jump\t// in\n    tag_83:\n      mload(0x40)\n      tag_85\n      swap2\n      swap1\n      tag_35\n      jump\t// in\n    tag_85:\n      mload(0x40)\n      dup1\n      swap2\n      sub\n      swap1\n      return\n        /* \"contracts/Crossing.sol\":2291:2588  function requestCarPermission() external onlyFreeToCross onlyWhenCrossingNotFull {... */\n    tag_26:\n        /* \"contracts/Crossing.sol\":1399:1422  checkFreeToCrossTimer() */\n      tag_87\n        /* \"contracts/Crossing.sol\":1399:1420  checkFreeToCrossTimer */\n      tag_88\n        /* \"contracts/Crossing.sol\":1399:1422  checkFreeToCrossTimer() */\n      jump\t// in\n    tag_87:\n        /* \"contracts/Crossing.sol\":1458:1485  CrossingState.FREE_TO_CROSS */\n      0x00\n        /* \"contracts/Crossing.sol\":1441:1485  crossingState == CrossingState.FREE_TO_CROSS */\n      0x02\n      dup2\n      gt\n      iszero\n      tag_89\n      jumpi\n      tag_90\n      tag_91\n      jump\t// in\n    tag_90:\n    tag_89:\n        /* \"contracts/Crossing.sol\":1441:1454  crossingState */\n      0x00\n      dup1\n      sload\n      swap1\n      0x0100\n      exp\n      swap1\n      div\n      0xff\n      and\n        /* \"contracts/Crossing.sol\":1441:1485  crossingState == CrossingState.FREE_TO_CROSS */\n      0x02\n      dup2\n      gt\n      iszero\n      tag_92\n      jumpi\n      tag_93\n      tag_91\n      jump\t// in\n    tag_93:\n    tag_92:\n      eq\n        /* \"contracts/Crossing.sol\":1433:1520  require(crossingState == CrossingState.FREE_TO_CROSS, \"Crossing is not free to cross.\") */\n      tag_94\n      jumpi\n      mload(0x40)\n      0x08c379a000000000000000000000000000000000000000000000000000000000\n      dup2\n      mstore\n      0x04\n      add\n      tag_95\n      swap1\n      tag_96\n      jump\t// in\n    tag_95:\n      mload(0x40)\n      dup1\n      swap2\n      sub\n      swap1\n      revert\n    tag_94:\n        /* \"contracts/Crossing.sol\":1766:1780  maxCarsPerLane */\n      sload(0x03)\n        /* \"contracts/Crossing.sol\":1739:1763  currentCrossingCarNumber */\n      sload(0x05)\n        /* \"contracts/Crossing.sol\":1739:1780  currentCrossingCarNumber < maxCarsPerLane */\n      lt\n        /* \"contracts/Crossing.sol\":1731:1802  require(currentCrossingCarNumber < maxCarsPerLane, \"Crossing is full.\") */\n      tag_98\n      jumpi\n      mload(0x40)\n      0x08c379a000000000000000000000000000000000000000000000000000000000\n      dup2\n      mstore\n      0x04\n      add\n      tag_99\n      swap1\n      tag_100\n      jump\t// in\n    tag_99:\n      mload(0x40)\n      dup1\n      swap2\n      sub\n      swap1\n      revert\n    tag_98:\n        /* \"contracts/Crossing.sol\":2392:2408  crossingVehicles */\n      0x07\n        /* \"contracts/Crossing.sol\":2392:2420  crossingVehicles[msg.sender] */\n      0x00\n        /* \"contracts/Crossing.sol\":2409:2419  msg.sender */\n      caller\n        /* \"contracts/Crossing.sol\":2392:2420  crossingVehicles[msg.sender] */\n      0xffffffffffffffffffffffffffffffffffffffff\n      and\n      0xffffffffffffffffffffffffffffffffffffffff\n      and\n      dup2\n      mstore\n      0x20\n      add\n      swap1\n      dup2\n      mstore\n      0x20\n      add\n      0x00\n      keccak256\n      0x00\n      swap1\n      sload\n      swap1\n      0x0100\n      exp\n      swap1\n      div\n      0xff\n      and\n        /* \"contracts/Crossing.sol\":2391:2420  !crossingVehicles[msg.sender] */\n      iszero\n        /* \"contracts/Crossing.sol\":2383:2441  require(!crossingVehicles[msg.sender], \"Already crossing\") */\n      tag_102\n      jumpi\n      mload(0x40)\n      0x08c379a000000000000000000000000000000000000000000000000000000000\n      dup2\n      mstore\n      0x04\n      add\n      tag_103\n      swap1\n      tag_104\n      jump\t// in\n    tag_103:\n      mload(0x40)\n      dup1\n      swap2\n      sub\n      swap1\n      revert\n    tag_102:\n        /* \"contracts/Crossing.sol\":2483:2487  true */\n      0x01\n        /* \"contracts/Crossing.sol\":2452:2468  crossingVehicles */\n      0x07\n        /* \"contracts/Crossing.sol\":2452:2480  crossingVehicles[msg.sender] */\n      0x00\n        /* \"contracts/Crossing.sol\":2469:2479  msg.sender */\n      caller\n        /* \"contracts/Crossing.sol\":2452:2480  crossingVehicles[msg.sender] */\n      0xffffffffffffffffffffffffffffffffffffffff\n      and\n      0xffffffffffffffffffffffffffffffffffffffff\n      and\n      dup2\n      mstore\n      0x20\n      add\n      swap1\n      dup2\n      mstore\n      0x20\n      add\n      0x00\n      keccak256\n      0x00\n        /* \"contracts/Crossing.sol\":2452:2487  crossingVehicles[msg.sender] = true */\n      0x0100\n      exp\n      dup2\n      sload\n      dup2\n      0xff\n      mul\n      not\n      and\n      swap1\n      dup4\n      iszero\n      iszero\n      mul\n      or\n      swap1\n      sstore\n      pop\n        /* \"contracts/Crossing.sol\":2498:2522  currentCrossingCarNumber */\n      0x05\n      0x00\n        /* \"contracts/Crossing.sol\":2498:2524  currentCrossingCarNumber++ */\n      dup2\n      sload\n      dup1\n      swap3\n      swap2\n      swap1\n      tag_105\n      swap1\n      tag_106\n      jump\t// in\n    tag_105:\n      swap2\n      swap1\n      pop\n      sstore\n      pop\n        /* \"contracts/Crossing.sol\":2540:2580  CarCrossingPermissionGranted(msg.sender) */\n      0x8b0924eaa49635981070514597e848549adc7d69bc943b4b2a7ceefb16003dc2\n        /* \"contracts/Crossing.sol\":2569:2579  msg.sender */\n      caller\n        /* \"contracts/Crossing.sol\":2540:2580  CarCrossingPermissionGranted(msg.sender) */\n      mload(0x40)\n      tag_107\n      swap2\n      swap1\n      tag_60\n      jump\t// in\n    tag_107:\n      mload(0x40)\n      dup1\n      swap2\n      sub\n      swap1\n      log1\n        /* \"contracts/Crossing.sol\":2291:2588  function requestCarPermission() external onlyFreeToCross onlyWhenCrossingNotFull {... */\n      jump\t// out\n        /* \"contracts/Crossing.sol\":4536:4655  function deauthorizeTrain(address train) external onlyInfrastructure {... */\n    tag_30:\n        /* \"contracts/Crossing.sol\":1135:1149  infrastructure */\n      0x00\n      0x01\n      swap1\n      sload\n      swap1\n      0x0100\n      exp\n      swap1\n      div\n      0xffffffffffffffffffffffffffffffffffffffff\n      and\n        /* \"contracts/Crossing.sol\":1121:1149  msg.sender == infrastructure */\n      0xffffffffffffffffffffffffffffffffffffffff\n      and\n        /* \"contracts/Crossing.sol\":1121:1131  msg.sender */\n      caller\n        /* \"contracts/Crossing.sol\":1121:1149  msg.sender == infrastructure */\n      0xffffffffffffffffffffffffffffffffffffffff\n      and\n      eq\n        /* \"contracts/Crossing.sol\":1113:1197  require(msg.sender == infrastructure, \"Only infrastructure can call this function.\") */\n      tag_109\n      jumpi\n      mload(0x40)\n      0x08c379a000000000000000000000000000000000000000000000000000000000\n      dup2\n      mstore\n      0x04\n      add\n      tag_110\n      swap1\n      tag_111\n      jump\t// in\n    tag_110:\n      mload(0x40)\n      dup1\n      swap2\n      sub\n      swap1\n      revert\n    tag_109:\n        /* \"contracts/Crossing.sol\":4642:4647  false */\n      0x00\n        /* \"contracts/Crossing.sol\":4616:4632  authorizedTrains */\n      0x0a\n        /* \"contracts/Crossing.sol\":4616:4639  authorizedTrains[train] */\n      0x00\n        /* \"contracts/Crossing.sol\":4633:4638  train */\n      dup4\n        /* \"contracts/Crossing.sol\":4616:4639  authorizedTrains[train] */\n      0xffffffffffffffffffffffffffffffffffffffff\n      and\n      0xffffffffffffffffffffffffffffffffffffffff\n      and\n      dup2\n      mstore\n      0x20\n      add\n      swap1\n      dup2\n      mstore\n      0x20\n      add\n      0x00\n      keccak256\n      0x00\n        /* \"contracts/Crossing.sol\":4616:4647  authorizedTrains[train] = false */\n      0x0100\n      exp\n      dup2\n      sload\n      dup2\n      0xff\n      mul\n      not\n      and\n      swap1\n      dup4\n      iszero\n      iszero\n      mul\n      or\n      swap1\n      sstore\n      pop\n        /* \"contracts/Crossing.sol\":4536:4655  function deauthorizeTrain(address train) external onlyInfrastructure {... */\n      pop\n      jump\t// out\n        /* \"contracts/Crossing.sol\":538:587  mapping(address => uint) public trainRequestTimes */\n    tag_33:\n      mstore(0x20, 0x09)\n      dup1\n      0x00\n      mstore\n      keccak256(0x00, 0x40)\n      0x00\n      swap2\n      pop\n      swap1\n      pop\n      sload\n      dup2\n      jump\t// out\n        /* \"contracts/Crossing.sol\":297:322  uint public preLockedTime */\n    tag_37:\n      sload(0x04)\n      dup2\n      jump\t// out\n        /* \"contracts/Crossing.sol\":123:157  CrossingState public crossingState */\n    tag_40:\n      0x00\n      dup1\n      sload\n      swap1\n      0x0100\n      exp\n      swap1\n      div\n      0xff\n      and\n      dup2\n      jump\t// out\n        /* \"contracts/Crossing.sol\":264:290  uint public maxCarsPerLane */\n    tag_44:\n      sload(0x03)\n      dup2\n      jump\t// out\n        /* \"contracts/Crossing.sol\":2915:3742  function requestTrainCrossing() external onlyAuthorizedTrain {... */\n    tag_47:\n        /* \"contracts/Crossing.sol\":1275:1291  authorizedTrains */\n      0x0a\n        /* \"contracts/Crossing.sol\":1275:1303  authorizedTrains[msg.sender] */\n      0x00\n        /* \"contracts/Crossing.sol\":1292:1302  msg.sender */\n      caller\n        /* \"contracts/Crossing.sol\":1275:1303  authorizedTrains[msg.sender] */\n      0xffffffffffffffffffffffffffffffffffffffff\n      and\n      0xffffffffffffffffffffffffffffffffffffffff\n      and\n      dup2\n      mstore\n      0x20\n      add\n      swap1\n      dup2\n      mstore\n      0x20\n      add\n      0x00\n      keccak256\n      0x00\n      swap1\n      sload\n      swap1\n      0x0100\n      exp\n      swap1\n      div\n      0xff\n      and\n        /* \"contracts/Crossing.sol\":1267:1329  require(authorizedTrains[msg.sender], \"Not authorized train.\") */\n      tag_114\n      jumpi\n      mload(0x40)\n      0x08c379a000000000000000000000000000000000000000000000000000000000\n      dup2\n      mstore\n      0x04\n      add\n      tag_115\n      swap1\n      tag_116\n      jump\t// in\n    tag_115:\n      mload(0x40)\n      dup1\n      swap2\n      sub\n      swap1\n      revert\n    tag_114:\n        /* \"contracts/Crossing.sol\":2992:3060  TrainCrossingRequest(msg.sender, !trainCrossingRequests[msg.sender]) */\n      0x99dabed7f6f5ed6344a92aa6d218a2783233053b23aab6cc21a53bf4c5980f50\n        /* \"contracts/Crossing.sol\":3013:3023  msg.sender */\n      caller\n        /* \"contracts/Crossing.sol\":3026:3047  trainCrossingRequests */\n      0x08\n        /* \"contracts/Crossing.sol\":3026:3059  trainCrossingRequests[msg.sender] */\n      0x00\n        /* \"contracts/Crossing.sol\":3048:3058  msg.sender */\n      caller\n        /* \"contracts/Crossing.sol\":3026:3059  trainCrossingRequests[msg.sender] */\n      0xffffffffffffffffffffffffffffffffffffffff\n      and\n      0xffffffffffffffffffffffffffffffffffffffff\n      and\n      dup2\n      mstore\n      0x20\n      add\n      swap1\n      dup2\n      mstore\n      0x20\n      add\n      0x00\n      keccak256\n      0x00\n      swap1\n      sload\n      swap1\n      0x0100\n      exp\n      swap1\n      div\n      0xff\n      and\n        /* \"contracts/Crossing.sol\":3025:3059  !trainCrossingRequests[msg.sender] */\n      iszero\n        /* \"contracts/Crossing.sol\":2992:3060  TrainCrossingRequest(msg.sender, !trainCrossingRequests[msg.sender]) */\n      mload(0x40)\n      tag_118\n      swap3\n      swap2\n      swap1\n      tag_119\n      jump\t// in\n    tag_118:\n      mload(0x40)\n      dup1\n      swap2\n      sub\n      swap1\n      log1\n        /* \"contracts/Crossing.sol\":3078:3099  trainCrossingRequests */\n      0x08\n        /* \"contracts/Crossing.sol\":3078:3111  trainCrossingRequests[msg.sender] */\n      0x00\n        /* \"contracts/Crossing.sol\":3100:3110  msg.sender */\n      caller\n        /* \"contracts/Crossing.sol\":3078:3111  trainCrossingRequests[msg.sender] */\n      0xffffffffffffffffffffffffffffffffffffffff\n      and\n      0xffffffffffffffffffffffffffffffffffffffff\n      and\n      dup2\n      mstore\n      0x20\n      add\n      swap1\n      dup2\n      mstore\n      0x20\n      add\n      0x00\n      keccak256\n      0x00\n      swap1\n      sload\n      swap1\n      0x0100\n      exp\n      swap1\n      div\n      0xff\n      and\n        /* \"contracts/Crossing.sol\":3073:3285  if (!trainCrossingRequests[msg.sender]) {... */\n      tag_120\n      jumpi\n        /* \"contracts/Crossing.sol\":3164:3168  true */\n      0x01\n        /* \"contracts/Crossing.sol\":3128:3149  trainCrossingRequests */\n      0x08\n        /* \"contracts/Crossing.sol\":3128:3161  trainCrossingRequests[msg.sender] */\n      0x00\n        /* \"contracts/Crossing.sol\":3150:3160  msg.sender */\n      caller\n        /* \"contracts/Crossing.sol\":3128:3161  trainCrossingRequests[msg.sender] */\n      0xffffffffffffffffffffffffffffffffffffffff\n      and\n      0xffffffffffffffffffffffffffffffffffffffff\n      and\n      dup2\n      mstore\n      0x20\n      add\n      swap1\n      dup2\n      mstore\n      0x20\n      add\n      0x00\n      keccak256\n      0x00\n        /* \"contracts/Crossing.sol\":3128:3168  trainCrossingRequests[msg.sender] = true */\n      0x0100\n      exp\n      dup2\n      sload\n      dup2\n      0xff\n      mul\n      not\n      and\n      swap1\n      dup4\n      iszero\n      iszero\n      mul\n      or\n      swap1\n      sstore\n      pop\n        /* \"contracts/Crossing.sol\":3215:3230  block.timestamp */\n      timestamp\n        /* \"contracts/Crossing.sol\":3183:3200  trainRequestTimes */\n      0x09\n        /* \"contracts/Crossing.sol\":3183:3212  trainRequestTimes[msg.sender] */\n      0x00\n        /* \"contracts/Crossing.sol\":3201:3211  msg.sender */\n      caller\n        /* \"contracts/Crossing.sol\":3183:3212  trainRequestTimes[msg.sender] */\n      0xffffffffffffffffffffffffffffffffffffffff\n      and\n      0xffffffffffffffffffffffffffffffffffffffff\n      and\n      dup2\n      mstore\n      0x20\n      add\n      swap1\n      dup2\n      mstore\n      0x20\n      add\n      0x00\n      keccak256\n        /* \"contracts/Crossing.sol\":3183:3230  trainRequestTimes[msg.sender] = block.timestamp */\n      dup2\n      swap1\n      sstore\n      pop\n        /* \"contracts/Crossing.sol\":3245:3271  trainCrossingRequestNumber */\n      0x06\n      0x00\n        /* \"contracts/Crossing.sol\":3245:3273  trainCrossingRequestNumber++ */\n      dup2\n      sload\n      dup1\n      swap3\n      swap2\n      swap1\n      tag_121\n      swap1\n      tag_106\n      jump\t// in\n    tag_121:\n      swap2\n      swap1\n      pop\n      sstore\n      pop\n        /* \"contracts/Crossing.sol\":3073:3285  if (!trainCrossingRequests[msg.sender]) {... */\n    tag_120:\n        /* \"contracts/Crossing.sol\":3297:3311  lockCrossing() */\n      tag_122\n        /* \"contracts/Crossing.sol\":3297:3309  lockCrossing */\n      tag_123\n        /* \"contracts/Crossing.sol\":3297:3311  lockCrossing() */\n      jump\t// in\n    tag_122:\n        /* \"contracts/Crossing.sol\":3345:3369  CrossingState.PRE_LOCKED */\n      0x02\n        /* \"contracts/Crossing.sol\":3328:3369  crossingState == CrossingState.PRE_LOCKED */\n      dup1\n      dup2\n      gt\n      iszero\n      tag_124\n      jumpi\n      tag_125\n      tag_91\n      jump\t// in\n    tag_125:\n    tag_124:\n        /* \"contracts/Crossing.sol\":3328:3341  crossingState */\n      0x00\n      dup1\n      sload\n      swap1\n      0x0100\n      exp\n      swap1\n      div\n      0xff\n      and\n        /* \"contracts/Crossing.sol\":3328:3369  crossingState == CrossingState.PRE_LOCKED */\n      0x02\n      dup2\n      gt\n      iszero\n      tag_126\n      jumpi\n      tag_127\n      tag_91\n      jump\t// in\n    tag_127:\n    tag_126:\n      sub\n        /* \"contracts/Crossing.sol\":3324:3735  if (crossingState == CrossingState.PRE_LOCKED) {... */\n      tag_128\n      jumpi\n        /* \"contracts/Crossing.sol\":3440:3453  preLockedTime */\n      sload(0x04)\n        /* \"contracts/Crossing.sol\":3408:3425  trainRequestTimes */\n      0x09\n        /* \"contracts/Crossing.sol\":3408:3437  trainRequestTimes[msg.sender] */\n      0x00\n        /* \"contracts/Crossing.sol\":3426:3436  msg.sender */\n      caller\n        /* \"contracts/Crossing.sol\":3408:3437  trainRequestTimes[msg.sender] */\n      0xffffffffffffffffffffffffffffffffffffffff\n      and\n      0xffffffffffffffffffffffffffffffffffffffff\n      and\n      dup2\n      mstore\n      0x20\n      add\n      swap1\n      dup2\n      mstore\n      0x20\n      add\n      0x00\n      keccak256\n      sload\n        /* \"contracts/Crossing.sol\":3390:3405  block.timestamp */\n      timestamp\n        /* \"contracts/Crossing.sol\":3390:3437  block.timestamp - trainRequestTimes[msg.sender] */\n      tag_129\n      swap2\n      swap1\n      tag_130\n      jump\t// in\n    tag_129:\n        /* \"contracts/Crossing.sol\":3390:3453  block.timestamp - trainRequestTimes[msg.sender] > preLockedTime */\n      gt\n        /* \"contracts/Crossing.sol\":3386:3541  if (block.timestamp - trainRequestTimes[msg.sender] > preLockedTime) {... */\n      iszero\n      tag_131\n      jumpi\n        /* \"contracts/Crossing.sol\":3479:3500  StopTrain(msg.sender) */\n      0x273d510e41fd7354aecc3dd5a1af735cae0c081cf7142da8245e713e3ee4f488\n        /* \"contracts/Crossing.sol\":3489:3499  msg.sender */\n      caller\n        /* \"contracts/Crossing.sol\":3479:3500  StopTrain(msg.sender) */\n      mload(0x40)\n      tag_132\n      swap2\n      swap1\n      tag_60\n      jump\t// in\n    tag_132:\n      mload(0x40)\n      dup1\n      swap2\n      sub\n      swap1\n      log1\n        /* \"contracts/Crossing.sol\":3519:3526  return; */\n      jump(tag_117)\n        /* \"contracts/Crossing.sol\":3386:3541  if (block.timestamp - trainRequestTimes[msg.sender] > preLockedTime) {... */\n    tag_131:\n        /* \"contracts/Crossing.sol\":3560:3600  TrainCrossingWaitingForRetry(msg.sender) */\n      0x3f79930be7ed586c284cb8ba2feaa12b5bc8b3f6f0788a2c0577c66876c591bf\n        /* \"contracts/Crossing.sol\":3589:3599  msg.sender */\n      caller\n        /* \"contracts/Crossing.sol\":3560:3600  TrainCrossingWaitingForRetry(msg.sender) */\n      mload(0x40)\n      tag_133\n      swap2\n      swap1\n      tag_60\n      jump\t// in\n    tag_133:\n      mload(0x40)\n      dup1\n      swap2\n      sub\n      swap1\n      log1\n        /* \"contracts/Crossing.sol\":3324:3735  if (crossingState == CrossingState.PRE_LOCKED) {... */\n      jump(tag_134)\n    tag_128:\n        /* \"contracts/Crossing.sol\":3639:3659  CrossingState.LOCKED */\n      0x01\n        /* \"contracts/Crossing.sol\":3622:3659  crossingState == CrossingState.LOCKED */\n      0x02\n      dup2\n      gt\n      iszero\n      tag_135\n      jumpi\n      tag_136\n      tag_91\n      jump\t// in\n    tag_136:\n    tag_135:\n        /* \"contracts/Crossing.sol\":3622:3635  crossingState */\n      0x00\n      dup1\n      sload\n      swap1\n      0x0100\n      exp\n      swap1\n      div\n      0xff\n      and\n        /* \"contracts/Crossing.sol\":3622:3659  crossingState == CrossingState.LOCKED */\n      0x02\n      dup2\n      gt\n      iszero\n      tag_137\n      jumpi\n      tag_138\n      tag_91\n      jump\t// in\n    tag_138:\n    tag_137:\n      sub\n        /* \"contracts/Crossing.sol\":3618:3735  if (crossingState == CrossingState.LOCKED) {... */\n      tag_139\n      jumpi\n        /* \"contracts/Crossing.sol\":3681:3723  TrainCrossingPermissionGranted(msg.sender) */\n      0xaf562694fb399e648b3c3c32d69af1a74406eaab624eaff9802aa97414dfde33\n        /* \"contracts/Crossing.sol\":3712:3722  msg.sender */\n      caller\n        /* \"contracts/Crossing.sol\":3681:3723  TrainCrossingPermissionGranted(msg.sender) */\n      mload(0x40)\n      tag_140\n      swap2\n      swap1\n      tag_60\n      jump\t// in\n    tag_140:\n      mload(0x40)\n      dup1\n      swap2\n      sub\n      swap1\n      log1\n        /* \"contracts/Crossing.sol\":3618:3735  if (crossingState == CrossingState.LOCKED) {... */\n    tag_139:\n        /* \"contracts/Crossing.sol\":3324:3735  if (crossingState == CrossingState.PRE_LOCKED) {... */\n    tag_134:\n        /* \"contracts/Crossing.sol\":1340:1341  _ */\n    tag_117:\n        /* \"contracts/Crossing.sol\":2915:3742  function requestTrainCrossing() external onlyAuthorizedTrain {... */\n      jump\t// out\n        /* \"contracts/Crossing.sol\":4241:4404  function updateFreeToCrossState() external onlyInfrastructure {... */\n    tag_49:\n        /* \"contracts/Crossing.sol\":1135:1149  infrastructure */\n      0x00\n      0x01\n      swap1\n      sload\n      swap1\n      0x0100\n      exp\n      swap1\n      div\n      0xffffffffffffffffffffffffffffffffffffffff\n      and\n        /* \"contracts/Crossing.sol\":1121:1149  msg.sender == infrastructure */\n      0xffffffffffffffffffffffffffffffffffffffff\n      and\n        /* \"contracts/Crossing.sol\":1121:1131  msg.sender */\n      caller\n        /* \"contracts/Crossing.sol\":1121:1149  msg.sender == infrastructure */\n      0xffffffffffffffffffffffffffffffffffffffff\n      and\n      eq\n        /* \"contracts/Crossing.sol\":1113:1197  require(msg.sender == infrastructure, \"Only infrastructure can call this function.\") */\n      tag_142\n      jumpi\n      mload(0x40)\n      0x08c379a000000000000000000000000000000000000000000000000000000000\n      dup2\n      mstore\n      0x04\n      add\n      tag_143\n      swap1\n      tag_111\n      jump\t// in\n    tag_143:\n      mload(0x40)\n      dup1\n      swap2\n      sub\n      swap1\n      revert\n    tag_142:\n        /* \"contracts/Crossing.sol\":4330:4357  CrossingState.FREE_TO_CROSS */\n      0x00\n        /* \"contracts/Crossing.sol\":4314:4327  crossingState */\n      dup1\n      0x00\n        /* \"contracts/Crossing.sol\":4314:4357  crossingState = CrossingState.FREE_TO_CROSS */\n      0x0100\n      exp\n      dup2\n      sload\n      dup2\n      0xff\n      mul\n      not\n      and\n      swap1\n      dup4\n      0x02\n      dup2\n      gt\n      iszero\n      tag_145\n      jumpi\n      tag_146\n      tag_91\n      jump\t// in\n    tag_146:\n    tag_145:\n      mul\n      or\n      swap1\n      sstore\n      pop\n        /* \"contracts/Crossing.sol\":4381:4396  block.timestamp */\n      timestamp\n        /* \"contracts/Crossing.sol\":4368:4378  lastUpdate */\n      0x01\n        /* \"contracts/Crossing.sol\":4368:4396  lastUpdate = block.timestamp */\n      dup2\n      swap1\n      sstore\n      pop\n        /* \"contracts/Crossing.sol\":4241:4404  function updateFreeToCrossState() external onlyInfrastructure {... */\n      jump\t// out\n        /* \"contracts/Crossing.sol\":2596:2874  function releaseCarPermission() external {... */\n    tag_51:\n        /* \"contracts/Crossing.sol\":2656:2672  crossingVehicles */\n      0x07\n        /* \"contracts/Crossing.sol\":2656:2684  crossingVehicles[msg.sender] */\n      0x00\n        /* \"contracts/Crossing.sol\":2673:2683  msg.sender */\n      caller\n        /* \"contracts/Crossing.sol\":2656:2684  crossingVehicles[msg.sender] */\n      0xffffffffffffffffffffffffffffffffffffffff\n      and\n      0xffffffffffffffffffffffffffffffffffffffff\n      and\n      dup2\n      mstore\n      0x20\n      add\n      swap1\n      dup2\n      mstore\n      0x20\n      add\n      0x00\n      keccak256\n      0x00\n      swap1\n      sload\n      swap1\n      0x0100\n      exp\n      swap1\n      div\n      0xff\n      and\n        /* \"contracts/Crossing.sol\":2648:2725  require(crossingVehicles[msg.sender], \"Vehicle has not requested permission\") */\n      tag_148\n      jumpi\n      mload(0x40)\n      0x08c379a000000000000000000000000000000000000000000000000000000000\n      dup2\n      mstore\n      0x04\n      add\n      tag_149\n      swap1\n      tag_150\n      jump\t// in\n    tag_149:\n      mload(0x40)\n      dup1\n      swap2\n      sub\n      swap1\n      revert\n    tag_148:\n        /* \"contracts/Crossing.sol\":2767:2772  false */\n      0x00\n        /* \"contracts/Crossing.sol\":2736:2752  crossingVehicles */\n      0x07\n        /* \"contracts/Crossing.sol\":2736:2764  crossingVehicles[msg.sender] */\n      0x00\n        /* \"contracts/Crossing.sol\":2753:2763  msg.sender */\n      caller\n        /* \"contracts/Crossing.sol\":2736:2764  crossingVehicles[msg.sender] */\n      0xffffffffffffffffffffffffffffffffffffffff\n      and\n      0xffffffffffffffffffffffffffffffffffffffff\n      and\n      dup2\n      mstore\n      0x20\n      add\n      swap1\n      dup2\n      mstore\n      0x20\n      add\n      0x00\n      keccak256\n      0x00\n        /* \"contracts/Crossing.sol\":2736:2772  crossingVehicles[msg.sender] = false */\n      0x0100\n      exp\n      dup2\n      sload\n      dup2\n      0xff\n      mul\n      not\n      and\n      swap1\n      dup4\n      iszero\n      iszero\n      mul\n      or\n      swap1\n      sstore\n      pop\n        /* \"contracts/Crossing.sol\":2783:2807  currentCrossingCarNumber */\n      0x05\n      0x00\n        /* \"contracts/Crossing.sol\":2783:2809  currentCrossingCarNumber-- */\n      dup2\n      sload\n      dup1\n      swap3\n      swap2\n      swap1\n      tag_151\n      swap1\n      tag_152\n      jump\t// in\n    tag_151:\n      swap2\n      swap1\n      pop\n      sstore\n      pop\n        /* \"contracts/Crossing.sol\":2825:2866  CarCrossingPermissionReleased(msg.sender) */\n      0x2e88ceae333b5a571097904aed082642c40e10839dd32e2a0753d8008a89e2e1\n        /* \"contracts/Crossing.sol\":2855:2865  msg.sender */\n      caller\n        /* \"contracts/Crossing.sol\":2825:2866  CarCrossingPermissionReleased(msg.sender) */\n      mload(0x40)\n      tag_153\n      swap2\n      swap1\n      tag_60\n      jump\t// in\n    tag_153:\n      mload(0x40)\n      dup1\n      swap2\n      sub\n      swap1\n      log1\n        /* \"contracts/Crossing.sol\":2596:2874  function releaseCarPermission() external {... */\n      jump\t// out\n        /* \"contracts/Crossing.sol\":3750:4200  function releaseTrainCrossing() external onlyAuthorizedTrain {... */\n    tag_53:\n        /* \"contracts/Crossing.sol\":1275:1291  authorizedTrains */\n      0x0a\n        /* \"contracts/Crossing.sol\":1275:1303  authorizedTrains[msg.sender] */\n      0x00\n        /* \"contracts/Crossing.sol\":1292:1302  msg.sender */\n      caller\n        /* \"contracts/Crossing.sol\":1275:1303  authorizedTrains[msg.sender] */\n      0xffffffffffffffffffffffffffffffffffffffff\n      and\n      0xffffffffffffffffffffffffffffffffffffffff\n      and\n      dup2\n      mstore\n      0x20\n      add\n      swap1\n      dup2\n      mstore\n      0x20\n      add\n      0x00\n      keccak256\n      0x00\n      swap1\n      sload\n      swap1\n      0x0100\n      exp\n      swap1\n      div\n      0xff\n      and\n        /* \"contracts/Crossing.sol\":1267:1329  require(authorizedTrains[msg.sender], \"Not authorized train.\") */\n      tag_155\n      jumpi\n      mload(0x40)\n      0x08c379a000000000000000000000000000000000000000000000000000000000\n      dup2\n      mstore\n      0x04\n      add\n      tag_156\n      swap1\n      tag_116\n      jump\t// in\n    tag_156:\n      mload(0x40)\n      dup1\n      swap2\n      sub\n      swap1\n      revert\n    tag_155:\n        /* \"contracts/Crossing.sol\":3830:3851  trainCrossingRequests */\n      0x08\n        /* \"contracts/Crossing.sol\":3830:3863  trainCrossingRequests[msg.sender] */\n      0x00\n        /* \"contracts/Crossing.sol\":3852:3862  msg.sender */\n      caller\n        /* \"contracts/Crossing.sol\":3830:3863  trainCrossingRequests[msg.sender] */\n      0xffffffffffffffffffffffffffffffffffffffff\n      and\n      0xffffffffffffffffffffffffffffffffffffffff\n      and\n      dup2\n      mstore\n      0x20\n      add\n      swap1\n      dup2\n      mstore\n      0x20\n      add\n      0x00\n      keccak256\n      0x00\n      swap1\n      sload\n      swap1\n      0x0100\n      exp\n      swap1\n      div\n      0xff\n      and\n        /* \"contracts/Crossing.sol\":3822:3905  require(trainCrossingRequests[msg.sender], \"You don't have permission to release.\") */\n      tag_158\n      jumpi\n      mload(0x40)\n      0x08c379a000000000000000000000000000000000000000000000000000000000\n      dup2\n      mstore\n      0x04\n      add\n      tag_159\n      swap1\n      tag_160\n      jump\t// in\n    tag_159:\n      mload(0x40)\n      dup1\n      swap2\n      sub\n      swap1\n      revert\n    tag_158:\n        /* \"contracts/Crossing.sol\":3952:3957  false */\n      0x00\n        /* \"contracts/Crossing.sol\":3916:3937  trainCrossingRequests */\n      0x08\n        /* \"contracts/Crossing.sol\":3916:3949  trainCrossingRequests[msg.sender] */\n      0x00\n        /* \"contracts/Crossing.sol\":3938:3948  msg.sender */\n      caller\n        /* \"contracts/Crossing.sol\":3916:3949  trainCrossingRequests[msg.sender] */\n      0xffffffffffffffffffffffffffffffffffffffff\n      and\n      0xffffffffffffffffffffffffffffffffffffffff\n      and\n      dup2\n      mstore\n      0x20\n      add\n      swap1\n      dup2\n      mstore\n      0x20\n      add\n      0x00\n      keccak256\n      0x00\n        /* \"contracts/Crossing.sol\":3916:3957  trainCrossingRequests[msg.sender] = false */\n      0x0100\n      exp\n      dup2\n      sload\n      dup2\n      0xff\n      mul\n      not\n      and\n      swap1\n      dup4\n      iszero\n      iszero\n      mul\n      or\n      swap1\n      sstore\n      pop\n        /* \"contracts/Crossing.sol\":3968:3994  trainCrossingRequestNumber */\n      0x06\n      0x00\n        /* \"contracts/Crossing.sol\":3968:3996  trainCrossingRequestNumber-- */\n      dup2\n      sload\n      dup1\n      swap3\n      swap2\n      swap1\n      tag_161\n      swap1\n      tag_152\n      jump\t// in\n    tag_161:\n      swap2\n      swap1\n      pop\n      sstore\n      pop\n        /* \"contracts/Crossing.sol\":4051:4052  0 */\n      0x00\n        /* \"contracts/Crossing.sol\":4021:4047  trainCrossingRequestNumber */\n      sload(0x06)\n        /* \"contracts/Crossing.sol\":4021:4052  trainCrossingRequestNumber == 0 */\n      sub\n        /* \"contracts/Crossing.sol\":4017:4124  if (trainCrossingRequestNumber == 0) {... */\n      tag_162\n      jumpi\n        /* \"contracts/Crossing.sol\":4085:4112  CrossingState.FREE_TO_CROSS */\n      0x00\n        /* \"contracts/Crossing.sol\":4069:4082  crossingState */\n      dup1\n      0x00\n        /* \"contracts/Crossing.sol\":4069:4112  crossingState = CrossingState.FREE_TO_CROSS */\n      0x0100\n      exp\n      dup2\n      sload\n      dup2\n      0xff\n      mul\n      not\n      and\n      swap1\n      dup4\n      0x02\n      dup2\n      gt\n      iszero\n      tag_163\n      jumpi\n      tag_164\n      tag_91\n      jump\t// in\n    tag_164:\n    tag_163:\n      mul\n      or\n      swap1\n      sstore\n      pop\n        /* \"contracts/Crossing.sol\":4017:4124  if (trainCrossingRequestNumber == 0) {... */\n    tag_162:\n        /* \"contracts/Crossing.sol\":4149:4192  TrainCrossingPermissionReleased(msg.sender) */\n      0x3c0ea4a00d4de0ccc27897a7a04782de620b5fe6df6cb5601d2560e3aee591c4\n        /* \"contracts/Crossing.sol\":4181:4191  msg.sender */\n      caller\n        /* \"contracts/Crossing.sol\":4149:4192  TrainCrossingPermissionReleased(msg.sender) */\n      mload(0x40)\n      tag_165\n      swap2\n      swap1\n      tag_60\n      jump\t// in\n    tag_165:\n      mload(0x40)\n      dup1\n      swap2\n      sub\n      swap1\n      log1\n        /* \"contracts/Crossing.sol\":3750:4200  function releaseTrainCrossing() external onlyAuthorizedTrain {... */\n      jump\t// out\n        /* \"contracts/Crossing.sol\":4412:4528  function authorizeTrain(address train) external onlyInfrastructure {... */\n    tag_56:\n        /* \"contracts/Crossing.sol\":1135:1149  infrastructure */\n      0x00\n      0x01\n      swap1\n      sload\n      swap1\n      0x0100\n      exp\n      swap1\n      div\n      0xffffffffffffffffffffffffffffffffffffffff\n      and\n        /* \"contracts/Crossing.sol\":1121:1149  msg.sender == infrastructure */\n      0xffffffffffffffffffffffffffffffffffffffff\n      and\n        /* \"contracts/Crossing.sol\":1121:1131  msg.sender */\n      caller\n        /* \"contracts/Crossing.sol\":1121:1149  msg.sender == infrastructure */\n      0xffffffffffffffffffffffffffffffffffffffff\n      and\n      eq\n        /* \"contracts/Crossing.sol\":1113:1197  require(msg.sender == infrastructure, \"Only infrastructure can call this function.\") */\n      tag_167\n      jumpi\n      mload(0x40)\n      0x08c379a000000000000000000000000000000000000000000000000000000000\n      dup2\n      mstore\n      0x04\n      add\n      tag_168\n      swap1\n      tag_111\n      jump\t// in\n    tag_168:\n      mload(0x40)\n      dup1\n      swap2\n      sub\n      swap1\n      revert\n    tag_167:\n        /* \"contracts/Crossing.sol\":4516:4520  true */\n      0x01\n        /* \"contracts/Crossing.sol\":4490:4506  authorizedTrains */\n      0x0a\n        /* \"contracts/Crossing.sol\":4490:4513  authorizedTrains[train] */\n      0x00\n        /* \"contracts/Crossing.sol\":4507:4512  train */\n      dup4\n        /* \"contracts/Crossing.sol\":4490:4513  authorizedTrains[train] */\n      0xffffffffffffffffffffffffffffffffffffffff\n      and\n      0xffffffffffffffffffffffffffffffffffffffff\n      and\n      dup2\n      mstore\n      0x20\n      add\n      swap1\n      dup2\n      mstore\n      0x20\n      add\n      0x00\n      keccak256\n      0x00\n        /* \"contracts/Crossing.sol\":4490:4520  authorizedTrains[train] = true */\n      0x0100\n      exp\n      dup2\n      sload\n      dup2\n      0xff\n      mul\n      not\n      and\n      swap1\n      dup4\n      iszero\n      iszero\n      mul\n      or\n      swap1\n      sstore\n      pop\n        /* \"contracts/Crossing.sol\":4412:4528  function authorizeTrain(address train) external onlyInfrastructure {... */\n      pop\n      jump\t// out\n        /* \"contracts/Crossing.sol\":164:193  address public infrastructure */\n    tag_58:\n      0x00\n      0x01\n      swap1\n      sload\n      swap1\n      0x0100\n      exp\n      swap1\n      div\n      0xffffffffffffffffffffffffffffffffffffffff\n      and\n      dup2\n      jump\t// out\n        /* \"contracts/Crossing.sol\":478:531  mapping(address => bool) public trainCrossingRequests */\n    tag_63:\n      mstore(0x20, 0x08)\n      dup1\n      0x00\n      mstore\n      keccak256(0x00, 0x40)\n      0x00\n      swap2\n      pop\n      sload\n      swap1\n      0x0100\n      exp\n      swap1\n      div\n      0xff\n      and\n      dup2\n      jump\t// out\n        /* \"contracts/Crossing.sol\":423:471  mapping(address => bool) public crossingVehicles */\n    tag_68:\n      mstore(0x20, 0x07)\n      dup1\n      0x00\n      mstore\n      keccak256(0x00, 0x40)\n      0x00\n      swap2\n      pop\n      sload\n      swap1\n      0x0100\n      exp\n      swap1\n      div\n      0xff\n      and\n      dup2\n      jump\t// out\n        /* \"contracts/Crossing.sol\":200:222  uint public lastUpdate */\n    tag_71:\n      sload(0x01)\n      dup2\n      jump\t// out\n        /* \"contracts/Crossing.sol\":329:365  uint public currentCrossingCarNumber */\n    tag_74:\n      sload(0x05)\n      dup2\n      jump\t// out\n        /* \"contracts/Crossing.sol\":229:257  uint public crossingValidity */\n    tag_77:\n      sload(0x02)\n      dup2\n      jump\t// out\n        /* \"contracts/Crossing.sol\":594:642  mapping(address => bool) public authorizedTrains */\n    tag_81:\n      mstore(0x20, 0x0a)\n      dup1\n      0x00\n      mstore\n      keccak256(0x00, 0x40)\n      0x00\n      swap2\n      pop\n      sload\n      swap1\n      0x0100\n      exp\n      swap1\n      div\n      0xff\n      and\n      dup2\n      jump\t// out\n        /* \"contracts/Crossing.sol\":372:410  uint public trainCrossingRequestNumber */\n    tag_84:\n      sload(0x06)\n      dup2\n      jump\t// out\n        /* \"contracts/Crossing.sol\":4663:4865  function checkFreeToCrossTimer() internal {... */\n    tag_88:\n        /* \"contracts/Crossing.sol\":4751:4767  crossingValidity */\n      sload(0x02)\n        /* \"contracts/Crossing.sol\":4738:4748  lastUpdate */\n      sload(0x01)\n        /* \"contracts/Crossing.sol\":4720:4735  block.timestamp */\n      timestamp\n        /* \"contracts/Crossing.sol\":4720:4748  block.timestamp - lastUpdate */\n      tag_171\n      swap2\n      swap1\n      tag_130\n      jump\t// in\n    tag_171:\n        /* \"contracts/Crossing.sol\":4720:4767  block.timestamp - lastUpdate > crossingValidity */\n      gt\n        /* \"contracts/Crossing.sol\":4720:4815  block.timestamp - lastUpdate > crossingValidity && crossingState == CrossingState.FREE_TO_CROSS */\n      dup1\n      iszero\n      tag_172\n      jumpi\n      pop\n        /* \"contracts/Crossing.sol\":4788:4815  CrossingState.FREE_TO_CROSS */\n      0x00\n        /* \"contracts/Crossing.sol\":4771:4815  crossingState == CrossingState.FREE_TO_CROSS */\n      0x02\n      dup2\n      gt\n      iszero\n      tag_173\n      jumpi\n      tag_174\n      tag_91\n      jump\t// in\n    tag_174:\n    tag_173:\n        /* \"contracts/Crossing.sol\":4771:4784  crossingState */\n      0x00\n      dup1\n      sload\n      swap1\n      0x0100\n      exp\n      swap1\n      div\n      0xff\n      and\n        /* \"contracts/Crossing.sol\":4771:4815  crossingState == CrossingState.FREE_TO_CROSS */\n      0x02\n      dup2\n      gt\n      iszero\n      tag_175\n      jumpi\n      tag_176\n      tag_91\n      jump\t// in\n    tag_176:\n    tag_175:\n      eq\n        /* \"contracts/Crossing.sol\":4720:4815  block.timestamp - lastUpdate > crossingValidity && crossingState == CrossingState.FREE_TO_CROSS */\n    tag_172:\n        /* \"contracts/Crossing.sol\":4716:4858  if (block.timestamp - lastUpdate > crossingValidity && crossingState == CrossingState.FREE_TO_CROSS) {... */\n      iszero\n      tag_177\n      jumpi\n        /* \"contracts/Crossing.sol\":4832:4846  lockCrossing() */\n      tag_178\n        /* \"contracts/Crossing.sol\":4832:4844  lockCrossing */\n      tag_123\n        /* \"contracts/Crossing.sol\":4832:4846  lockCrossing() */\n      jump\t// in\n    tag_178:\n        /* \"contracts/Crossing.sol\":4716:4858  if (block.timestamp - lastUpdate > crossingValidity && crossingState == CrossingState.FREE_TO_CROSS) {... */\n    tag_177:\n        /* \"contracts/Crossing.sol\":4663:4865  function checkFreeToCrossTimer() internal {... */\n      jump\t// out\n        /* \"contracts/Crossing.sol\":4873:5094  function lockCrossing() internal {... */\n    tag_123:\n        /* \"contracts/Crossing.sol\":4948:4949  0 */\n      0x00\n        /* \"contracts/Crossing.sol\":4921:4945  currentCrossingCarNumber */\n      sload(0x05)\n        /* \"contracts/Crossing.sol\":4921:4949  currentCrossingCarNumber > 0 */\n      gt\n        /* \"contracts/Crossing.sol\":4917:5087  if (currentCrossingCarNumber > 0) {... */\n      iszero\n      tag_180\n      jumpi\n        /* \"contracts/Crossing.sol\":4982:5006  CrossingState.PRE_LOCKED */\n      0x02\n        /* \"contracts/Crossing.sol\":4966:4979  crossingState */\n      0x00\n      dup1\n        /* \"contracts/Crossing.sol\":4966:5006  crossingState = CrossingState.PRE_LOCKED */\n      0x0100\n      exp\n      dup2\n      sload\n      dup2\n      0xff\n      mul\n      not\n      and\n      swap1\n      dup4\n      0x02\n      dup2\n      gt\n      iszero\n      tag_181\n      jumpi\n      tag_182\n      tag_91\n      jump\t// in\n    tag_182:\n    tag_181:\n      mul\n      or\n      swap1\n      sstore\n      pop\n        /* \"contracts/Crossing.sol\":4917:5087  if (currentCrossingCarNumber > 0) {... */\n      jump(tag_183)\n    tag_180:\n        /* \"contracts/Crossing.sol\":5055:5075  CrossingState.LOCKED */\n      0x01\n        /* \"contracts/Crossing.sol\":5039:5052  crossingState */\n      0x00\n      dup1\n        /* \"contracts/Crossing.sol\":5039:5075  crossingState = CrossingState.LOCKED */\n      0x0100\n      exp\n      dup2\n      sload\n      dup2\n      0xff\n      mul\n      not\n      and\n      swap1\n      dup4\n      0x02\n      dup2\n      gt\n      iszero\n      tag_184\n      jumpi\n      tag_185\n      tag_91\n      jump\t// in\n    tag_185:\n    tag_184:\n      mul\n      or\n      swap1\n      sstore\n      pop\n        /* \"contracts/Crossing.sol\":4917:5087  if (currentCrossingCarNumber > 0) {... */\n    tag_183:\n        /* \"contracts/Crossing.sol\":4873:5094  function lockCrossing() internal {... */\n      jump\t// out\n        /* \"#utility.yul\":88:205   */\n    tag_187:\n        /* \"#utility.yul\":197:198   */\n      0x00\n        /* \"#utility.yul\":194:195   */\n      dup1\n        /* \"#utility.yul\":187:199   */\n      revert\n        /* \"#utility.yul\":334:460   */\n    tag_189:\n        /* \"#utility.yul\":371:378   */\n      0x00\n        /* \"#utility.yul\":411:453   */\n      0xffffffffffffffffffffffffffffffffffffffff\n        /* \"#utility.yul\":404:409   */\n      dup3\n        /* \"#utility.yul\":400:454   */\n      and\n        /* \"#utility.yul\":389:454   */\n      swap1\n      pop\n        /* \"#utility.yul\":334:460   */\n      swap2\n      swap1\n      pop\n      jump\t// out\n        /* \"#utility.yul\":466:562   */\n    tag_190:\n        /* \"#utility.yul\":503:510   */\n      0x00\n        /* \"#utility.yul\":532:556   */\n      tag_224\n        /* \"#utility.yul\":550:555   */\n      dup3\n        /* \"#utility.yul\":532:556   */\n      tag_189\n      jump\t// in\n    tag_224:\n        /* \"#utility.yul\":521:556   */\n      swap1\n      pop\n        /* \"#utility.yul\":466:562   */\n      swap2\n      swap1\n      pop\n      jump\t// out\n        /* \"#utility.yul\":568:690   */\n    tag_191:\n        /* \"#utility.yul\":641:665   */\n      tag_226\n        /* \"#utility.yul\":659:664   */\n      dup2\n        /* \"#utility.yul\":641:665   */\n      tag_190\n      jump\t// in\n    tag_226:\n        /* \"#utility.yul\":634:639   */\n      dup2\n        /* \"#utility.yul\":631:666   */\n      eq\n        /* \"#utility.yul\":621:684   */\n      tag_227\n      jumpi\n        /* \"#utility.yul\":680:681   */\n      0x00\n        /* \"#utility.yul\":677:678   */\n      dup1\n        /* \"#utility.yul\":670:682   */\n      revert\n        /* \"#utility.yul\":621:684   */\n    tag_227:\n        /* \"#utility.yul\":568:690   */\n      pop\n      jump\t// out\n        /* \"#utility.yul\":696:835   */\n    tag_192:\n        /* \"#utility.yul\":742:747   */\n      0x00\n        /* \"#utility.yul\":780:786   */\n      dup2\n        /* \"#utility.yul\":767:787   */\n      calldataload\n        /* \"#utility.yul\":758:787   */\n      swap1\n      pop\n        /* \"#utility.yul\":796:829   */\n      tag_229\n        /* \"#utility.yul\":823:828   */\n      dup2\n        /* \"#utility.yul\":796:829   */\n      tag_191\n      jump\t// in\n    tag_229:\n        /* \"#utility.yul\":696:835   */\n      swap3\n      swap2\n      pop\n      pop\n      jump\t// out\n        /* \"#utility.yul\":841:1170   */\n    tag_29:\n        /* \"#utility.yul\":900:906   */\n      0x00\n        /* \"#utility.yul\":949:951   */\n      0x20\n        /* \"#utility.yul\":937:946   */\n      dup3\n        /* \"#utility.yul\":928:935   */\n      dup5\n        /* \"#utility.yul\":924:947   */\n      sub\n        /* \"#utility.yul\":920:952   */\n      slt\n        /* \"#utility.yul\":917:1036   */\n      iszero\n      tag_231\n      jumpi\n        /* \"#utility.yul\":955:1034   */\n      tag_232\n      tag_187\n      jump\t// in\n    tag_232:\n        /* \"#utility.yul\":917:1036   */\n    tag_231:\n        /* \"#utility.yul\":1075:1076   */\n      0x00\n        /* \"#utility.yul\":1100:1153   */\n      tag_233\n        /* \"#utility.yul\":1145:1152   */\n      dup5\n        /* \"#utility.yul\":1136:1142   */\n      dup3\n        /* \"#utility.yul\":1125:1134   */\n      dup6\n        /* \"#utility.yul\":1121:1143   */\n      add\n        /* \"#utility.yul\":1100:1153   */\n      tag_192\n      jump\t// in\n    tag_233:\n        /* \"#utility.yul\":1090:1153   */\n      swap2\n      pop\n        /* \"#utility.yul\":1046:1163   */\n      pop\n        /* \"#utility.yul\":841:1170   */\n      swap3\n      swap2\n      pop\n      pop\n      jump\t// out\n        /* \"#utility.yul\":1176:1253   */\n    tag_193:\n        /* \"#utility.yul\":1213:1220   */\n      0x00\n        /* \"#utility.yul\":1242:1247   */\n      dup2\n        /* \"#utility.yul\":1231:1247   */\n      swap1\n      pop\n        /* \"#utility.yul\":1176:1253   */\n      swap2\n      swap1\n      pop\n      jump\t// out\n        /* \"#utility.yul\":1259:1377   */\n    tag_194:\n        /* \"#utility.yul\":1346:1370   */\n      tag_236\n        /* \"#utility.yul\":1364:1369   */\n      dup2\n        /* \"#utility.yul\":1346:1370   */\n      tag_193\n      jump\t// in\n    tag_236:\n        /* \"#utility.yul\":1341:1344   */\n      dup3\n        /* \"#utility.yul\":1334:1371   */\n      mstore\n        /* \"#utility.yul\":1259:1377   */\n      pop\n      pop\n      jump\t// out\n        /* \"#utility.yul\":1383:1605   */\n    tag_35:\n        /* \"#utility.yul\":1476:1480   */\n      0x00\n        /* \"#utility.yul\":1514:1516   */\n      0x20\n        /* \"#utility.yul\":1503:1512   */\n      dup3\n        /* \"#utility.yul\":1499:1517   */\n      add\n        /* \"#utility.yul\":1491:1517   */\n      swap1\n      pop\n        /* \"#utility.yul\":1527:1598   */\n      tag_238\n        /* \"#utility.yul\":1595:1596   */\n      0x00\n        /* \"#utility.yul\":1584:1593   */\n      dup4\n        /* \"#utility.yul\":1580:1597   */\n      add\n        /* \"#utility.yul\":1571:1577   */\n      dup5\n        /* \"#utility.yul\":1527:1598   */\n      tag_194\n      jump\t// in\n    tag_238:\n        /* \"#utility.yul\":1383:1605   */\n      swap3\n      swap2\n      pop\n      pop\n      jump\t// out\n        /* \"#utility.yul\":1611:1791   */\n    tag_91:\n        /* \"#utility.yul\":1659:1736   */\n      0x4e487b7100000000000000000000000000000000000000000000000000000000\n        /* \"#utility.yul\":1656:1657   */\n      0x00\n        /* \"#utility.yul\":1649:1737   */\n      mstore\n        /* \"#utility.yul\":1756:1760   */\n      0x21\n        /* \"#utility.yul\":1753:1754   */\n      0x04\n        /* \"#utility.yul\":1746:1761   */\n      mstore\n        /* \"#utility.yul\":1780:1784   */\n      0x24\n        /* \"#utility.yul\":1777:1778   */\n      0x00\n        /* \"#utility.yul\":1770:1785   */\n      revert\n        /* \"#utility.yul\":1797:1917   */\n    tag_195:\n        /* \"#utility.yul\":1885:1886   */\n      0x03\n        /* \"#utility.yul\":1878:1883   */\n      dup2\n        /* \"#utility.yul\":1875:1887   */\n      lt\n        /* \"#utility.yul\":1865:1911   */\n      tag_241\n      jumpi\n        /* \"#utility.yul\":1891:1909   */\n      tag_242\n      tag_91\n      jump\t// in\n    tag_242:\n        /* \"#utility.yul\":1865:1911   */\n    tag_241:\n        /* \"#utility.yul\":1797:1917   */\n      pop\n      jump\t// out\n        /* \"#utility.yul\":1923:2064   */\n    tag_196:\n        /* \"#utility.yul\":1975:1982   */\n      0x00\n        /* \"#utility.yul\":2004:2009   */\n      dup2\n        /* \"#utility.yul\":1993:2009   */\n      swap1\n      pop\n        /* \"#utility.yul\":2010:2058   */\n      tag_244\n        /* \"#utility.yul\":2052:2057   */\n      dup3\n        /* \"#utility.yul\":2010:2058   */\n      tag_195\n      jump\t// in\n    tag_244:\n        /* \"#utility.yul\":1923:2064   */\n      swap2\n      swap1\n      pop\n      jump\t// out\n        /* \"#utility.yul\":2070:2211   */\n    tag_197:\n        /* \"#utility.yul\":2133:2142   */\n      0x00\n        /* \"#utility.yul\":2166:2205   */\n      tag_246\n        /* \"#utility.yul\":2199:2204   */\n      dup3\n        /* \"#utility.yul\":2166:2205   */\n      tag_196\n      jump\t// in\n    tag_246:\n        /* \"#utility.yul\":2153:2205   */\n      swap1\n      pop\n        /* \"#utility.yul\":2070:2211   */\n      swap2\n      swap1\n      pop\n      jump\t// out\n        /* \"#utility.yul\":2217:2374   */\n    tag_198:\n        /* \"#utility.yul\":2317:2367   */\n      tag_248\n        /* \"#utility.yul\":2361:2366   */\n      dup2\n        /* \"#utility.yul\":2317:2367   */\n      tag_197\n      jump\t// in\n    tag_248:\n        /* \"#utility.yul\":2312:2315   */\n      dup3\n        /* \"#utility.yul\":2305:2368   */\n      mstore\n        /* \"#utility.yul\":2217:2374   */\n      pop\n      pop\n      jump\t// out\n        /* \"#utility.yul\":2380:2628   */\n    tag_42:\n        /* \"#utility.yul\":2486:2490   */\n      0x00\n        /* \"#utility.yul\":2524:2526   */\n      0x20\n        /* \"#utility.yul\":2513:2522   */\n      dup3\n        /* \"#utility.yul\":2509:2527   */\n      add\n        /* \"#utility.yul\":2501:2527   */\n      swap1\n      pop\n        /* \"#utility.yul\":2537:2621   */\n      tag_250\n        /* \"#utility.yul\":2618:2619   */\n      0x00\n        /* \"#utility.yul\":2607:2616   */\n      dup4\n        /* \"#utility.yul\":2603:2620   */\n      add\n        /* \"#utility.yul\":2594:2600   */\n      dup5\n        /* \"#utility.yul\":2537:2621   */\n      tag_198\n      jump\t// in\n    tag_250:\n        /* \"#utility.yul\":2380:2628   */\n      swap3\n      swap2\n      pop\n      pop\n      jump\t// out\n        /* \"#utility.yul\":2634:2752   */\n    tag_199:\n        /* \"#utility.yul\":2721:2745   */\n      tag_252\n        /* \"#utility.yul\":2739:2744   */\n      dup2\n        /* \"#utility.yul\":2721:2745   */\n      tag_190\n      jump\t// in\n    tag_252:\n        /* \"#utility.yul\":2716:2719   */\n      dup3\n        /* \"#utility.yul\":2709:2746   */\n      mstore\n        /* \"#utility.yul\":2634:2752   */\n      pop\n      pop\n      jump\t// out\n        /* \"#utility.yul\":2758:2980   */\n    tag_60:\n        /* \"#utility.yul\":2851:2855   */\n      0x00\n        /* \"#utility.yul\":2889:2891   */\n      0x20\n        /* \"#utility.yul\":2878:2887   */\n      dup3\n        /* \"#utility.yul\":2874:2892   */\n      add\n        /* \"#utility.yul\":2866:2892   */\n      swap1\n      pop\n        /* \"#utility.yul\":2902:2973   */\n      tag_254\n        /* \"#utility.yul\":2970:2971   */\n      0x00\n        /* \"#utility.yul\":2959:2968   */\n      dup4\n        /* \"#utility.yul\":2955:2972   */\n      add\n        /* \"#utility.yul\":2946:2952   */\n      dup5\n        /* \"#utility.yul\":2902:2973   */\n      tag_199\n      jump\t// in\n    tag_254:\n        /* \"#utility.yul\":2758:2980   */\n      swap3\n      swap2\n      pop\n      pop\n      jump\t// out\n        /* \"#utility.yul\":2986:3076   */\n    tag_200:\n        /* \"#utility.yul\":3020:3027   */\n      0x00\n        /* \"#utility.yul\":3063:3068   */\n      dup2\n        /* \"#utility.yul\":3056:3069   */\n      iszero\n        /* \"#utility.yul\":3049:3070   */\n      iszero\n        /* \"#utility.yul\":3038:3070   */\n      swap1\n      pop\n        /* \"#utility.yul\":2986:3076   */\n      swap2\n      swap1\n      pop\n      jump\t// out\n        /* \"#utility.yul\":3082:3191   */\n    tag_201:\n        /* \"#utility.yul\":3163:3184   */\n      tag_257\n        /* \"#utility.yul\":3178:3183   */\n      dup2\n        /* \"#utility.yul\":3163:3184   */\n      tag_200\n      jump\t// in\n    tag_257:\n        /* \"#utility.yul\":3158:3161   */\n      dup3\n        /* \"#utility.yul\":3151:3185   */\n      mstore\n        /* \"#utility.yul\":3082:3191   */\n      pop\n      pop\n      jump\t// out\n        /* \"#utility.yul\":3197:3407   */\n    tag_65:\n        /* \"#utility.yul\":3284:3288   */\n      0x00\n        /* \"#utility.yul\":3322:3324   */\n      0x20\n        /* \"#utility.yul\":3311:3320   */\n      dup3\n        /* \"#utility.yul\":3307:3325   */\n      add\n        /* \"#utility.yul\":3299:3325   */\n      swap1\n      pop\n        /* \"#utility.yul\":3335:3400   */\n      tag_259\n        /* \"#utility.yul\":3397:3398   */\n      0x00\n        /* \"#utility.yul\":3386:3395   */\n      dup4\n        /* \"#utility.yul\":3382:3399   */\n      add\n        /* \"#utility.yul\":3373:3379   */\n      dup5\n        /* \"#utility.yul\":3335:3400   */\n      tag_201\n      jump\t// in\n    tag_259:\n        /* \"#utility.yul\":3197:3407   */\n      swap3\n      swap2\n      pop\n      pop\n      jump\t// out\n        /* \"#utility.yul\":3413:3582   */\n    tag_202:\n        /* \"#utility.yul\":3497:3508   */\n      0x00\n        /* \"#utility.yul\":3531:3537   */\n      dup3\n        /* \"#utility.yul\":3526:3529   */\n      dup3\n        /* \"#utility.yul\":3519:3538   */\n      mstore\n        /* \"#utility.yul\":3571:3575   */\n      0x20\n        /* \"#utility.yul\":3566:3569   */\n      dup3\n        /* \"#utility.yul\":3562:3576   */\n      add\n        /* \"#utility.yul\":3547:3576   */\n      swap1\n      pop\n        /* \"#utility.yul\":3413:3582   */\n      swap3\n      swap2\n      pop\n      pop\n      jump\t// out\n        /* \"#utility.yul\":3588:3768   */\n    tag_203:\n        /* \"#utility.yul\":3728:3760   */\n      0x43726f7373696e67206973206e6f74206672656520746f2063726f73732e0000\n        /* \"#utility.yul\":3724:3725   */\n      0x00\n        /* \"#utility.yul\":3716:3722   */\n      dup3\n        /* \"#utility.yul\":3712:3726   */\n      add\n        /* \"#utility.yul\":3705:3761   */\n      mstore\n        /* \"#utility.yul\":3588:3768   */\n      pop\n      jump\t// out\n        /* \"#utility.yul\":3774:4140   */\n    tag_204:\n        /* \"#utility.yul\":3916:3919   */\n      0x00\n        /* \"#utility.yul\":3937:4004   */\n      tag_263\n        /* \"#utility.yul\":4001:4003   */\n      0x1e\n        /* \"#utility.yul\":3996:3999   */\n      dup4\n        /* \"#utility.yul\":3937:4004   */\n      tag_202\n      jump\t// in\n    tag_263:\n        /* \"#utility.yul\":3930:4004   */\n      swap2\n      pop\n        /* \"#utility.yul\":4013:4106   */\n      tag_264\n        /* \"#utility.yul\":4102:4105   */\n      dup3\n        /* \"#utility.yul\":4013:4106   */\n      tag_203\n      jump\t// in\n    tag_264:\n        /* \"#utility.yul\":4131:4133   */\n      0x20\n        /* \"#utility.yul\":4126:4129   */\n      dup3\n        /* \"#utility.yul\":4122:4134   */\n      add\n        /* \"#utility.yul\":4115:4134   */\n      swap1\n      pop\n        /* \"#utility.yul\":3774:4140   */\n      swap2\n      swap1\n      pop\n      jump\t// out\n        /* \"#utility.yul\":4146:4565   */\n    tag_96:\n        /* \"#utility.yul\":4312:4316   */\n      0x00\n        /* \"#utility.yul\":4350:4352   */\n      0x20\n        /* \"#utility.yul\":4339:4348   */\n      dup3\n        /* \"#utility.yul\":4335:4353   */\n      add\n        /* \"#utility.yul\":4327:4353   */\n      swap1\n      pop\n        /* \"#utility.yul\":4399:4408   */\n      dup2\n        /* \"#utility.yul\":4393:4397   */\n      dup2\n        /* \"#utility.yul\":4389:4409   */\n      sub\n        /* \"#utility.yul\":4385:4386   */\n      0x00\n        /* \"#utility.yul\":4374:4383   */\n      dup4\n        /* \"#utility.yul\":4370:4387   */\n      add\n        /* \"#utility.yul\":4363:4410   */\n      mstore\n        /* \"#utility.yul\":4427:4558   */\n      tag_266\n        /* \"#utility.yul\":4553:4557   */\n      dup2\n        /* \"#utility.yul\":4427:4558   */\n      tag_204\n      jump\t// in\n    tag_266:\n        /* \"#utility.yul\":4419:4558   */\n      swap1\n      pop\n        /* \"#utility.yul\":4146:4565   */\n      swap2\n      swap1\n      pop\n      jump\t// out\n        /* \"#utility.yul\":4571:4738   */\n    tag_205:\n        /* \"#utility.yul\":4711:4730   */\n      0x43726f7373696e672069732066756c6c2e000000000000000000000000000000\n        /* \"#utility.yul\":4707:4708   */\n      0x00\n        /* \"#utility.yul\":4699:4705   */\n      dup3\n        /* \"#utility.yul\":4695:4709   */\n      add\n        /* \"#utility.yul\":4688:4731   */\n      mstore\n        /* \"#utility.yul\":4571:4738   */\n      pop\n      jump\t// out\n        /* \"#utility.yul\":4744:5110   */\n    tag_206:\n        /* \"#utility.yul\":4886:4889   */\n      0x00\n        /* \"#utility.yul\":4907:4974   */\n      tag_269\n        /* \"#utility.yul\":4971:4973   */\n      0x11\n        /* \"#utility.yul\":4966:4969   */\n      dup4\n        /* \"#utility.yul\":4907:4974   */\n      tag_202\n      jump\t// in\n    tag_269:\n        /* \"#utility.yul\":4900:4974   */\n      swap2\n      pop\n        /* \"#utility.yul\":4983:5076   */\n      tag_270\n        /* \"#utility.yul\":5072:5075   */\n      dup3\n        /* \"#utility.yul\":4983:5076   */\n      tag_205\n      jump\t// in\n    tag_270:\n        /* \"#utility.yul\":5101:5103   */\n      0x20\n        /* \"#utility.yul\":5096:5099   */\n      dup3\n        /* \"#utility.yul\":5092:5104   */\n      add\n        /* \"#utility.yul\":5085:5104   */\n      swap1\n      pop\n        /* \"#utility.yul\":4744:5110   */\n      swap2\n      swap1\n      pop\n      jump\t// out\n        /* \"#utility.yul\":5116:5535   */\n    tag_100:\n        /* \"#utility.yul\":5282:5286   */\n      0x00\n        /* \"#utility.yul\":5320:5322   */\n      0x20\n        /* \"#utility.yul\":5309:5318   */\n      dup3\n        /* \"#utility.yul\":5305:5323   */\n      add\n        /* \"#utility.yul\":5297:5323   */\n      swap1\n      pop\n        /* \"#utility.yul\":5369:5378   */\n      dup2\n        /* \"#utility.yul\":5363:5367   */\n      dup2\n        /* \"#utility.yul\":5359:5379   */\n      sub\n        /* \"#utility.yul\":5355:5356   */\n      0x00\n        /* \"#utility.yul\":5344:5353   */\n      dup4\n        /* \"#utility.yul\":5340:5357   */\n      add\n        /* \"#utility.yul\":5333:5380   */\n      mstore\n        /* \"#utility.yul\":5397:5528   */\n      tag_272\n        /* \"#utility.yul\":5523:5527   */\n      dup2\n        /* \"#utility.yul\":5397:5528   */\n      tag_206\n      jump\t// in\n    tag_272:\n        /* \"#utility.yul\":5389:5528   */\n      swap1\n      pop\n        /* \"#utility.yul\":5116:5535   */\n      swap2\n      swap1\n      pop\n      jump\t// out\n        /* \"#utility.yul\":5541:5707   */\n    tag_207:\n        /* \"#utility.yul\":5681:5699   */\n      0x416c72656164792063726f7373696e6700000000000000000000000000000000\n        /* \"#utility.yul\":5677:5678   */\n      0x00\n        /* \"#utility.yul\":5669:5675   */\n      dup3\n        /* \"#utility.yul\":5665:5679   */\n      add\n        /* \"#utility.yul\":5658:5700   */\n      mstore\n        /* \"#utility.yul\":5541:5707   */\n      pop\n      jump\t// out\n        /* \"#utility.yul\":5713:6079   */\n    tag_208:\n        /* \"#utility.yul\":5855:5858   */\n      0x00\n        /* \"#utility.yul\":5876:5943   */\n      tag_275\n        /* \"#utility.yul\":5940:5942   */\n      0x10\n        /* \"#utility.yul\":5935:5938   */\n      dup4\n        /* \"#utility.yul\":5876:5943   */\n      tag_202\n      jump\t// in\n    tag_275:\n        /* \"#utility.yul\":5869:5943   */\n      swap2\n      pop\n        /* \"#utility.yul\":5952:6045   */\n      tag_276\n        /* \"#utility.yul\":6041:6044   */\n      dup3\n        /* \"#utility.yul\":5952:6045   */\n      tag_207\n      jump\t// in\n    tag_276:\n        /* \"#utility.yul\":6070:6072   */\n      0x20\n        /* \"#utility.yul\":6065:6068   */\n      dup3\n        /* \"#utility.yul\":6061:6073   */\n      add\n        /* \"#utility.yul\":6054:6073   */\n      swap1\n      pop\n        /* \"#utility.yul\":5713:6079   */\n      swap2\n      swap1\n      pop\n      jump\t// out\n        /* \"#utility.yul\":6085:6504   */\n    tag_104:\n        /* \"#utility.yul\":6251:6255   */\n      0x00\n        /* \"#utility.yul\":6289:6291   */\n      0x20\n        /* \"#utility.yul\":6278:6287   */\n      dup3\n        /* \"#utility.yul\":6274:6292   */\n      add\n        /* \"#utility.yul\":6266:6292   */\n      swap1\n      pop\n        /* \"#utility.yul\":6338:6347   */\n      dup2\n        /* \"#utility.yul\":6332:6336   */\n      dup2\n        /* \"#utility.yul\":6328:6348   */\n      sub\n        /* \"#utility.yul\":6324:6325   */\n      0x00\n        /* \"#utility.yul\":6313:6322   */\n      dup4\n        /* \"#utility.yul\":6309:6326   */\n      add\n        /* \"#utility.yul\":6302:6349   */\n      mstore\n        /* \"#utility.yul\":6366:6497   */\n      tag_278\n        /* \"#utility.yul\":6492:6496   */\n      dup2\n        /* \"#utility.yul\":6366:6497   */\n      tag_208\n      jump\t// in\n    tag_278:\n        /* \"#utility.yul\":6358:6497   */\n      swap1\n      pop\n        /* \"#utility.yul\":6085:6504   */\n      swap2\n      swap1\n      pop\n      jump\t// out\n        /* \"#utility.yul\":6510:6690   */\n    tag_209:\n        /* \"#utility.yul\":6558:6635   */\n      0x4e487b7100000000000000000000000000000000000000000000000000000000\n        /* \"#utility.yul\":6555:6556   */\n      0x00\n        /* \"#utility.yul\":6548:6636   */\n      mstore\n        /* \"#utility.yul\":6655:6659   */\n      0x11\n        /* \"#utility.yul\":6652:6653   */\n      0x04\n        /* \"#utility.yul\":6645:6660   */\n      mstore\n        /* \"#utility.yul\":6679:6683   */\n      0x24\n        /* \"#utility.yul\":6676:6677   */\n      0x00\n        /* \"#utility.yul\":6669:6684   */\n      revert\n        /* \"#utility.yul\":6696:6929   */\n    tag_106:\n        /* \"#utility.yul\":6735:6738   */\n      0x00\n        /* \"#utility.yul\":6758:6782   */\n      tag_281\n        /* \"#utility.yul\":6776:6781   */\n      dup3\n        /* \"#utility.yul\":6758:6782   */\n      tag_193\n      jump\t// in\n    tag_281:\n        /* \"#utility.yul\":6749:6782   */\n      swap2\n      pop\n        /* \"#utility.yul\":6804:6870   */\n      0xffffffffffffffffffffffffffffffffffffffffffffffffffffffffffffffff\n        /* \"#utility.yul\":6797:6802   */\n      dup3\n        /* \"#utility.yul\":6794:6871   */\n      sub\n        /* \"#utility.yul\":6791:6894   */\n      tag_282\n      jumpi\n        /* \"#utility.yul\":6874:6892   */\n      tag_283\n      tag_209\n      jump\t// in\n    tag_283:\n        /* \"#utility.yul\":6791:6894   */\n    tag_282:\n        /* \"#utility.yul\":6921:6922   */\n      0x01\n        /* \"#utility.yul\":6914:6919   */\n      dup3\n        /* \"#utility.yul\":6910:6923   */\n      add\n        /* \"#utility.yul\":6903:6923   */\n      swap1\n      pop\n        /* \"#utility.yul\":6696:6929   */\n      swap2\n      swap1\n      pop\n      jump\t// out\n        /* \"#utility.yul\":6935:7165   */\n    tag_210:\n        /* \"#utility.yul\":7075:7109   */\n      0x4f6e6c7920696e6672617374727563747572652063616e2063616c6c20746869\n        /* \"#utility.yul\":7071:7072   */\n      0x00\n        /* \"#utility.yul\":7063:7069   */\n      dup3\n        /* \"#utility.yul\":7059:7073   */\n      add\n        /* \"#utility.yul\":7052:7110   */\n      mstore\n        /* \"#utility.yul\":7144:7157   */\n      0x732066756e6374696f6e2e000000000000000000000000000000000000000000\n        /* \"#utility.yul\":7139:7141   */\n      0x20\n        /* \"#utility.yul\":7131:7137   */\n      dup3\n        /* \"#utility.yul\":7127:7142   */\n      add\n        /* \"#utility.yul\":7120:7158   */\n      mstore\n        /* \"#utility.yul\":6935:7165   */\n      pop\n      jump\t// out\n        /* \"#utility.yul\":7171:7537   */\n    tag_211:\n        /* \"#utility.yul\":7313:7316   */\n      0x00\n        /* \"#utility.yul\":7334:7401   */\n      tag_286\n        /* \"#utility.yul\":7398:7400   */\n      0x2b\n        /* \"#utility.yul\":7393:7396   */\n      dup4\n        /* \"#utility.yul\":7334:7401   */\n      tag_202\n      jump\t// in\n    tag_286:\n        /* \"#utility.yul\":7327:7401   */\n      swap2\n      pop\n        /* \"#utility.yul\":7410:7503   */\n      tag_287\n        /* \"#utility.yul\":7499:7502   */\n      dup3\n        /* \"#utility.yul\":7410:7503   */\n      tag_210\n      jump\t// in\n    tag_287:\n        /* \"#utility.yul\":7528:7530   */\n      0x40\n        /* \"#utility.yul\":7523:7526   */\n      dup3\n        /* \"#utility.yul\":7519:7531   */\n      add\n        /* \"#utility.yul\":7512:7531   */\n      swap1\n      pop\n        /* \"#utility.yul\":7171:7537   */\n      swap2\n      swap1\n      pop\n      jump\t// out\n        /* \"#utility.yul\":7543:7962   */\n    tag_111:\n        /* \"#utility.yul\":7709:7713   */\n      0x00\n        /* \"#utility.yul\":7747:7749   */\n      0x20\n        /* \"#utility.yul\":7736:7745   */\n      dup3\n        /* \"#utility.yul\":7732:7750   */\n      add\n        /* \"#utility.yul\":7724:7750   */\n      swap1\n      pop\n        /* \"#utility.yul\":7796:7805   */\n      dup2\n        /* \"#utility.yul\":7790:7794   */\n      dup2\n        /* \"#utility.yul\":7786:7806   */\n      sub\n        /* \"#utility.yul\":7782:7783   */\n      0x00\n        /* \"#utility.yul\":7771:7780   */\n      dup4\n        /* \"#utility.yul\":7767:7784   */\n      add\n        /* \"#utility.yul\":7760:7807   */\n      mstore\n        /* \"#utility.yul\":7824:7955   */\n      tag_289\n        /* \"#utility.yul\":7950:7954   */\n      dup2\n        /* \"#utility.yul\":7824:7955   */\n      tag_211\n      jump\t// in\n    tag_289:\n        /* \"#utility.yul\":7816:7955   */\n      swap1\n      pop\n        /* \"#utility.yul\":7543:7962   */\n      swap2\n      swap1\n      pop\n      jump\t// out\n        /* \"#utility.yul\":7968:8139   */\n    tag_212:\n        /* \"#utility.yul\":8108:8131   */\n      0x4e6f7420617574686f72697a656420747261696e2e0000000000000000000000\n        /* \"#utility.yul\":8104:8105   */\n      0x00\n        /* \"#utility.yul\":8096:8102   */\n      dup3\n        /* \"#utility.yul\":8092:8106   */\n      add\n        /* \"#utility.yul\":8085:8132   */\n      mstore\n        /* \"#utility.yul\":7968:8139   */\n      pop\n      jump\t// out\n        /* \"#utility.yul\":8145:8511   */\n    tag_213:\n        /* \"#utility.yul\":8287:8290   */\n      0x00\n        /* \"#utility.yul\":8308:8375   */\n      tag_292\n        /* \"#utility.yul\":8372:8374   */\n      0x15\n        /* \"#utility.yul\":8367:8370   */\n      dup4\n        /* \"#utility.yul\":8308:8375   */\n      tag_202\n      jump\t// in\n    tag_292:\n        /* \"#utility.yul\":8301:8375   */\n      swap2\n      pop\n        /* \"#utility.yul\":8384:8477   */\n      tag_293\n        /* \"#utility.yul\":8473:8476   */\n      dup3\n        /* \"#utility.yul\":8384:8477   */\n      tag_212\n      jump\t// in\n    tag_293:\n        /* \"#utility.yul\":8502:8504   */\n      0x20\n        /* \"#utility.yul\":8497:8500   */\n      dup3\n        /* \"#utility.yul\":8493:8505   */\n      add\n        /* \"#utility.yul\":8486:8505   */\n      swap1\n      pop\n        /* \"#utility.yul\":8145:8511   */\n      swap2\n      swap1\n      pop\n      jump\t// out\n        /* \"#utility.yul\":8517:8936   */\n    tag_116:\n        /* \"#utility.yul\":8683:8687   */\n      0x00\n        /* \"#utility.yul\":8721:8723   */\n      0x20\n        /* \"#utility.yul\":8710:8719   */\n      dup3\n        /* \"#utility.yul\":8706:8724   */\n      add\n        /* \"#utility.yul\":8698:8724   */\n      swap1\n      pop\n        /* \"#utility.yul\":8770:8779   */\n      dup2\n        /* \"#utility.yul\":8764:8768   */\n      dup2\n        /* \"#utility.yul\":8760:8780   */\n      sub\n        /* \"#utility.yul\":8756:8757   */\n      0x00\n        /* \"#utility.yul\":8745:8754   */\n      dup4\n        /* \"#utility.yul\":8741:8758   */\n      add\n        /* \"#utility.yul\":8734:8781   */\n      mstore\n        /* \"#utility.yul\":8798:8929   */\n      tag_295\n        /* \"#utility.yul\":8924:8928   */\n      dup2\n        /* \"#utility.yul\":8798:8929   */\n      tag_213\n      jump\t// in\n    tag_295:\n        /* \"#utility.yul\":8790:8929   */\n      swap1\n      pop\n        /* \"#utility.yul\":8517:8936   */\n      swap2\n      swap1\n      pop\n      jump\t// out\n        /* \"#utility.yul\":8942:9262   */\n    tag_119:\n        /* \"#utility.yul\":9057:9061   */\n      0x00\n        /* \"#utility.yul\":9095:9097   */\n      0x40\n        /* \"#utility.yul\":9084:9093   */\n      dup3\n        /* \"#utility.yul\":9080:9098   */\n      add\n        /* \"#utility.yul\":9072:9098   */\n      swap1\n      pop\n        /* \"#utility.yul\":9108:9179   */\n      tag_297\n        /* \"#utility.yul\":9176:9177   */\n      0x00\n        /* \"#utility.yul\":9165:9174   */\n      dup4\n        /* \"#utility.yul\":9161:9178   */\n      add\n        /* \"#utility.yul\":9152:9158   */\n      dup6\n        /* \"#utility.yul\":9108:9179   */\n      tag_199\n      jump\t// in\n    tag_297:\n        /* \"#utility.yul\":9189:9255   */\n      tag_298\n        /* \"#utility.yul\":9251:9253   */\n      0x20\n        /* \"#utility.yul\":9240:9249   */\n      dup4\n        /* \"#utility.yul\":9236:9254   */\n      add\n        /* \"#utility.yul\":9227:9233   */\n      dup5\n        /* \"#utility.yul\":9189:9255   */\n      tag_201\n      jump\t// in\n    tag_298:\n        /* \"#utility.yul\":8942:9262   */\n      swap4\n      swap3\n      pop\n      pop\n      pop\n      jump\t// out\n        /* \"#utility.yul\":9268:9462   */\n    tag_130:\n        /* \"#utility.yul\":9308:9312   */\n      0x00\n        /* \"#utility.yul\":9328:9348   */\n      tag_300\n        /* \"#utility.yul\":9346:9347   */\n      dup3\n        /* \"#utility.yul\":9328:9348   */\n      tag_193\n      jump\t// in\n    tag_300:\n        /* \"#utility.yul\":9323:9348   */\n      swap2\n      pop\n        /* \"#utility.yul\":9362:9382   */\n      tag_301\n        /* \"#utility.yul\":9380:9381   */\n      dup4\n        /* \"#utility.yul\":9362:9382   */\n      tag_193\n      jump\t// in\n    tag_301:\n        /* \"#utility.yul\":9357:9382   */\n      swap3\n      pop\n        /* \"#utility.yul\":9406:9407   */\n      dup3\n        /* \"#utility.yul\":9403:9404   */\n      dup3\n        /* \"#utility.yul\":9399:9408   */\n      sub\n        /* \"#utility.yul\":9391:9408   */\n      swap1\n      pop\n        /* \"#utility.yul\":9430:9431   */\n      dup2\n        /* \"#utility.yul\":9424:9428   */\n      dup2\n        /* \"#utility.yul\":9421:9432   */\n      gt\n        /* \"#utility.yul\":9418:9455   */\n      iszero\n      tag_302\n      jumpi\n        /* \"#utility.yul\":9435:9453   */\n      tag_303\n      tag_209\n      jump\t// in\n    tag_303:\n        /* \"#utility.yul\":9418:9455   */\n    tag_302:\n        /* \"#utility.yul\":9268:9462   */\n      swap3\n      swap2\n      pop\n      pop\n      jump\t// out\n        /* \"#utility.yul\":9468:9691   */\n    tag_214:\n        /* \"#utility.yul\":9608:9642   */\n      0x56656869636c6520686173206e6f7420726571756573746564207065726d6973\n        /* \"#utility.yul\":9604:9605   */\n      0x00\n        /* \"#utility.yul\":9596:9602   */\n      dup3\n        /* \"#utility.yul\":9592:9606   */\n      add\n        /* \"#utility.yul\":9585:9643   */\n      mstore\n        /* \"#utility.yul\":9677:9683   */\n      0x73696f6e00000000000000000000000000000000000000000000000000000000\n        /* \"#utility.yul\":9672:9674   */\n      0x20\n        /* \"#utility.yul\":9664:9670   */\n      dup3\n        /* \"#utility.yul\":9660:9675   */\n      add\n        /* \"#utility.yul\":9653:9684   */\n      mstore\n        /* \"#utility.yul\":9468:9691   */\n      pop\n      jump\t// out\n        /* \"#utility.yul\":9697:10063   */\n    tag_215:\n        /* \"#utility.yul\":9839:9842   */\n      0x00\n        /* \"#utility.yul\":9860:9927   */\n      tag_306\n        /* \"#utility.yul\":9924:9926   */\n      0x24\n        /* \"#utility.yul\":9919:9922   */\n      dup4\n        /* \"#utility.yul\":9860:9927   */\n      tag_202\n      jump\t// in\n    tag_306:\n        /* \"#utility.yul\":9853:9927   */\n      swap2\n      pop\n        /* \"#utility.yul\":9936:10029   */\n      tag_307\n        /* \"#utility.yul\":10025:10028   */\n      dup3\n        /* \"#utility.yul\":9936:10029   */\n      tag_214\n      jump\t// in\n    tag_307:\n        /* \"#utility.yul\":10054:10056   */\n      0x40\n        /* \"#utility.yul\":10049:10052   */\n      dup3\n        /* \"#utility.yul\":10045:10057   */\n      add\n        /* \"#utility.yul\":10038:10057   */\n      swap1\n      pop\n        /* \"#utility.yul\":9697:10063   */\n      swap2\n      swap1\n      pop\n      jump\t// out\n        /* \"#utility.yul\":10069:10488   */\n    tag_150:\n        /* \"#utility.yul\":10235:10239   */\n      0x00\n        /* \"#utility.yul\":10273:10275   */\n      0x20\n        /* \"#utility.yul\":10262:10271   */\n      dup3\n        /* \"#utility.yul\":10258:10276   */\n      add\n        /* \"#utility.yul\":10250:10276   */\n      swap1\n      pop\n        /* \"#utility.yul\":10322:10331   */\n      dup2\n        /* \"#utility.yul\":10316:10320   */\n      dup2\n        /* \"#utility.yul\":10312:10332   */\n      sub\n        /* \"#utility.yul\":10308:10309   */\n      0x00\n        /* \"#utility.yul\":10297:10306   */\n      dup4\n        /* \"#utility.yul\":10293:10310   */\n      add\n        /* \"#utility.yul\":10286:10333   */\n      mstore\n        /* \"#utility.yul\":10350:10481   */\n      tag_309\n        /* \"#utility.yul\":10476:10480   */\n      dup2\n        /* \"#utility.yul\":10350:10481   */\n      tag_215\n      jump\t// in\n    tag_309:\n        /* \"#utility.yul\":10342:10481   */\n      swap1\n      pop\n        /* \"#utility.yul\":10069:10488   */\n      swap2\n      swap1\n      pop\n      jump\t// out\n        /* \"#utility.yul\":10494:10665   */\n    tag_152:\n        /* \"#utility.yul\":10533:10536   */\n      0x00\n        /* \"#utility.yul\":10556:10580   */\n      tag_311\n        /* \"#utility.yul\":10574:10579   */\n      dup3\n        /* \"#utility.yul\":10556:10580   */\n      tag_193\n      jump\t// in\n    tag_311:\n        /* \"#utility.yul\":10547:10580   */\n      swap2\n      pop\n        /* \"#utility.yul\":10602:10606   */\n      0x00\n        /* \"#utility.yul\":10595:10600   */\n      dup3\n        /* \"#utility.yul\":10592:10607   */\n      sub\n        /* \"#utility.yul\":10589:10630   */\n      tag_312\n      jumpi\n        /* \"#utility.yul\":10610:10628   */\n      tag_313\n      tag_209\n      jump\t// in\n    tag_313:\n        /* \"#utility.yul\":10589:10630   */\n    tag_312:\n        /* \"#utility.yul\":10657:10658   */\n      0x01\n        /* \"#utility.yul\":10650:10655   */\n      dup3\n        /* \"#utility.yul\":10646:10659   */\n      sub\n        /* \"#utility.yul\":10639:10659   */\n      swap1\n      pop\n        /* \"#utility.yul\":10494:10665   */\n      swap2\n      swap1\n      pop\n      jump\t// out\n        /* \"#utility.yul\":10671:10895   */\n    tag_216:\n        /* \"#utility.yul\":10811:10845   */\n      0x596f7520646f6e27742068617665207065726d697373696f6e20746f2072656c\n        /* \"#utility.yul\":10807:10808   */\n      0x00\n        /* \"#utility.yul\":10799:10805   */\n      dup3\n        /* \"#utility.yul\":10795:10809   */\n      add\n        /* \"#utility.yul\":10788:10846   */\n      mstore\n        /* \"#utility.yul\":10880:10887   */\n      0x656173652e000000000000000000000000000000000000000000000000000000\n        /* \"#utility.yul\":10875:10877   */\n      0x20\n        /* \"#utility.yul\":10867:10873   */\n      dup3\n        /* \"#utility.yul\":10863:10878   */\n      add\n        /* \"#utility.yul\":10856:10888   */\n      mstore\n        /* \"#utility.yul\":10671:10895   */\n      pop\n      jump\t// out\n        /* \"#utility.yul\":10901:11267   */\n    tag_217:\n        /* \"#utility.yul\":11043:11046   */\n      0x00\n        /* \"#utility.yul\":11064:11131   */\n      tag_316\n        /* \"#utility.yul\":11128:11130   */\n      0x25\n        /* \"#utility.yul\":11123:11126   */\n      dup4\n        /* \"#utility.yul\":11064:11131   */\n      tag_202\n      jump\t// in\n    tag_316:\n        /* \"#utility.yul\":11057:11131   */\n      swap2\n      pop\n        /* \"#utility.yul\":11140:11233   */\n      tag_317\n        /* \"#utility.yul\":11229:11232   */\n      dup3\n        /* \"#utility.yul\":11140:11233   */\n      tag_216\n      jump\t// in\n    tag_317:\n        /* \"#utility.yul\":11258:11260   */\n      0x40\n        /* \"#utility.yul\":11253:11256   */\n      dup3\n        /* \"#utility.yul\":11249:11261   */\n      add\n        /* \"#utility.yul\":11242:11261   */\n      swap1\n      pop\n        /* \"#utility.yul\":10901:11267   */\n      swap2\n      swap1\n      pop\n      jump\t// out\n        /* \"#utility.yul\":11273:11692   */\n    tag_160:\n        /* \"#utility.yul\":11439:11443   */\n      0x00\n        /* \"#utility.yul\":11477:11479   */\n      0x20\n        /* \"#utility.yul\":11466:11475   */\n      dup3\n        /* \"#utility.yul\":11462:11480   */\n      add\n        /* \"#utility.yul\":11454:11480   */\n      swap1\n      pop\n        /* \"#utility.yul\":11526:11535   */\n      dup2\n        /* \"#utility.yul\":11520:11524   */\n      dup2\n        /* \"#utility.yul\":11516:11536   */\n      sub\n        /* \"#utility.yul\":11512:11513   */\n      0x00\n        /* \"#utility.yul\":11501:11510   */\n      dup4\n        /* \"#utility.yul\":11497:11514   */\n      add\n        /* \"#utility.yul\":11490:11537   */\n      mstore\n        /* \"#utility.yul\":11554:11685   */\n      tag_319\n        /* \"#utility.yul\":11680:11684   */\n      dup2\n        /* \"#utility.yul\":11554:11685   */\n      tag_217\n      jump\t// in\n    tag_319:\n        /* \"#utility.yul\":11546:11685   */\n      swap1\n      pop\n        /* \"#utility.yul\":11273:11692   */\n      swap2\n      swap1\n      pop\n      jump\t// out\n\n    auxdata: 0xa26469706673582212205b040abf4ff8cc26dca5416a159d1d2bf266c40a2e50bd72888a936614e0e32164736f6c63430008160033\n}\n",
				"bytecode": {
					"linkReferences": {},
					"object": "608060405234801562000010575f80fd5b50604051620017a5380380620017a5833981810160405281019062000036919062000111565b335f60016101000a81548173ffffffffffffffffffffffffffffffffffffffff021916908373ffffffffffffffffffffffffffffffffffffffff16021790555082600281905550816003819055508060048190555060015f806101000a81548160ff02191690836002811115620000b257620000b16200016a565b5b02179055505f6005819055505f6006819055504260018190555050505062000197565b5f80fd5b5f819050919050565b620000ed81620000d9565b8114620000f8575f80fd5b50565b5f815190506200010b81620000e2565b92915050565b5f805f606084860312156200012b576200012a620000d5565b5b5f6200013a86828701620000fb565b93505060206200014d86828701620000fb565b92505060406200016086828701620000fb565b9150509250925092565b7f4e487b71000000000000000000000000000000000000000000000000000000005f52602160045260245ffd5b61160080620001a55f395ff3fe608060405234801561000f575f80fd5b506004361061011f575f3560e01c8063826b1d68116100ab578063c04637111161006f578063c046371114610295578063cee321d6146102b3578063e4fa8da9146102d1578063ec9aaec8146102ef578063fae68b4d1461031f5761011f565b8063826b1d68146101f15780638d46e930146101fb5780639bd565d614610217578063a21c30de14610235578063baa12859146102655761011f565b806340ef3a69116100f257806340ef3a69146101975780636bab9804146101b55780636fcc55fc146101d357806374e18625146101dd57806380db9e50146101e75761011f565b8063064527ca14610123578063312d6a811461012d5780633c3244ab146101495780633ed6ba3d14610179575b5f80fd5b61012b61033d565b005b61014760048036038101906101429190611038565b61052c565b005b610163600480360381019061015e9190611038565b610612565b604051610170919061107b565b60405180910390f35b610181610627565b60405161018e919061107b565b60405180910390f35b61019f61062d565b6040516101ac9190611107565b60405180910390f35b6101bd61063d565b6040516101ca919061107b565b60405180910390f35b6101db610643565b005b6101e56109c9565b005b6101ef610a89565b005b6101f9610bb6565b005b61021560048036038101906102109190611038565b610d9e565b005b61021f610e85565b60405161022c919061112f565b60405180910390f35b61024f600480360381019061024a9190611038565b610eaa565b60405161025c9190611162565b60405180910390f35b61027f600480360381019061027a9190611038565b610ec7565b60405161028c9190611162565b60405180910390f35b61029d610ee4565b6040516102aa919061107b565b60405180910390f35b6102bb610eea565b6040516102c8919061107b565b60405180910390f35b6102d9610ef0565b6040516102e6919061107b565b60405180910390f35b61030960048036038101906103049190611038565b610ef6565b6040516103169190611162565b60405180910390f35b610327610f13565b604051610334919061107b565b60405180910390f35b610345610f19565b5f600281111561035857610357611094565b5b5f8054906101000a900460ff16600281111561037757610376611094565b5b146103b7576040517f08c379a00000000000000000000000000000000000000000000000000000000081526004016103ae906111d5565b60405180910390fd5b600354600554106103fd576040517f08c379a00000000000000000000000000000000000000000000000000000000081526004016103f49061123d565b60405180910390fd5b60075f3373ffffffffffffffffffffffffffffffffffffffff1673ffffffffffffffffffffffffffffffffffffffff1681526020019081526020015f205f9054906101000a900460ff1615610487576040517f08c379a000000000000000000000000000000000000000000000000000000000815260040161047e906112a5565b60405180910390fd5b600160075f3373ffffffffffffffffffffffffffffffffffffffff1673ffffffffffffffffffffffffffffffffffffffff1681526020019081526020015f205f6101000a81548160ff02191690831515021790555060055f8154809291906104ee906112f0565b91905055507f8b0924eaa49635981070514597e848549adc7d69bc943b4b2a7ceefb16003dc233604051610522919061112f565b60405180910390a1565b5f60019054906101000a900473ffffffffffffffffffffffffffffffffffffffff1673ffffffffffffffffffffffffffffffffffffffff163373ffffffffffffffffffffffffffffffffffffffff16146105bb576040517f08c379a00000000000000000000000000000000000000000000000000000000081526004016105b2906113a7565b60405180910390fd5b5f600a5f8373ffffffffffffffffffffffffffffffffffffffff1673ffffffffffffffffffffffffffffffffffffffff1681526020019081526020015f205f6101000a81548160ff02191690831515021790555050565b6009602052805f5260405f205f915090505481565b60045481565b5f8054906101000a900460ff1681565b60035481565b600a5f3373ffffffffffffffffffffffffffffffffffffffff1673ffffffffffffffffffffffffffffffffffffffff1681526020019081526020015f205f9054906101000a900460ff166106cc576040517f08c379a00000000000000000000000000000000000000000000000000000000081526004016106c39061140f565b60405180910390fd5b7f99dabed7f6f5ed6344a92aa6d218a2783233053b23aab6cc21a53bf4c5980f503360085f3373ffffffffffffffffffffffffffffffffffffffff1673ffffffffffffffffffffffffffffffffffffffff1681526020019081526020015f205f9054906101000a900460ff161560405161074792919061142d565b60405180910390a160085f3373ffffffffffffffffffffffffffffffffffffffff1673ffffffffffffffffffffffffffffffffffffffff1681526020019081526020015f205f9054906101000a900460ff1661084c57600160085f3373ffffffffffffffffffffffffffffffffffffffff1673ffffffffffffffffffffffffffffffffffffffff1681526020019081526020015f205f6101000a81548160ff0219169083151502179055504260095f3373ffffffffffffffffffffffffffffffffffffffff1673ffffffffffffffffffffffffffffffffffffffff1681526020019081526020015f208190555060065f815480929190610846906112f0565b91905055505b610854610f76565b60028081111561086757610866611094565b5b5f8054906101000a900460ff16600281111561088657610885611094565b5b036109555760045460095f3373ffffffffffffffffffffffffffffffffffffffff1673ffffffffffffffffffffffffffffffffffffffff1681526020019081526020015f2054426108d79190611454565b1115610919577f273d510e41fd7354aecc3dd5a1af735cae0c081cf7142da8245e713e3ee4f4883360405161090c919061112f565b60405180910390a16109c7565b7f3f79930be7ed586c284cb8ba2feaa12b5bc8b3f6f0788a2c0577c66876c591bf33604051610948919061112f565b60405180910390a16109c6565b6001600281111561096957610968611094565b5b5f8054906101000a900460ff16600281111561098857610987611094565b5b036109c5577faf562694fb399e648b3c3c32d69af1a74406eaab624eaff9802aa97414dfde33336040516109bc919061112f565b60405180910390a15b5b5b565b5f60019054906101000a900473ffffffffffffffffffffffffffffffffffffffff1673ffffffffffffffffffffffffffffffffffffffff163373ffffffffffffffffffffffffffffffffffffffff1614610a58576040517f08c379a0000000000000000000000000000000000000000000000000000000008152600401610a4f906113a7565b60405180910390fd5b5f805f6101000a81548160ff02191690836002811115610a7b57610a7a611094565b5b021790555042600181905550565b60075f3373ffffffffffffffffffffffffffffffffffffffff1673ffffffffffffffffffffffffffffffffffffffff1681526020019081526020015f205f9054906101000a900460ff16610b12576040517f08c379a0000000000000000000000000000000000000000000000000000000008152600401610b09906114f7565b60405180910390fd5b5f60075f3373ffffffffffffffffffffffffffffffffffffffff1673ffffffffffffffffffffffffffffffffffffffff1681526020019081526020015f205f6101000a81548160ff02191690831515021790555060055f815480929190610b7890611515565b91905055507f2e88ceae333b5a571097904aed082642c40e10839dd32e2a0753d8008a89e2e133604051610bac919061112f565b60405180910390a1565b600a5f3373ffffffffffffffffffffffffffffffffffffffff1673ffffffffffffffffffffffffffffffffffffffff1681526020019081526020015f205f9054906101000a900460ff16610c3f576040517f08c379a0000000000000000000000000000000000000000000000000000000008152600401610c369061140f565b60405180910390fd5b60085f3373ffffffffffffffffffffffffffffffffffffffff1673ffffffffffffffffffffffffffffffffffffffff1681526020019081526020015f205f9054906101000a900460ff16610cc8576040517f08c379a0000000000000000000000000000000000000000000000000000000008152600401610cbf906115ac565b60405180910390fd5b5f60085f3373ffffffffffffffffffffffffffffffffffffffff1673ffffffffffffffffffffffffffffffffffffffff1681526020019081526020015f205f6101000a81548160ff02191690831515021790555060065f815480929190610d2e90611515565b91905055505f60065403610d65575f805f6101000a81548160ff02191690836002811115610d5f57610d5e611094565b5b02179055505b7f3c0ea4a00d4de0ccc27897a7a04782de620b5fe6df6cb5601d2560e3aee591c433604051610d94919061112f565b60405180910390a1565b5f60019054906101000a900473ffffffffffffffffffffffffffffffffffffffff1673ffffffffffffffffffffffffffffffffffffffff163373ffffffffffffffffffffffffffffffffffffffff1614610e2d576040517f08c379a0000000000000000000000000000000000000000000000000000000008152600401610e24906113a7565b60405180910390fd5b6001600a5f8373ffffffffffffffffffffffffffffffffffffffff1673ffffffffffffffffffffffffffffffffffffffff1681526020019081526020015f205f6101000a81548160ff02191690831515021790555050565b5f60019054906101000a900473ffffffffffffffffffffffffffffffffffffffff1681565b6008602052805f5260405f205f915054906101000a900460ff1681565b6007602052805f5260405f205f915054906101000a900460ff1681565b60015481565b60055481565b60025481565b600a602052805f5260405f205f915054906101000a900460ff1681565b60065481565b60025460015442610f2a9190611454565b118015610f6657505f6002811115610f4557610f44611094565b5b5f8054906101000a900460ff166002811115610f6457610f63611094565b5b145b15610f7457610f73610f76565b5b565b5f6005541115610fae5760025f806101000a81548160ff02191690836002811115610fa457610fa3611094565b5b0217905550610fd8565b60015f806101000a81548160ff02191690836002811115610fd257610fd1611094565b5b02179055505b565b5f80fd5b5f73ffffffffffffffffffffffffffffffffffffffff82169050919050565b5f61100782610fde565b9050919050565b61101781610ffd565b8114611021575f80fd5b50565b5f813590506110328161100e565b92915050565b5f6020828403121561104d5761104c610fda565b5b5f61105a84828501611024565b91505092915050565b5f819050919050565b61107581611063565b82525050565b5f60208201905061108e5f83018461106c565b92915050565b7f4e487b71000000000000000000000000000000000000000000000000000000005f52602160045260245ffd5b600381106110d2576110d1611094565b5b50565b5f8190506110e2826110c1565b919050565b5f6110f1826110d5565b9050919050565b611101816110e7565b82525050565b5f60208201905061111a5f8301846110f8565b92915050565b61112981610ffd565b82525050565b5f6020820190506111425f830184611120565b92915050565b5f8115159050919050565b61115c81611148565b82525050565b5f6020820190506111755f830184611153565b92915050565b5f82825260208201905092915050565b7f43726f7373696e67206973206e6f74206672656520746f2063726f73732e00005f82015250565b5f6111bf601e8361117b565b91506111ca8261118b565b602082019050919050565b5f6020820190508181035f8301526111ec816111b3565b9050919050565b7f43726f7373696e672069732066756c6c2e0000000000000000000000000000005f82015250565b5f61122760118361117b565b9150611232826111f3565b602082019050919050565b5f6020820190508181035f8301526112548161121b565b9050919050565b7f416c72656164792063726f7373696e67000000000000000000000000000000005f82015250565b5f61128f60108361117b565b915061129a8261125b565b602082019050919050565b5f6020820190508181035f8301526112bc81611283565b9050919050565b7f4e487b71000000000000000000000000000000000000000000000000000000005f52601160045260245ffd5b5f6112fa82611063565b91507fffffffffffffffffffffffffffffffffffffffffffffffffffffffffffffffff820361132c5761132b6112c3565b5b600182019050919050565b7f4f6e6c7920696e6672617374727563747572652063616e2063616c6c207468695f8201527f732066756e6374696f6e2e000000000000000000000000000000000000000000602082015250565b5f611391602b8361117b565b915061139c82611337565b604082019050919050565b5f6020820190508181035f8301526113be81611385565b9050919050565b7f4e6f7420617574686f72697a656420747261696e2e00000000000000000000005f82015250565b5f6113f960158361117b565b9150611404826113c5565b602082019050919050565b5f6020820190508181035f830152611426816113ed565b9050919050565b5f6040820190506114405f830185611120565b61144d6020830184611153565b9392505050565b5f61145e82611063565b915061146983611063565b9250828203905081811115611481576114806112c3565b5b92915050565b7f56656869636c6520686173206e6f7420726571756573746564207065726d69735f8201527f73696f6e00000000000000000000000000000000000000000000000000000000602082015250565b5f6114e160248361117b565b91506114ec82611487565b604082019050919050565b5f6020820190508181035f83015261150e816114d5565b9050919050565b5f61151f82611063565b91505f8203611531576115306112c3565b5b600182039050919050565b7f596f7520646f6e27742068617665207065726d697373696f6e20746f2072656c5f8201527f656173652e000000000000000000000000000000000000000000000000000000602082015250565b5f61159660258361117b565b91506115a18261153c565b604082019050919050565b5f6020820190508181035f8301526115c38161158a565b905091905056fea26469706673582212205b040abf4ff8cc26dca5416a159d1d2bf266c40a2e50bd72888a936614e0e32164736f6c63430008160033",
					"opcodes": "PUSH1 0x80 PUSH1 0x40 MSTORE CALLVALUE DUP1 ISZERO PUSH3 0x10 JUMPI PUSH0 DUP1 REVERT JUMPDEST POP PUSH1 0x40 MLOAD PUSH3 0x17A5 CODESIZE SUB DUP1 PUSH3 0x17A5 DUP4 CODECOPY DUP2 DUP2 ADD PUSH1 0x40 MSTORE DUP2 ADD SWAP1 PUSH3 0x36 SWAP2 SWAP1 PUSH3 0x111 JUMP JUMPDEST CALLER PUSH0 PUSH1 0x1 PUSH2 0x100 EXP DUP2 SLOAD DUP2 PUSH20 0xFFFFFFFFFFFFFFFFFFFFFFFFFFFFFFFFFFFFFFFF MUL NOT AND SWAP1 DUP4 PUSH20 0xFFFFFFFFFFFFFFFFFFFFFFFFFFFFFFFFFFFFFFFF AND MUL OR SWAP1 SSTORE POP DUP3 PUSH1 0x2 DUP2 SWAP1 SSTORE POP DUP2 PUSH1 0x3 DUP2 SWAP1 SSTORE POP DUP1 PUSH1 0x4 DUP2 SWAP1 SSTORE POP PUSH1 0x1 PUSH0 DUP1 PUSH2 0x100 EXP DUP2 SLOAD DUP2 PUSH1 0xFF MUL NOT AND SWAP1 DUP4 PUSH1 0x2 DUP2 GT ISZERO PUSH3 0xB2 JUMPI PUSH3 0xB1 PUSH3 0x16A JUMP JUMPDEST JUMPDEST MUL OR SWAP1 SSTORE POP PUSH0 PUSH1 0x5 DUP2 SWAP1 SSTORE POP PUSH0 PUSH1 0x6 DUP2 SWAP1 SSTORE POP TIMESTAMP PUSH1 0x1 DUP2 SWAP1 SSTORE POP POP POP POP PUSH3 0x197 JUMP JUMPDEST PUSH0 DUP1 REVERT JUMPDEST PUSH0 DUP2 SWAP1 POP SWAP2 SWAP1 POP JUMP JUMPDEST PUSH3 0xED DUP2 PUSH3 0xD9 JUMP JUMPDEST DUP2 EQ PUSH3 0xF8 JUMPI PUSH0 DUP1 REVERT JUMPDEST POP JUMP JUMPDEST PUSH0 DUP2 MLOAD SWAP1 POP PUSH3 0x10B DUP2 PUSH3 0xE2 JUMP JUMPDEST SWAP3 SWAP2 POP POP JUMP JUMPDEST PUSH0 DUP1 PUSH0 PUSH1 0x60 DUP5 DUP7 SUB SLT ISZERO PUSH3 0x12B JUMPI PUSH3 0x12A PUSH3 0xD5 JUMP JUMPDEST JUMPDEST PUSH0 PUSH3 0x13A DUP7 DUP3 DUP8 ADD PUSH3 0xFB JUMP JUMPDEST SWAP4 POP POP PUSH1 0x20 PUSH3 0x14D DUP7 DUP3 DUP8 ADD PUSH3 0xFB JUMP JUMPDEST SWAP3 POP POP PUSH1 0x40 PUSH3 0x160 DUP7 DUP3 DUP8 ADD PUSH3 0xFB JUMP JUMPDEST SWAP2 POP POP SWAP3 POP SWAP3 POP SWAP3 JUMP JUMPDEST PUSH32 0x4E487B7100000000000000000000000000000000000000000000000000000000 PUSH0 MSTORE PUSH1 0x21 PUSH1 0x4 MSTORE PUSH1 0x24 PUSH0 REVERT JUMPDEST PUSH2 0x1600 DUP1 PUSH3 0x1A5 PUSH0 CODECOPY PUSH0 RETURN INVALID PUSH1 0x80 PUSH1 0x40 MSTORE CALLVALUE DUP1 ISZERO PUSH2 0xF JUMPI PUSH0 DUP1 REVERT JUMPDEST POP PUSH1 0x4 CALLDATASIZE LT PUSH2 0x11F JUMPI PUSH0 CALLDATALOAD PUSH1 0xE0 SHR DUP1 PUSH4 0x826B1D68 GT PUSH2 0xAB JUMPI DUP1 PUSH4 0xC0463711 GT PUSH2 0x6F JUMPI DUP1 PUSH4 0xC0463711 EQ PUSH2 0x295 JUMPI DUP1 PUSH4 0xCEE321D6 EQ PUSH2 0x2B3 JUMPI DUP1 PUSH4 0xE4FA8DA9 EQ PUSH2 0x2D1 JUMPI DUP1 PUSH4 0xEC9AAEC8 EQ PUSH2 0x2EF JUMPI DUP1 PUSH4 0xFAE68B4D EQ PUSH2 0x31F JUMPI PUSH2 0x11F JUMP JUMPDEST DUP1 PUSH4 0x826B1D68 EQ PUSH2 0x1F1 JUMPI DUP1 PUSH4 0x8D46E930 EQ PUSH2 0x1FB JUMPI DUP1 PUSH4 0x9BD565D6 EQ PUSH2 0x217 JUMPI DUP1 PUSH4 0xA21C30DE EQ PUSH2 0x235 JUMPI DUP1 PUSH4 0xBAA12859 EQ PUSH2 0x265 JUMPI PUSH2 0x11F JUMP JUMPDEST DUP1 PUSH4 0x40EF3A69 GT PUSH2 0xF2 JUMPI DUP1 PUSH4 0x40EF3A69 EQ PUSH2 0x197 JUMPI DUP1 PUSH4 0x6BAB9804 EQ PUSH2 0x1B5 JUMPI DUP1 PUSH4 0x6FCC55FC EQ PUSH2 0x1D3 JUMPI DUP1 PUSH4 0x74E18625 EQ PUSH2 0x1DD JUMPI DUP1 PUSH4 0x80DB9E50 EQ PUSH2 0x1E7 JUMPI PUSH2 0x11F JUMP JUMPDEST DUP1 PUSH4 0x64527CA EQ PUSH2 0x123 JUMPI DUP1 PUSH4 0x312D6A81 EQ PUSH2 0x12D JUMPI DUP1 PUSH4 0x3C3244AB EQ PUSH2 0x149 JUMPI DUP1 PUSH4 0x3ED6BA3D EQ PUSH2 0x179 JUMPI JUMPDEST PUSH0 DUP1 REVERT JUMPDEST PUSH2 0x12B PUSH2 0x33D JUMP JUMPDEST STOP JUMPDEST PUSH2 0x147 PUSH1 0x4 DUP1 CALLDATASIZE SUB DUP2 ADD SWAP1 PUSH2 0x142 SWAP2 SWAP1 PUSH2 0x1038 JUMP JUMPDEST PUSH2 0x52C JUMP JUMPDEST STOP JUMPDEST PUSH2 0x163 PUSH1 0x4 DUP1 CALLDATASIZE SUB DUP2 ADD SWAP1 PUSH2 0x15E SWAP2 SWAP1 PUSH2 0x1038 JUMP JUMPDEST PUSH2 0x612 JUMP JUMPDEST PUSH1 0x40 MLOAD PUSH2 0x170 SWAP2 SWAP1 PUSH2 0x107B JUMP JUMPDEST PUSH1 0x40 MLOAD DUP1 SWAP2 SUB SWAP1 RETURN JUMPDEST PUSH2 0x181 PUSH2 0x627 JUMP JUMPDEST PUSH1 0x40 MLOAD PUSH2 0x18E SWAP2 SWAP1 PUSH2 0x107B JUMP JUMPDEST PUSH1 0x40 MLOAD DUP1 SWAP2 SUB SWAP1 RETURN JUMPDEST PUSH2 0x19F PUSH2 0x62D JUMP JUMPDEST PUSH1 0x40 MLOAD PUSH2 0x1AC SWAP2 SWAP1 PUSH2 0x1107 JUMP JUMPDEST PUSH1 0x40 MLOAD DUP1 SWAP2 SUB SWAP1 RETURN JUMPDEST PUSH2 0x1BD PUSH2 0x63D JUMP JUMPDEST PUSH1 0x40 MLOAD PUSH2 0x1CA SWAP2 SWAP1 PUSH2 0x107B JUMP JUMPDEST PUSH1 0x40 MLOAD DUP1 SWAP2 SUB SWAP1 RETURN JUMPDEST PUSH2 0x1DB PUSH2 0x643 JUMP JUMPDEST STOP JUMPDEST PUSH2 0x1E5 PUSH2 0x9C9 JUMP JUMPDEST STOP JUMPDEST PUSH2 0x1EF PUSH2 0xA89 JUMP JUMPDEST STOP JUMPDEST PUSH2 0x1F9 PUSH2 0xBB6 JUMP JUMPDEST STOP JUMPDEST PUSH2 0x215 PUSH1 0x4 DUP1 CALLDATASIZE SUB DUP2 ADD SWAP1 PUSH2 0x210 SWAP2 SWAP1 PUSH2 0x1038 JUMP JUMPDEST PUSH2 0xD9E JUMP JUMPDEST STOP JUMPDEST PUSH2 0x21F PUSH2 0xE85 JUMP JUMPDEST PUSH1 0x40 MLOAD PUSH2 0x22C SWAP2 SWAP1 PUSH2 0x112F JUMP JUMPDEST PUSH1 0x40 MLOAD DUP1 SWAP2 SUB SWAP1 RETURN JUMPDEST PUSH2 0x24F PUSH1 0x4 DUP1 CALLDATASIZE SUB DUP2 ADD SWAP1 PUSH2 0x24A SWAP2 SWAP1 PUSH2 0x1038 JUMP JUMPDEST PUSH2 0xEAA JUMP JUMPDEST PUSH1 0x40 MLOAD PUSH2 0x25C SWAP2 SWAP1 PUSH2 0x1162 JUMP JUMPDEST PUSH1 0x40 MLOAD DUP1 SWAP2 SUB SWAP1 RETURN JUMPDEST PUSH2 0x27F PUSH1 0x4 DUP1 CALLDATASIZE SUB DUP2 ADD SWAP1 PUSH2 0x27A SWAP2 SWAP1 PUSH2 0x1038 JUMP JUMPDEST PUSH2 0xEC7 JUMP JUMPDEST PUSH1 0x40 MLOAD PUSH2 0x28C SWAP2 SWAP1 PUSH2 0x1162 JUMP JUMPDEST PUSH1 0x40 MLOAD DUP1 SWAP2 SUB SWAP1 RETURN JUMPDEST PUSH2 0x29D PUSH2 0xEE4 JUMP JUMPDEST PUSH1 0x40 MLOAD PUSH2 0x2AA SWAP2 SWAP1 PUSH2 0x107B JUMP JUMPDEST PUSH1 0x40 MLOAD DUP1 SWAP2 SUB SWAP1 RETURN JUMPDEST PUSH2 0x2BB PUSH2 0xEEA JUMP JUMPDEST PUSH1 0x40 MLOAD PUSH2 0x2C8 SWAP2 SWAP1 PUSH2 0x107B JUMP JUMPDEST PUSH1 0x40 MLOAD DUP1 SWAP2 SUB SWAP1 RETURN JUMPDEST PUSH2 0x2D9 PUSH2 0xEF0 JUMP JUMPDEST PUSH1 0x40 MLOAD PUSH2 0x2E6 SWAP2 SWAP1 PUSH2 0x107B JUMP JUMPDEST PUSH1 0x40 MLOAD DUP1 SWAP2 SUB SWAP1 RETURN JUMPDEST PUSH2 0x309 PUSH1 0x4 DUP1 CALLDATASIZE SUB DUP2 ADD SWAP1 PUSH2 0x304 SWAP2 SWAP1 PUSH2 0x1038 JUMP JUMPDEST PUSH2 0xEF6 JUMP JUMPDEST PUSH1 0x40 MLOAD PUSH2 0x316 SWAP2 SWAP1 PUSH2 0x1162 JUMP JUMPDEST PUSH1 0x40 MLOAD DUP1 SWAP2 SUB SWAP1 RETURN JUMPDEST PUSH2 0x327 PUSH2 0xF13 JUMP JUMPDEST PUSH1 0x40 MLOAD PUSH2 0x334 SWAP2 SWAP1 PUSH2 0x107B JUMP JUMPDEST PUSH1 0x40 MLOAD DUP1 SWAP2 SUB SWAP1 RETURN JUMPDEST PUSH2 0x345 PUSH2 0xF19 JUMP JUMPDEST PUSH0 PUSH1 0x2 DUP2 GT ISZERO PUSH2 0x358 JUMPI PUSH2 0x357 PUSH2 0x1094 JUMP JUMPDEST JUMPDEST PUSH0 DUP1 SLOAD SWAP1 PUSH2 0x100 EXP SWAP1 DIV PUSH1 0xFF AND PUSH1 0x2 DUP2 GT ISZERO PUSH2 0x377 JUMPI PUSH2 0x376 PUSH2 0x1094 JUMP JUMPDEST JUMPDEST EQ PUSH2 0x3B7 JUMPI PUSH1 0x40 MLOAD PUSH32 0x8C379A000000000000000000000000000000000000000000000000000000000 DUP2 MSTORE PUSH1 0x4 ADD PUSH2 0x3AE SWAP1 PUSH2 0x11D5 JUMP JUMPDEST PUSH1 0x40 MLOAD DUP1 SWAP2 SUB SWAP1 REVERT JUMPDEST PUSH1 0x3 SLOAD PUSH1 0x5 SLOAD LT PUSH2 0x3FD JUMPI PUSH1 0x40 MLOAD PUSH32 0x8C379A000000000000000000000000000000000000000000000000000000000 DUP2 MSTORE PUSH1 0x4 ADD PUSH2 0x3F4 SWAP1 PUSH2 0x123D JUMP JUMPDEST PUSH1 0x40 MLOAD DUP1 SWAP2 SUB SWAP1 REVERT JUMPDEST PUSH1 0x7 PUSH0 CALLER PUSH20 0xFFFFFFFFFFFFFFFFFFFFFFFFFFFFFFFFFFFFFFFF AND PUSH20 0xFFFFFFFFFFFFFFFFFFFFFFFFFFFFFFFFFFFFFFFF AND DUP2 MSTORE PUSH1 0x20 ADD SWAP1 DUP2 MSTORE PUSH1 0x20 ADD PUSH0 KECCAK256 PUSH0 SWAP1 SLOAD SWAP1 PUSH2 0x100 EXP SWAP1 DIV PUSH1 0xFF AND ISZERO PUSH2 0x487 JUMPI PUSH1 0x40 MLOAD PUSH32 0x8C379A000000000000000000000000000000000000000000000000000000000 DUP2 MSTORE PUSH1 0x4 ADD PUSH2 0x47E SWAP1 PUSH2 0x12A5 JUMP JUMPDEST PUSH1 0x40 MLOAD DUP1 SWAP2 SUB SWAP1 REVERT JUMPDEST PUSH1 0x1 PUSH1 0x7 PUSH0 CALLER PUSH20 0xFFFFFFFFFFFFFFFFFFFFFFFFFFFFFFFFFFFFFFFF AND PUSH20 0xFFFFFFFFFFFFFFFFFFFFFFFFFFFFFFFFFFFFFFFF AND DUP2 MSTORE PUSH1 0x20 ADD SWAP1 DUP2 MSTORE PUSH1 0x20 ADD PUSH0 KECCAK256 PUSH0 PUSH2 0x100 EXP DUP2 SLOAD DUP2 PUSH1 0xFF MUL NOT AND SWAP1 DUP4 ISZERO ISZERO MUL OR SWAP1 SSTORE POP PUSH1 0x5 PUSH0 DUP2 SLOAD DUP1 SWAP3 SWAP2 SWAP1 PUSH2 0x4EE SWAP1 PUSH2 0x12F0 JUMP JUMPDEST SWAP2 SWAP1 POP SSTORE POP PUSH32 0x8B0924EAA49635981070514597E848549ADC7D69BC943B4B2A7CEEFB16003DC2 CALLER PUSH1 0x40 MLOAD PUSH2 0x522 SWAP2 SWAP1 PUSH2 0x112F JUMP JUMPDEST PUSH1 0x40 MLOAD DUP1 SWAP2 SUB SWAP1 LOG1 JUMP JUMPDEST PUSH0 PUSH1 0x1 SWAP1 SLOAD SWAP1 PUSH2 0x100 EXP SWAP1 DIV PUSH20 0xFFFFFFFFFFFFFFFFFFFFFFFFFFFFFFFFFFFFFFFF AND PUSH20 0xFFFFFFFFFFFFFFFFFFFFFFFFFFFFFFFFFFFFFFFF AND CALLER PUSH20 0xFFFFFFFFFFFFFFFFFFFFFFFFFFFFFFFFFFFFFFFF AND EQ PUSH2 0x5BB JUMPI PUSH1 0x40 MLOAD PUSH32 0x8C379A000000000000000000000000000000000000000000000000000000000 DUP2 MSTORE PUSH1 0x4 ADD PUSH2 0x5B2 SWAP1 PUSH2 0x13A7 JUMP JUMPDEST PUSH1 0x40 MLOAD DUP1 SWAP2 SUB SWAP1 REVERT JUMPDEST PUSH0 PUSH1 0xA PUSH0 DUP4 PUSH20 0xFFFFFFFFFFFFFFFFFFFFFFFFFFFFFFFFFFFFFFFF AND PUSH20 0xFFFFFFFFFFFFFFFFFFFFFFFFFFFFFFFFFFFFFFFF AND DUP2 MSTORE PUSH1 0x20 ADD SWAP1 DUP2 MSTORE PUSH1 0x20 ADD PUSH0 KECCAK256 PUSH0 PUSH2 0x100 EXP DUP2 SLOAD DUP2 PUSH1 0xFF MUL NOT AND SWAP1 DUP4 ISZERO ISZERO MUL OR SWAP1 SSTORE POP POP JUMP JUMPDEST PUSH1 0x9 PUSH1 0x20 MSTORE DUP1 PUSH0 MSTORE PUSH1 0x40 PUSH0 KECCAK256 PUSH0 SWAP2 POP SWAP1 POP SLOAD DUP2 JUMP JUMPDEST PUSH1 0x4 SLOAD DUP2 JUMP JUMPDEST PUSH0 DUP1 SLOAD SWAP1 PUSH2 0x100 EXP SWAP1 DIV PUSH1 0xFF AND DUP2 JUMP JUMPDEST PUSH1 0x3 SLOAD DUP2 JUMP JUMPDEST PUSH1 0xA PUSH0 CALLER PUSH20 0xFFFFFFFFFFFFFFFFFFFFFFFFFFFFFFFFFFFFFFFF AND PUSH20 0xFFFFFFFFFFFFFFFFFFFFFFFFFFFFFFFFFFFFFFFF AND DUP2 MSTORE PUSH1 0x20 ADD SWAP1 DUP2 MSTORE PUSH1 0x20 ADD PUSH0 KECCAK256 PUSH0 SWAP1 SLOAD SWAP1 PUSH2 0x100 EXP SWAP1 DIV PUSH1 0xFF AND PUSH2 0x6CC JUMPI PUSH1 0x40 MLOAD PUSH32 0x8C379A000000000000000000000000000000000000000000000000000000000 DUP2 MSTORE PUSH1 0x4 ADD PUSH2 0x6C3 SWAP1 PUSH2 0x140F JUMP JUMPDEST PUSH1 0x40 MLOAD DUP1 SWAP2 SUB SWAP1 REVERT JUMPDEST PUSH32 0x99DABED7F6F5ED6344A92AA6D218A2783233053B23AAB6CC21A53BF4C5980F50 CALLER PUSH1 0x8 PUSH0 CALLER PUSH20 0xFFFFFFFFFFFFFFFFFFFFFFFFFFFFFFFFFFFFFFFF AND PUSH20 0xFFFFFFFFFFFFFFFFFFFFFFFFFFFFFFFFFFFFFFFF AND DUP2 MSTORE PUSH1 0x20 ADD SWAP1 DUP2 MSTORE PUSH1 0x20 ADD PUSH0 KECCAK256 PUSH0 SWAP1 SLOAD SWAP1 PUSH2 0x100 EXP SWAP1 DIV PUSH1 0xFF AND ISZERO PUSH1 0x40 MLOAD PUSH2 0x747 SWAP3 SWAP2 SWAP1 PUSH2 0x142D JUMP JUMPDEST PUSH1 0x40 MLOAD DUP1 SWAP2 SUB SWAP1 LOG1 PUSH1 0x8 PUSH0 CALLER PUSH20 0xFFFFFFFFFFFFFFFFFFFFFFFFFFFFFFFFFFFFFFFF AND PUSH20 0xFFFFFFFFFFFFFFFFFFFFFFFFFFFFFFFFFFFFFFFF AND DUP2 MSTORE PUSH1 0x20 ADD SWAP1 DUP2 MSTORE PUSH1 0x20 ADD PUSH0 KECCAK256 PUSH0 SWAP1 SLOAD SWAP1 PUSH2 0x100 EXP SWAP1 DIV PUSH1 0xFF AND PUSH2 0x84C JUMPI PUSH1 0x1 PUSH1 0x8 PUSH0 CALLER PUSH20 0xFFFFFFFFFFFFFFFFFFFFFFFFFFFFFFFFFFFFFFFF AND PUSH20 0xFFFFFFFFFFFFFFFFFFFFFFFFFFFFFFFFFFFFFFFF AND DUP2 MSTORE PUSH1 0x20 ADD SWAP1 DUP2 MSTORE PUSH1 0x20 ADD PUSH0 KECCAK256 PUSH0 PUSH2 0x100 EXP DUP2 SLOAD DUP2 PUSH1 0xFF MUL NOT AND SWAP1 DUP4 ISZERO ISZERO MUL OR SWAP1 SSTORE POP TIMESTAMP PUSH1 0x9 PUSH0 CALLER PUSH20 0xFFFFFFFFFFFFFFFFFFFFFFFFFFFFFFFFFFFFFFFF AND PUSH20 0xFFFFFFFFFFFFFFFFFFFFFFFFFFFFFFFFFFFFFFFF AND DUP2 MSTORE PUSH1 0x20 ADD SWAP1 DUP2 MSTORE PUSH1 0x20 ADD PUSH0 KECCAK256 DUP2 SWAP1 SSTORE POP PUSH1 0x6 PUSH0 DUP2 SLOAD DUP1 SWAP3 SWAP2 SWAP1 PUSH2 0x846 SWAP1 PUSH2 0x12F0 JUMP JUMPDEST SWAP2 SWAP1 POP SSTORE POP JUMPDEST PUSH2 0x854 PUSH2 0xF76 JUMP JUMPDEST PUSH1 0x2 DUP1 DUP2 GT ISZERO PUSH2 0x867 JUMPI PUSH2 0x866 PUSH2 0x1094 JUMP JUMPDEST JUMPDEST PUSH0 DUP1 SLOAD SWAP1 PUSH2 0x100 EXP SWAP1 DIV PUSH1 0xFF AND PUSH1 0x2 DUP2 GT ISZERO PUSH2 0x886 JUMPI PUSH2 0x885 PUSH2 0x1094 JUMP JUMPDEST JUMPDEST SUB PUSH2 0x955 JUMPI PUSH1 0x4 SLOAD PUSH1 0x9 PUSH0 CALLER PUSH20 0xFFFFFFFFFFFFFFFFFFFFFFFFFFFFFFFFFFFFFFFF AND PUSH20 0xFFFFFFFFFFFFFFFFFFFFFFFFFFFFFFFFFFFFFFFF AND DUP2 MSTORE PUSH1 0x20 ADD SWAP1 DUP2 MSTORE PUSH1 0x20 ADD PUSH0 KECCAK256 SLOAD TIMESTAMP PUSH2 0x8D7 SWAP2 SWAP1 PUSH2 0x1454 JUMP JUMPDEST GT ISZERO PUSH2 0x919 JUMPI PUSH32 0x273D510E41FD7354AECC3DD5A1AF735CAE0C081CF7142DA8245E713E3EE4F488 CALLER PUSH1 0x40 MLOAD PUSH2 0x90C SWAP2 SWAP1 PUSH2 0x112F JUMP JUMPDEST PUSH1 0x40 MLOAD DUP1 SWAP2 SUB SWAP1 LOG1 PUSH2 0x9C7 JUMP JUMPDEST PUSH32 0x3F79930BE7ED586C284CB8BA2FEAA12B5BC8B3F6F0788A2C0577C66876C591BF CALLER PUSH1 0x40 MLOAD PUSH2 0x948 SWAP2 SWAP1 PUSH2 0x112F JUMP JUMPDEST PUSH1 0x40 MLOAD DUP1 SWAP2 SUB SWAP1 LOG1 PUSH2 0x9C6 JUMP JUMPDEST PUSH1 0x1 PUSH1 0x2 DUP2 GT ISZERO PUSH2 0x969 JUMPI PUSH2 0x968 PUSH2 0x1094 JUMP JUMPDEST JUMPDEST PUSH0 DUP1 SLOAD SWAP1 PUSH2 0x100 EXP SWAP1 DIV PUSH1 0xFF AND PUSH1 0x2 DUP2 GT ISZERO PUSH2 0x988 JUMPI PUSH2 0x987 PUSH2 0x1094 JUMP JUMPDEST JUMPDEST SUB PUSH2 0x9C5 JUMPI PUSH32 0xAF562694FB399E648B3C3C32D69AF1A74406EAAB624EAFF9802AA97414DFDE33 CALLER PUSH1 0x40 MLOAD PUSH2 0x9BC SWAP2 SWAP1 PUSH2 0x112F JUMP JUMPDEST PUSH1 0x40 MLOAD DUP1 SWAP2 SUB SWAP1 LOG1 JUMPDEST JUMPDEST JUMPDEST JUMP JUMPDEST PUSH0 PUSH1 0x1 SWAP1 SLOAD SWAP1 PUSH2 0x100 EXP SWAP1 DIV PUSH20 0xFFFFFFFFFFFFFFFFFFFFFFFFFFFFFFFFFFFFFFFF AND PUSH20 0xFFFFFFFFFFFFFFFFFFFFFFFFFFFFFFFFFFFFFFFF AND CALLER PUSH20 0xFFFFFFFFFFFFFFFFFFFFFFFFFFFFFFFFFFFFFFFF AND EQ PUSH2 0xA58 JUMPI PUSH1 0x40 MLOAD PUSH32 0x8C379A000000000000000000000000000000000000000000000000000000000 DUP2 MSTORE PUSH1 0x4 ADD PUSH2 0xA4F SWAP1 PUSH2 0x13A7 JUMP JUMPDEST PUSH1 0x40 MLOAD DUP1 SWAP2 SUB SWAP1 REVERT JUMPDEST PUSH0 DUP1 PUSH0 PUSH2 0x100 EXP DUP2 SLOAD DUP2 PUSH1 0xFF MUL NOT AND SWAP1 DUP4 PUSH1 0x2 DUP2 GT ISZERO PUSH2 0xA7B JUMPI PUSH2 0xA7A PUSH2 0x1094 JUMP JUMPDEST JUMPDEST MUL OR SWAP1 SSTORE POP TIMESTAMP PUSH1 0x1 DUP2 SWAP1 SSTORE POP JUMP JUMPDEST PUSH1 0x7 PUSH0 CALLER PUSH20 0xFFFFFFFFFFFFFFFFFFFFFFFFFFFFFFFFFFFFFFFF AND PUSH20 0xFFFFFFFFFFFFFFFFFFFFFFFFFFFFFFFFFFFFFFFF AND DUP2 MSTORE PUSH1 0x20 ADD SWAP1 DUP2 MSTORE PUSH1 0x20 ADD PUSH0 KECCAK256 PUSH0 SWAP1 SLOAD SWAP1 PUSH2 0x100 EXP SWAP1 DIV PUSH1 0xFF AND PUSH2 0xB12 JUMPI PUSH1 0x40 MLOAD PUSH32 0x8C379A000000000000000000000000000000000000000000000000000000000 DUP2 MSTORE PUSH1 0x4 ADD PUSH2 0xB09 SWAP1 PUSH2 0x14F7 JUMP JUMPDEST PUSH1 0x40 MLOAD DUP1 SWAP2 SUB SWAP1 REVERT JUMPDEST PUSH0 PUSH1 0x7 PUSH0 CALLER PUSH20 0xFFFFFFFFFFFFFFFFFFFFFFFFFFFFFFFFFFFFFFFF AND PUSH20 0xFFFFFFFFFFFFFFFFFFFFFFFFFFFFFFFFFFFFFFFF AND DUP2 MSTORE PUSH1 0x20 ADD SWAP1 DUP2 MSTORE PUSH1 0x20 ADD PUSH0 KECCAK256 PUSH0 PUSH2 0x100 EXP DUP2 SLOAD DUP2 PUSH1 0xFF MUL NOT AND SWAP1 DUP4 ISZERO ISZERO MUL OR SWAP1 SSTORE POP PUSH1 0x5 PUSH0 DUP2 SLOAD DUP1 SWAP3 SWAP2 SWAP1 PUSH2 0xB78 SWAP1 PUSH2 0x1515 JUMP JUMPDEST SWAP2 SWAP1 POP SSTORE POP PUSH32 0x2E88CEAE333B5A571097904AED082642C40E10839DD32E2A0753D8008A89E2E1 CALLER PUSH1 0x40 MLOAD PUSH2 0xBAC SWAP2 SWAP1 PUSH2 0x112F JUMP JUMPDEST PUSH1 0x40 MLOAD DUP1 SWAP2 SUB SWAP1 LOG1 JUMP JUMPDEST PUSH1 0xA PUSH0 CALLER PUSH20 0xFFFFFFFFFFFFFFFFFFFFFFFFFFFFFFFFFFFFFFFF AND PUSH20 0xFFFFFFFFFFFFFFFFFFFFFFFFFFFFFFFFFFFFFFFF AND DUP2 MSTORE PUSH1 0x20 ADD SWAP1 DUP2 MSTORE PUSH1 0x20 ADD PUSH0 KECCAK256 PUSH0 SWAP1 SLOAD SWAP1 PUSH2 0x100 EXP SWAP1 DIV PUSH1 0xFF AND PUSH2 0xC3F JUMPI PUSH1 0x40 MLOAD PUSH32 0x8C379A000000000000000000000000000000000000000000000000000000000 DUP2 MSTORE PUSH1 0x4 ADD PUSH2 0xC36 SWAP1 PUSH2 0x140F JUMP JUMPDEST PUSH1 0x40 MLOAD DUP1 SWAP2 SUB SWAP1 REVERT JUMPDEST PUSH1 0x8 PUSH0 CALLER PUSH20 0xFFFFFFFFFFFFFFFFFFFFFFFFFFFFFFFFFFFFFFFF AND PUSH20 0xFFFFFFFFFFFFFFFFFFFFFFFFFFFFFFFFFFFFFFFF AND DUP2 MSTORE PUSH1 0x20 ADD SWAP1 DUP2 MSTORE PUSH1 0x20 ADD PUSH0 KECCAK256 PUSH0 SWAP1 SLOAD SWAP1 PUSH2 0x100 EXP SWAP1 DIV PUSH1 0xFF AND PUSH2 0xCC8 JUMPI PUSH1 0x40 MLOAD PUSH32 0x8C379A000000000000000000000000000000000000000000000000000000000 DUP2 MSTORE PUSH1 0x4 ADD PUSH2 0xCBF SWAP1 PUSH2 0x15AC JUMP JUMPDEST PUSH1 0x40 MLOAD DUP1 SWAP2 SUB SWAP1 REVERT JUMPDEST PUSH0 PUSH1 0x8 PUSH0 CALLER PUSH20 0xFFFFFFFFFFFFFFFFFFFFFFFFFFFFFFFFFFFFFFFF AND PUSH20 0xFFFFFFFFFFFFFFFFFFFFFFFFFFFFFFFFFFFFFFFF AND DUP2 MSTORE PUSH1 0x20 ADD SWAP1 DUP2 MSTORE PUSH1 0x20 ADD PUSH0 KECCAK256 PUSH0 PUSH2 0x100 EXP DUP2 SLOAD DUP2 PUSH1 0xFF MUL NOT AND SWAP1 DUP4 ISZERO ISZERO MUL OR SWAP1 SSTORE POP PUSH1 0x6 PUSH0 DUP2 SLOAD DUP1 SWAP3 SWAP2 SWAP1 PUSH2 0xD2E SWAP1 PUSH2 0x1515 JUMP JUMPDEST SWAP2 SWAP1 POP SSTORE POP PUSH0 PUSH1 0x6 SLOAD SUB PUSH2 0xD65 JUMPI PUSH0 DUP1 PUSH0 PUSH2 0x100 EXP DUP2 SLOAD DUP2 PUSH1 0xFF MUL NOT AND SWAP1 DUP4 PUSH1 0x2 DUP2 GT ISZERO PUSH2 0xD5F JUMPI PUSH2 0xD5E PUSH2 0x1094 JUMP JUMPDEST JUMPDEST MUL OR SWAP1 SSTORE POP JUMPDEST PUSH32 0x3C0EA4A00D4DE0CCC27897A7A04782DE620B5FE6DF6CB5601D2560E3AEE591C4 CALLER PUSH1 0x40 MLOAD PUSH2 0xD94 SWAP2 SWAP1 PUSH2 0x112F JUMP JUMPDEST PUSH1 0x40 MLOAD DUP1 SWAP2 SUB SWAP1 LOG1 JUMP JUMPDEST PUSH0 PUSH1 0x1 SWAP1 SLOAD SWAP1 PUSH2 0x100 EXP SWAP1 DIV PUSH20 0xFFFFFFFFFFFFFFFFFFFFFFFFFFFFFFFFFFFFFFFF AND PUSH20 0xFFFFFFFFFFFFFFFFFFFFFFFFFFFFFFFFFFFFFFFF AND CALLER PUSH20 0xFFFFFFFFFFFFFFFFFFFFFFFFFFFFFFFFFFFFFFFF AND EQ PUSH2 0xE2D JUMPI PUSH1 0x40 MLOAD PUSH32 0x8C379A000000000000000000000000000000000000000000000000000000000 DUP2 MSTORE PUSH1 0x4 ADD PUSH2 0xE24 SWAP1 PUSH2 0x13A7 JUMP JUMPDEST PUSH1 0x40 MLOAD DUP1 SWAP2 SUB SWAP1 REVERT JUMPDEST PUSH1 0x1 PUSH1 0xA PUSH0 DUP4 PUSH20 0xFFFFFFFFFFFFFFFFFFFFFFFFFFFFFFFFFFFFFFFF AND PUSH20 0xFFFFFFFFFFFFFFFFFFFFFFFFFFFFFFFFFFFFFFFF AND DUP2 MSTORE PUSH1 0x20 ADD SWAP1 DUP2 MSTORE PUSH1 0x20 ADD PUSH0 KECCAK256 PUSH0 PUSH2 0x100 EXP DUP2 SLOAD DUP2 PUSH1 0xFF MUL NOT AND SWAP1 DUP4 ISZERO ISZERO MUL OR SWAP1 SSTORE POP POP JUMP JUMPDEST PUSH0 PUSH1 0x1 SWAP1 SLOAD SWAP1 PUSH2 0x100 EXP SWAP1 DIV PUSH20 0xFFFFFFFFFFFFFFFFFFFFFFFFFFFFFFFFFFFFFFFF AND DUP2 JUMP JUMPDEST PUSH1 0x8 PUSH1 0x20 MSTORE DUP1 PUSH0 MSTORE PUSH1 0x40 PUSH0 KECCAK256 PUSH0 SWAP2 POP SLOAD SWAP1 PUSH2 0x100 EXP SWAP1 DIV PUSH1 0xFF AND DUP2 JUMP JUMPDEST PUSH1 0x7 PUSH1 0x20 MSTORE DUP1 PUSH0 MSTORE PUSH1 0x40 PUSH0 KECCAK256 PUSH0 SWAP2 POP SLOAD SWAP1 PUSH2 0x100 EXP SWAP1 DIV PUSH1 0xFF AND DUP2 JUMP JUMPDEST PUSH1 0x1 SLOAD DUP2 JUMP JUMPDEST PUSH1 0x5 SLOAD DUP2 JUMP JUMPDEST PUSH1 0x2 SLOAD DUP2 JUMP JUMPDEST PUSH1 0xA PUSH1 0x20 MSTORE DUP1 PUSH0 MSTORE PUSH1 0x40 PUSH0 KECCAK256 PUSH0 SWAP2 POP SLOAD SWAP1 PUSH2 0x100 EXP SWAP1 DIV PUSH1 0xFF AND DUP2 JUMP JUMPDEST PUSH1 0x6 SLOAD DUP2 JUMP JUMPDEST PUSH1 0x2 SLOAD PUSH1 0x1 SLOAD TIMESTAMP PUSH2 0xF2A SWAP2 SWAP1 PUSH2 0x1454 JUMP JUMPDEST GT DUP1 ISZERO PUSH2 0xF66 JUMPI POP PUSH0 PUSH1 0x2 DUP2 GT ISZERO PUSH2 0xF45 JUMPI PUSH2 0xF44 PUSH2 0x1094 JUMP JUMPDEST JUMPDEST PUSH0 DUP1 SLOAD SWAP1 PUSH2 0x100 EXP SWAP1 DIV PUSH1 0xFF AND PUSH1 0x2 DUP2 GT ISZERO PUSH2 0xF64 JUMPI PUSH2 0xF63 PUSH2 0x1094 JUMP JUMPDEST JUMPDEST EQ JUMPDEST ISZERO PUSH2 0xF74 JUMPI PUSH2 0xF73 PUSH2 0xF76 JUMP JUMPDEST JUMPDEST JUMP JUMPDEST PUSH0 PUSH1 0x5 SLOAD GT ISZERO PUSH2 0xFAE JUMPI PUSH1 0x2 PUSH0 DUP1 PUSH2 0x100 EXP DUP2 SLOAD DUP2 PUSH1 0xFF MUL NOT AND SWAP1 DUP4 PUSH1 0x2 DUP2 GT ISZERO PUSH2 0xFA4 JUMPI PUSH2 0xFA3 PUSH2 0x1094 JUMP JUMPDEST JUMPDEST MUL OR SWAP1 SSTORE POP PUSH2 0xFD8 JUMP JUMPDEST PUSH1 0x1 PUSH0 DUP1 PUSH2 0x100 EXP DUP2 SLOAD DUP2 PUSH1 0xFF MUL NOT AND SWAP1 DUP4 PUSH1 0x2 DUP2 GT ISZERO PUSH2 0xFD2 JUMPI PUSH2 0xFD1 PUSH2 0x1094 JUMP JUMPDEST JUMPDEST MUL OR SWAP1 SSTORE POP JUMPDEST JUMP JUMPDEST PUSH0 DUP1 REVERT JUMPDEST PUSH0 PUSH20 0xFFFFFFFFFFFFFFFFFFFFFFFFFFFFFFFFFFFFFFFF DUP3 AND SWAP1 POP SWAP2 SWAP1 POP JUMP JUMPDEST PUSH0 PUSH2 0x1007 DUP3 PUSH2 0xFDE JUMP JUMPDEST SWAP1 POP SWAP2 SWAP1 POP JUMP JUMPDEST PUSH2 0x1017 DUP2 PUSH2 0xFFD JUMP JUMPDEST DUP2 EQ PUSH2 0x1021 JUMPI PUSH0 DUP1 REVERT JUMPDEST POP JUMP JUMPDEST PUSH0 DUP2 CALLDATALOAD SWAP1 POP PUSH2 0x1032 DUP2 PUSH2 0x100E JUMP JUMPDEST SWAP3 SWAP2 POP POP JUMP JUMPDEST PUSH0 PUSH1 0x20 DUP3 DUP5 SUB SLT ISZERO PUSH2 0x104D JUMPI PUSH2 0x104C PUSH2 0xFDA JUMP JUMPDEST JUMPDEST PUSH0 PUSH2 0x105A DUP5 DUP3 DUP6 ADD PUSH2 0x1024 JUMP JUMPDEST SWAP2 POP POP SWAP3 SWAP2 POP POP JUMP JUMPDEST PUSH0 DUP2 SWAP1 POP SWAP2 SWAP1 POP JUMP JUMPDEST PUSH2 0x1075 DUP2 PUSH2 0x1063 JUMP JUMPDEST DUP3 MSTORE POP POP JUMP JUMPDEST PUSH0 PUSH1 0x20 DUP3 ADD SWAP1 POP PUSH2 0x108E PUSH0 DUP4 ADD DUP5 PUSH2 0x106C JUMP JUMPDEST SWAP3 SWAP2 POP POP JUMP JUMPDEST PUSH32 0x4E487B7100000000000000000000000000000000000000000000000000000000 PUSH0 MSTORE PUSH1 0x21 PUSH1 0x4 MSTORE PUSH1 0x24 PUSH0 REVERT JUMPDEST PUSH1 0x3 DUP2 LT PUSH2 0x10D2 JUMPI PUSH2 0x10D1 PUSH2 0x1094 JUMP JUMPDEST JUMPDEST POP JUMP JUMPDEST PUSH0 DUP2 SWAP1 POP PUSH2 0x10E2 DUP3 PUSH2 0x10C1 JUMP JUMPDEST SWAP2 SWAP1 POP JUMP JUMPDEST PUSH0 PUSH2 0x10F1 DUP3 PUSH2 0x10D5 JUMP JUMPDEST SWAP1 POP SWAP2 SWAP1 POP JUMP JUMPDEST PUSH2 0x1101 DUP2 PUSH2 0x10E7 JUMP JUMPDEST DUP3 MSTORE POP POP JUMP JUMPDEST PUSH0 PUSH1 0x20 DUP3 ADD SWAP1 POP PUSH2 0x111A PUSH0 DUP4 ADD DUP5 PUSH2 0x10F8 JUMP JUMPDEST SWAP3 SWAP2 POP POP JUMP JUMPDEST PUSH2 0x1129 DUP2 PUSH2 0xFFD JUMP JUMPDEST DUP3 MSTORE POP POP JUMP JUMPDEST PUSH0 PUSH1 0x20 DUP3 ADD SWAP1 POP PUSH2 0x1142 PUSH0 DUP4 ADD DUP5 PUSH2 0x1120 JUMP JUMPDEST SWAP3 SWAP2 POP POP JUMP JUMPDEST PUSH0 DUP2 ISZERO ISZERO SWAP1 POP SWAP2 SWAP1 POP JUMP JUMPDEST PUSH2 0x115C DUP2 PUSH2 0x1148 JUMP JUMPDEST DUP3 MSTORE POP POP JUMP JUMPDEST PUSH0 PUSH1 0x20 DUP3 ADD SWAP1 POP PUSH2 0x1175 PUSH0 DUP4 ADD DUP5 PUSH2 0x1153 JUMP JUMPDEST SWAP3 SWAP2 POP POP JUMP JUMPDEST PUSH0 DUP3 DUP3 MSTORE PUSH1 0x20 DUP3 ADD SWAP1 POP SWAP3 SWAP2 POP POP JUMP JUMPDEST PUSH32 0x43726F7373696E67206973206E6F74206672656520746F2063726F73732E0000 PUSH0 DUP3 ADD MSTORE POP JUMP JUMPDEST PUSH0 PUSH2 0x11BF PUSH1 0x1E DUP4 PUSH2 0x117B JUMP JUMPDEST SWAP2 POP PUSH2 0x11CA DUP3 PUSH2 0x118B JUMP JUMPDEST PUSH1 0x20 DUP3 ADD SWAP1 POP SWAP2 SWAP1 POP JUMP JUMPDEST PUSH0 PUSH1 0x20 DUP3 ADD SWAP1 POP DUP2 DUP2 SUB PUSH0 DUP4 ADD MSTORE PUSH2 0x11EC DUP2 PUSH2 0x11B3 JUMP JUMPDEST SWAP1 POP SWAP2 SWAP1 POP JUMP JUMPDEST PUSH32 0x43726F7373696E672069732066756C6C2E000000000000000000000000000000 PUSH0 DUP3 ADD MSTORE POP JUMP JUMPDEST PUSH0 PUSH2 0x1227 PUSH1 0x11 DUP4 PUSH2 0x117B JUMP JUMPDEST SWAP2 POP PUSH2 0x1232 DUP3 PUSH2 0x11F3 JUMP JUMPDEST PUSH1 0x20 DUP3 ADD SWAP1 POP SWAP2 SWAP1 POP JUMP JUMPDEST PUSH0 PUSH1 0x20 DUP3 ADD SWAP1 POP DUP2 DUP2 SUB PUSH0 DUP4 ADD MSTORE PUSH2 0x1254 DUP2 PUSH2 0x121B JUMP JUMPDEST SWAP1 POP SWAP2 SWAP1 POP JUMP JUMPDEST PUSH32 0x416C72656164792063726F7373696E6700000000000000000000000000000000 PUSH0 DUP3 ADD MSTORE POP JUMP JUMPDEST PUSH0 PUSH2 0x128F PUSH1 0x10 DUP4 PUSH2 0x117B JUMP JUMPDEST SWAP2 POP PUSH2 0x129A DUP3 PUSH2 0x125B JUMP JUMPDEST PUSH1 0x20 DUP3 ADD SWAP1 POP SWAP2 SWAP1 POP JUMP JUMPDEST PUSH0 PUSH1 0x20 DUP3 ADD SWAP1 POP DUP2 DUP2 SUB PUSH0 DUP4 ADD MSTORE PUSH2 0x12BC DUP2 PUSH2 0x1283 JUMP JUMPDEST SWAP1 POP SWAP2 SWAP1 POP JUMP JUMPDEST PUSH32 0x4E487B7100000000000000000000000000000000000000000000000000000000 PUSH0 MSTORE PUSH1 0x11 PUSH1 0x4 MSTORE PUSH1 0x24 PUSH0 REVERT JUMPDEST PUSH0 PUSH2 0x12FA DUP3 PUSH2 0x1063 JUMP JUMPDEST SWAP2 POP PUSH32 0xFFFFFFFFFFFFFFFFFFFFFFFFFFFFFFFFFFFFFFFFFFFFFFFFFFFFFFFFFFFFFFFF DUP3 SUB PUSH2 0x132C JUMPI PUSH2 0x132B PUSH2 0x12C3 JUMP JUMPDEST JUMPDEST PUSH1 0x1 DUP3 ADD SWAP1 POP SWAP2 SWAP1 POP JUMP JUMPDEST PUSH32 0x4F6E6C7920696E6672617374727563747572652063616E2063616C6C20746869 PUSH0 DUP3 ADD MSTORE PUSH32 0x732066756E6374696F6E2E000000000000000000000000000000000000000000 PUSH1 0x20 DUP3 ADD MSTORE POP JUMP JUMPDEST PUSH0 PUSH2 0x1391 PUSH1 0x2B DUP4 PUSH2 0x117B JUMP JUMPDEST SWAP2 POP PUSH2 0x139C DUP3 PUSH2 0x1337 JUMP JUMPDEST PUSH1 0x40 DUP3 ADD SWAP1 POP SWAP2 SWAP1 POP JUMP JUMPDEST PUSH0 PUSH1 0x20 DUP3 ADD SWAP1 POP DUP2 DUP2 SUB PUSH0 DUP4 ADD MSTORE PUSH2 0x13BE DUP2 PUSH2 0x1385 JUMP JUMPDEST SWAP1 POP SWAP2 SWAP1 POP JUMP JUMPDEST PUSH32 0x4E6F7420617574686F72697A656420747261696E2E0000000000000000000000 PUSH0 DUP3 ADD MSTORE POP JUMP JUMPDEST PUSH0 PUSH2 0x13F9 PUSH1 0x15 DUP4 PUSH2 0x117B JUMP JUMPDEST SWAP2 POP PUSH2 0x1404 DUP3 PUSH2 0x13C5 JUMP JUMPDEST PUSH1 0x20 DUP3 ADD SWAP1 POP SWAP2 SWAP1 POP JUMP JUMPDEST PUSH0 PUSH1 0x20 DUP3 ADD SWAP1 POP DUP2 DUP2 SUB PUSH0 DUP4 ADD MSTORE PUSH2 0x1426 DUP2 PUSH2 0x13ED JUMP JUMPDEST SWAP1 POP SWAP2 SWAP1 POP JUMP JUMPDEST PUSH0 PUSH1 0x40 DUP3 ADD SWAP1 POP PUSH2 0x1440 PUSH0 DUP4 ADD DUP6 PUSH2 0x1120 JUMP JUMPDEST PUSH2 0x144D PUSH1 0x20 DUP4 ADD DUP5 PUSH2 0x1153 JUMP JUMPDEST SWAP4 SWAP3 POP POP POP JUMP JUMPDEST PUSH0 PUSH2 0x145E DUP3 PUSH2 0x1063 JUMP JUMPDEST SWAP2 POP PUSH2 0x1469 DUP4 PUSH2 0x1063 JUMP JUMPDEST SWAP3 POP DUP3 DUP3 SUB SWAP1 POP DUP2 DUP2 GT ISZERO PUSH2 0x1481 JUMPI PUSH2 0x1480 PUSH2 0x12C3 JUMP JUMPDEST JUMPDEST SWAP3 SWAP2 POP POP JUMP JUMPDEST PUSH32 0x56656869636C6520686173206E6F7420726571756573746564207065726D6973 PUSH0 DUP3 ADD MSTORE PUSH32 0x73696F6E00000000000000000000000000000000000000000000000000000000 PUSH1 0x20 DUP3 ADD MSTORE POP JUMP JUMPDEST PUSH0 PUSH2 0x14E1 PUSH1 0x24 DUP4 PUSH2 0x117B JUMP JUMPDEST SWAP2 POP PUSH2 0x14EC DUP3 PUSH2 0x1487 JUMP JUMPDEST PUSH1 0x40 DUP3 ADD SWAP1 POP SWAP2 SWAP1 POP JUMP JUMPDEST PUSH0 PUSH1 0x20 DUP3 ADD SWAP1 POP DUP2 DUP2 SUB PUSH0 DUP4 ADD MSTORE PUSH2 0x150E DUP2 PUSH2 0x14D5 JUMP JUMPDEST SWAP1 POP SWAP2 SWAP1 POP JUMP JUMPDEST PUSH0 PUSH2 0x151F DUP3 PUSH2 0x1063 JUMP JUMPDEST SWAP2 POP PUSH0 DUP3 SUB PUSH2 0x1531 JUMPI PUSH2 0x1530 PUSH2 0x12C3 JUMP JUMPDEST JUMPDEST PUSH1 0x1 DUP3 SUB SWAP1 POP SWAP2 SWAP1 POP JUMP JUMPDEST PUSH32 0x596F7520646F6E27742068617665207065726D697373696F6E20746F2072656C PUSH0 DUP3 ADD MSTORE PUSH32 0x656173652E000000000000000000000000000000000000000000000000000000 PUSH1 0x20 DUP3 ADD MSTORE POP JUMP JUMPDEST PUSH0 PUSH2 0x1596 PUSH1 0x25 DUP4 PUSH2 0x117B JUMP JUMPDEST SWAP2 POP PUSH2 0x15A1 DUP3 PUSH2 0x153C JUMP JUMPDEST PUSH1 0x40 DUP3 ADD SWAP1 POP SWAP2 SWAP1 POP JUMP JUMPDEST PUSH0 PUSH1 0x20 DUP3 ADD SWAP1 POP DUP2 DUP2 SUB PUSH0 DUP4 ADD MSTORE PUSH2 0x15C3 DUP2 PUSH2 0x158A JUMP JUMPDEST SWAP1 POP SWAP2 SWAP1 POP JUMP INVALID LOG2 PUSH5 0x6970667358 0x22 SLT KECCAK256 JUMPDEST DIV EXP 0xBF 0x4F 0xF8 0xCC 0x26 0xDC 0xA5 COINBASE PUSH11 0x159D1D2BF266C40A2E50BD PUSH19 0x888A936614E0E32164736F6C63430008160033 "
				},
				"gasEstimates": {
					"creation": {
						"codeDepositCost": "1126400",
						"executionCost": "infinite",
						"totalCost": "infinite"
					},
					"external": {
						"authorizeTrain(address)": "27067",
						"authorizedTrains(address)": "2921",
						"crossingState()": "2574",
						"crossingValidity()": "2491",
						"crossingVehicles(address)": "2944",
						"currentCrossingCarNumber()": "2469",
						"deauthorizeTrain(address)": "27067",
						"infrastructure()": "2625",
						"lastUpdate()": "2447",
						"maxCarsPerLane()": "2470",
						"preLockedTime()": "2515",
						"releaseCarPermission()": "52433",
						"releaseTrainCrossing()": "80991",
						"requestCarPermission()": "infinite",
						"requestTrainCrossing()": "infinite",
						"trainCrossingRequestNumber()": "2535",
						"trainCrossingRequests(address)": "2922",
						"trainRequestTimes(address)": "2870",
						"updateFreeToCrossState()": "48849"
					},
					"internal": {
						"checkFreeToCrossTimer()": "infinite",
						"lockCrossing()": "26431"
					}
				},
				"methodIdentifiers": {
					"authorizeTrain(address)": "8d46e930",
					"authorizedTrains(address)": "ec9aaec8",
					"crossingState()": "40ef3a69",
					"crossingValidity()": "e4fa8da9",
					"crossingVehicles(address)": "baa12859",
					"currentCrossingCarNumber()": "cee321d6",
					"deauthorizeTrain(address)": "312d6a81",
					"infrastructure()": "9bd565d6",
					"lastUpdate()": "c0463711",
					"maxCarsPerLane()": "6bab9804",
					"preLockedTime()": "3ed6ba3d",
					"releaseCarPermission()": "80db9e50",
					"releaseTrainCrossing()": "826b1d68",
					"requestCarPermission()": "064527ca",
					"requestTrainCrossing()": "6fcc55fc",
					"trainCrossingRequestNumber()": "fae68b4d",
					"trainCrossingRequests(address)": "a21c30de",
					"trainRequestTimes(address)": "3c3244ab",
					"updateFreeToCrossState()": "74e18625"
				}
			},
			"storageLayout": {
				"storage": [
					{
						"astId": 8,
						"contract": "contracts/Crossing.sol:TrainCrossing",
						"label": "crossingState",
						"offset": 0,
						"slot": "0",
						"type": "t_enum(CrossingState)5"
					},
					{
						"astId": 10,
						"contract": "contracts/Crossing.sol:TrainCrossing",
						"label": "infrastructure",
						"offset": 1,
						"slot": "0",
						"type": "t_address"
					},
					{
						"astId": 12,
						"contract": "contracts/Crossing.sol:TrainCrossing",
						"label": "lastUpdate",
						"offset": 0,
						"slot": "1",
						"type": "t_uint256"
					},
					{
						"astId": 14,
						"contract": "contracts/Crossing.sol:TrainCrossing",
						"label": "crossingValidity",
						"offset": 0,
						"slot": "2",
						"type": "t_uint256"
					},
					{
						"astId": 16,
						"contract": "contracts/Crossing.sol:TrainCrossing",
						"label": "maxCarsPerLane",
						"offset": 0,
						"slot": "3",
						"type": "t_uint256"
					},
					{
						"astId": 18,
						"contract": "contracts/Crossing.sol:TrainCrossing",
						"label": "preLockedTime",
						"offset": 0,
						"slot": "4",
						"type": "t_uint256"
					},
					{
						"astId": 20,
						"contract": "contracts/Crossing.sol:TrainCrossing",
						"label": "currentCrossingCarNumber",
						"offset": 0,
						"slot": "5",
						"type": "t_uint256"
					},
					{
						"astId": 22,
						"contract": "contracts/Crossing.sol:TrainCrossing",
						"label": "trainCrossingRequestNumber",
						"offset": 0,
						"slot": "6",
						"type": "t_uint256"
					},
					{
						"astId": 26,
						"contract": "contracts/Crossing.sol:TrainCrossing",
						"label": "crossingVehicles",
						"offset": 0,
						"slot": "7",
						"type": "t_mapping(t_address,t_bool)"
					},
					{
						"astId": 30,
						"contract": "contracts/Crossing.sol:TrainCrossing",
						"label": "trainCrossingRequests",
						"offset": 0,
						"slot": "8",
						"type": "t_mapping(t_address,t_bool)"
					},
					{
						"astId": 34,
						"contract": "contracts/Crossing.sol:TrainCrossing",
						"label": "trainRequestTimes",
						"offset": 0,
						"slot": "9",
						"type": "t_mapping(t_address,t_uint256)"
					},
					{
						"astId": 38,
						"contract": "contracts/Crossing.sol:TrainCrossing",
						"label": "authorizedTrains",
						"offset": 0,
						"slot": "10",
						"type": "t_mapping(t_address,t_bool)"
					}
				],
				"types": {
					"t_address": {
						"encoding": "inplace",
						"label": "address",
						"numberOfBytes": "20"
					},
					"t_bool": {
						"encoding": "inplace",
						"label": "bool",
						"numberOfBytes": "1"
					},
					"t_enum(CrossingState)5": {
						"encoding": "inplace",
						"label": "enum TrainCrossing.CrossingState",
						"numberOfBytes": "1"
					},
					"t_mapping(t_address,t_bool)": {
						"encoding": "mapping",
						"key": "t_address",
						"label": "mapping(address => bool)",
						"numberOfBytes": "32",
						"value": "t_bool"
					},
					"t_mapping(t_address,t_uint256)": {
						"encoding": "mapping",
						"key": "t_address",
						"label": "mapping(address => uint256)",
						"numberOfBytes": "32",
						"value": "t_uint256"
					},
					"t_uint256": {
						"encoding": "inplace",
						"label": "uint256",
						"numberOfBytes": "32"
					}
				}
			},
			"userdoc": {
				"kind": "user",
				"methods": {},
				"version": 1
			}
		}
	}
}