{
	"contracts/Crossing.sol": {
		"TrainCrossing": {
			"abi": [
				{
					"inputs": [
						{
							"internalType": "uint256",
							"name": "_crossingValidity",
							"type": "uint256"
						},
						{
							"internalType": "uint256",
							"name": "_maxCarsPerLane",
							"type": "uint256"
						},
						{
							"internalType": "uint256",
							"name": "_preLockedTime",
							"type": "uint256"
						}
					],
					"stateMutability": "nonpayable",
					"type": "constructor"
				},
				{
					"anonymous": false,
					"inputs": [
						{
							"indexed": false,
							"internalType": "address",
							"name": "requester",
							"type": "address"
						}
					],
					"name": "CarCrossingPermissionGranted",
					"type": "event"
				},
				{
					"anonymous": false,
					"inputs": [
						{
							"indexed": false,
							"internalType": "address",
							"name": "requester",
							"type": "address"
						}
					],
					"name": "CarCrossingPermissionReleased",
					"type": "event"
				},
				{
					"anonymous": false,
					"inputs": [
						{
							"indexed": false,
							"internalType": "address",
							"name": "requester",
							"type": "address"
						}
					],
					"name": "StopTrain",
					"type": "event"
				},
				{
					"anonymous": false,
					"inputs": [
						{
							"indexed": false,
							"internalType": "address",
							"name": "requester",
							"type": "address"
						}
					],
					"name": "TrainCrossingPermissionGranted",
					"type": "event"
				},
				{
					"anonymous": false,
					"inputs": [
						{
							"indexed": false,
							"internalType": "address",
							"name": "requester",
							"type": "address"
						}
					],
					"name": "TrainCrossingPermissionReleased",
					"type": "event"
				},
				{
					"anonymous": false,
					"inputs": [
						{
							"indexed": false,
							"internalType": "address",
							"name": "requester",
							"type": "address"
						},
						{
							"indexed": false,
							"internalType": "bool",
							"name": "first",
							"type": "bool"
						}
					],
					"name": "TrainCrossingRequest",
					"type": "event"
				},
				{
					"anonymous": false,
					"inputs": [
						{
							"indexed": false,
							"internalType": "address",
							"name": "requester",
							"type": "address"
						}
					],
					"name": "TrainCrossingWaitingForRetry",
					"type": "event"
				},
				{
					"inputs": [],
					"name": "crossingState",
					"outputs": [
						{
							"internalType": "enum TrainCrossing.CrossingState",
							"name": "",
							"type": "uint8"
						}
					],
					"stateMutability": "view",
					"type": "function"
				},
				{
					"inputs": [],
					"name": "crossingValidity",
					"outputs": [
						{
							"internalType": "uint256",
							"name": "",
							"type": "uint256"
						}
					],
					"stateMutability": "view",
					"type": "function"
				},
				{
					"inputs": [
						{
							"internalType": "address",
							"name": "",
							"type": "address"
						}
					],
					"name": "crossingVehicles",
					"outputs": [
						{
							"internalType": "bool",
							"name": "",
							"type": "bool"
						}
					],
					"stateMutability": "view",
					"type": "function"
				},
				{
					"inputs": [],
					"name": "currentCrossingCarNumber",
					"outputs": [
						{
							"internalType": "uint256",
							"name": "",
							"type": "uint256"
						}
					],
					"stateMutability": "view",
					"type": "function"
				},
				{
					"inputs": [],
					"name": "infrastructure",
					"outputs": [
						{
							"internalType": "address",
							"name": "",
							"type": "address"
						}
					],
					"stateMutability": "view",
					"type": "function"
				},
				{
					"inputs": [],
					"name": "lastUpdate",
					"outputs": [
						{
							"internalType": "uint256",
							"name": "",
							"type": "uint256"
						}
					],
					"stateMutability": "view",
					"type": "function"
				},
				{
					"inputs": [],
					"name": "maxCarsPerLane",
					"outputs": [
						{
							"internalType": "uint256",
							"name": "",
							"type": "uint256"
						}
					],
					"stateMutability": "view",
					"type": "function"
				},
				{
					"inputs": [],
					"name": "preLockedTime",
					"outputs": [
						{
							"internalType": "uint256",
							"name": "",
							"type": "uint256"
						}
					],
					"stateMutability": "view",
					"type": "function"
				},
				{
					"inputs": [],
					"name": "releasePermission",
					"outputs": [],
					"stateMutability": "nonpayable",
					"type": "function"
				},
				{
					"inputs": [],
					"name": "requestPermission",
					"outputs": [],
					"stateMutability": "nonpayable",
					"type": "function"
				},
				{
					"inputs": [],
					"name": "trainCrossingRequestNumber",
					"outputs": [
						{
							"internalType": "uint256",
							"name": "",
							"type": "uint256"
						}
					],
					"stateMutability": "view",
					"type": "function"
				},
				{
					"inputs": [
						{
							"internalType": "address",
							"name": "",
							"type": "address"
						}
					],
					"name": "trainCrossingRequests",
					"outputs": [
						{
							"internalType": "bool",
							"name": "",
							"type": "bool"
						}
					],
					"stateMutability": "view",
					"type": "function"
				},
				{
					"inputs": [],
					"name": "trainReleaseCrossing",
					"outputs": [],
					"stateMutability": "nonpayable",
					"type": "function"
				},
				{
					"inputs": [],
					"name": "trainRequestCrossing",
					"outputs": [],
					"stateMutability": "nonpayable",
					"type": "function"
				},
				{
					"inputs": [
						{
							"internalType": "address",
							"name": "",
							"type": "address"
						}
					],
					"name": "trainRequestTimes",
					"outputs": [
						{
							"internalType": "uint256",
							"name": "",
							"type": "uint256"
						}
					],
					"stateMutability": "view",
					"type": "function"
				},
				{
					"inputs": [],
					"name": "updateFreeToCrossState",
					"outputs": [],
					"stateMutability": "nonpayable",
					"type": "function"
				}
			],
			"devdoc": {
				"kind": "dev",
				"methods": {},
				"version": 1
			},
			"evm": {
				"assembly": "    /* \"contracts/Crossing.sol\":27:4532  contract TrainCrossing {... */\n  mstore(0x40, 0x80)\n    /* \"contracts/Crossing.sol\":1647:2069  constructor(uint _crossingValidity, uint _maxCarsPerLane, uint _preLockedTime) {... */\n  callvalue\n  dup1\n  iszero\n  tag_1\n  jumpi\n  0x00\n  dup1\n  revert\ntag_1:\n  pop\n  mload(0x40)\n  sub(codesize, bytecodeSize)\n  dup1\n  bytecodeSize\n  dup4\n  codecopy\n  dup2\n  dup2\n  add\n  0x40\n  mstore\n  dup2\n  add\n  swap1\n  tag_2\n  swap2\n  swap1\n  tag_3\n  jump\t// in\ntag_2:\n    /* \"contracts/Crossing.sol\":1754:1764  msg.sender */\n  caller\n    /* \"contracts/Crossing.sol\":1737:1751  infrastructure */\n  0x00\n  0x01\n    /* \"contracts/Crossing.sol\":1737:1764  infrastructure = msg.sender */\n  0x0100\n  exp\n  dup2\n  sload\n  dup2\n  0xffffffffffffffffffffffffffffffffffffffff\n  mul\n  not\n  and\n  swap1\n  dup4\n  0xffffffffffffffffffffffffffffffffffffffff\n  and\n  mul\n  or\n  swap1\n  sstore\n  pop\n    /* \"contracts/Crossing.sol\":1794:1811  _crossingValidity */\n  dup3\n    /* \"contracts/Crossing.sol\":1775:1791  crossingValidity */\n  0x02\n    /* \"contracts/Crossing.sol\":1775:1811  crossingValidity = _crossingValidity */\n  dup2\n  swap1\n  sstore\n  pop\n    /* \"contracts/Crossing.sol\":1839:1854  _maxCarsPerLane */\n  dup2\n    /* \"contracts/Crossing.sol\":1822:1836  maxCarsPerLane */\n  0x03\n    /* \"contracts/Crossing.sol\":1822:1854  maxCarsPerLane = _maxCarsPerLane */\n  dup2\n  swap1\n  sstore\n  pop\n    /* \"contracts/Crossing.sol\":1881:1895  _preLockedTime */\n  dup1\n    /* \"contracts/Crossing.sol\":1865:1878  preLockedTime */\n  0x04\n    /* \"contracts/Crossing.sol\":1865:1895  preLockedTime = _preLockedTime */\n  dup2\n  swap1\n  sstore\n  pop\n    /* \"contracts/Crossing.sol\":1922:1942  CrossingState.LOCKED */\n  0x01\n    /* \"contracts/Crossing.sol\":1906:1919  crossingState */\n  0x00\n  dup1\n    /* \"contracts/Crossing.sol\":1906:1942  crossingState = CrossingState.LOCKED */\n  0x0100\n  exp\n  dup2\n  sload\n  dup2\n  0xff\n  mul\n  not\n  and\n  swap1\n  dup4\n  0x02\n  dup2\n  gt\n  iszero\n  tag_6\n  jumpi\n  tag_7\n  tag_8\n  jump\t// in\ntag_7:\ntag_6:\n  mul\n  or\n  swap1\n  sstore\n  pop\n    /* \"contracts/Crossing.sol\":1980:1981  0 */\n  0x00\n    /* \"contracts/Crossing.sol\":1953:1977  currentCrossingCarNumber */\n  0x05\n    /* \"contracts/Crossing.sol\":1953:1981  currentCrossingCarNumber = 0 */\n  dup2\n  swap1\n  sstore\n  pop\n    /* \"contracts/Crossing.sol\":2021:2022  0 */\n  0x00\n    /* \"contracts/Crossing.sol\":1992:2018  trainCrossingRequestNumber */\n  0x06\n    /* \"contracts/Crossing.sol\":1992:2022  trainCrossingRequestNumber = 0 */\n  dup2\n  swap1\n  sstore\n  pop\n    /* \"contracts/Crossing.sol\":2046:2061  block.timestamp */\n  timestamp\n    /* \"contracts/Crossing.sol\":2033:2043  lastUpdate */\n  0x01\n    /* \"contracts/Crossing.sol\":2033:2061  lastUpdate = block.timestamp */\n  dup2\n  swap1\n  sstore\n  pop\n    /* \"contracts/Crossing.sol\":1647:2069  constructor(uint _crossingValidity, uint _maxCarsPerLane, uint _preLockedTime) {... */\n  pop\n  pop\n  pop\n    /* \"contracts/Crossing.sol\":27:4532  contract TrainCrossing {... */\n  jump(tag_9)\n    /* \"#utility.yul\":88:205   */\ntag_11:\n    /* \"#utility.yul\":197:198   */\n  0x00\n    /* \"#utility.yul\":194:195   */\n  dup1\n    /* \"#utility.yul\":187:199   */\n  revert\n    /* \"#utility.yul\":334:411   */\ntag_13:\n    /* \"#utility.yul\":371:378   */\n  0x00\n    /* \"#utility.yul\":400:405   */\n  dup2\n    /* \"#utility.yul\":389:405   */\n  swap1\n  pop\n    /* \"#utility.yul\":334:411   */\n  swap2\n  swap1\n  pop\n  jump\t// out\n    /* \"#utility.yul\":417:539   */\ntag_14:\n    /* \"#utility.yul\":490:514   */\n  tag_22\n    /* \"#utility.yul\":508:513   */\n  dup2\n    /* \"#utility.yul\":490:514   */\n  tag_13\n  jump\t// in\ntag_22:\n    /* \"#utility.yul\":483:488   */\n  dup2\n    /* \"#utility.yul\":480:515   */\n  eq\n    /* \"#utility.yul\":470:533   */\n  tag_23\n  jumpi\n    /* \"#utility.yul\":529:530   */\n  0x00\n    /* \"#utility.yul\":526:527   */\n  dup1\n    /* \"#utility.yul\":519:531   */\n  revert\n    /* \"#utility.yul\":470:533   */\ntag_23:\n    /* \"#utility.yul\":417:539   */\n  pop\n  jump\t// out\n    /* \"#utility.yul\":545:688   */\ntag_15:\n    /* \"#utility.yul\":602:607   */\n  0x00\n    /* \"#utility.yul\":633:639   */\n  dup2\n    /* \"#utility.yul\":627:640   */\n  mload\n    /* \"#utility.yul\":618:640   */\n  swap1\n  pop\n    /* \"#utility.yul\":649:682   */\n  tag_25\n    /* \"#utility.yul\":676:681   */\n  dup2\n    /* \"#utility.yul\":649:682   */\n  tag_14\n  jump\t// in\ntag_25:\n    /* \"#utility.yul\":545:688   */\n  swap3\n  swap2\n  pop\n  pop\n  jump\t// out\n    /* \"#utility.yul\":694:1357   */\ntag_3:\n    /* \"#utility.yul\":782:788   */\n  0x00\n    /* \"#utility.yul\":790:796   */\n  dup1\n    /* \"#utility.yul\":798:804   */\n  0x00\n    /* \"#utility.yul\":847:849   */\n  0x60\n    /* \"#utility.yul\":835:844   */\n  dup5\n    /* \"#utility.yul\":826:833   */\n  dup7\n    /* \"#utility.yul\":822:845   */\n  sub\n    /* \"#utility.yul\":818:850   */\n  slt\n    /* \"#utility.yul\":815:934   */\n  iszero\n  tag_27\n  jumpi\n    /* \"#utility.yul\":853:932   */\n  tag_28\n  tag_11\n  jump\t// in\ntag_28:\n    /* \"#utility.yul\":815:934   */\ntag_27:\n    /* \"#utility.yul\":973:974   */\n  0x00\n    /* \"#utility.yul\":998:1062   */\n  tag_29\n    /* \"#utility.yul\":1054:1061   */\n  dup7\n    /* \"#utility.yul\":1045:1051   */\n  dup3\n    /* \"#utility.yul\":1034:1043   */\n  dup8\n    /* \"#utility.yul\":1030:1052   */\n  add\n    /* \"#utility.yul\":998:1062   */\n  tag_15\n  jump\t// in\ntag_29:\n    /* \"#utility.yul\":988:1062   */\n  swap4\n  pop\n    /* \"#utility.yul\":944:1072   */\n  pop\n    /* \"#utility.yul\":1111:1113   */\n  0x20\n    /* \"#utility.yul\":1137:1201   */\n  tag_30\n    /* \"#utility.yul\":1193:1200   */\n  dup7\n    /* \"#utility.yul\":1184:1190   */\n  dup3\n    /* \"#utility.yul\":1173:1182   */\n  dup8\n    /* \"#utility.yul\":1169:1191   */\n  add\n    /* \"#utility.yul\":1137:1201   */\n  tag_15\n  jump\t// in\ntag_30:\n    /* \"#utility.yul\":1127:1201   */\n  swap3\n  pop\n    /* \"#utility.yul\":1082:1211   */\n  pop\n    /* \"#utility.yul\":1250:1252   */\n  0x40\n    /* \"#utility.yul\":1276:1340   */\n  tag_31\n    /* \"#utility.yul\":1332:1339   */\n  dup7\n    /* \"#utility.yul\":1323:1329   */\n  dup3\n    /* \"#utility.yul\":1312:1321   */\n  dup8\n    /* \"#utility.yul\":1308:1330   */\n  add\n    /* \"#utility.yul\":1276:1340   */\n  tag_15\n  jump\t// in\ntag_31:\n    /* \"#utility.yul\":1266:1340   */\n  swap2\n  pop\n    /* \"#utility.yul\":1221:1350   */\n  pop\n    /* \"#utility.yul\":694:1357   */\n  swap3\n  pop\n  swap3\n  pop\n  swap3\n  jump\t// out\n    /* \"#utility.yul\":1363:1543   */\ntag_8:\n    /* \"#utility.yul\":1411:1488   */\n  0x4e487b7100000000000000000000000000000000000000000000000000000000\n    /* \"#utility.yul\":1408:1409   */\n  0x00\n    /* \"#utility.yul\":1401:1489   */\n  mstore\n    /* \"#utility.yul\":1508:1512   */\n  0x21\n    /* \"#utility.yul\":1505:1506   */\n  0x04\n    /* \"#utility.yul\":1498:1513   */\n  mstore\n    /* \"#utility.yul\":1532:1536   */\n  0x24\n    /* \"#utility.yul\":1529:1530   */\n  0x00\n    /* \"#utility.yul\":1522:1537   */\n  revert\n    /* \"contracts/Crossing.sol\":27:4532  contract TrainCrossing {... */\ntag_9:\n  dataSize(sub_0)\n  dup1\n  dataOffset(sub_0)\n  0x00\n  codecopy\n  0x00\n  return\nstop\n\nsub_0: assembly {\n        /* \"contracts/Crossing.sol\":27:4532  contract TrainCrossing {... */\n      mstore(0x40, 0x80)\n      callvalue\n      dup1\n      iszero\n      tag_1\n      jumpi\n      0x00\n      dup1\n      revert\n    tag_1:\n      pop\n      jumpi(tag_2, lt(calldatasize, 0x04))\n      shr(0xe0, calldataload(0x00))\n      dup1\n      0xbaa12859\n      gt\n      tag_19\n      jumpi\n      dup1\n      0xe4fa8da9\n      gt\n      tag_20\n      jumpi\n      dup1\n      0xe4fa8da9\n      eq\n      tag_15\n      jumpi\n      dup1\n      0xe8887118\n      eq\n      tag_16\n      jumpi\n      dup1\n      0xebe0435c\n      eq\n      tag_17\n      jumpi\n      dup1\n      0xfae68b4d\n      eq\n      tag_18\n      jumpi\n      jump(tag_2)\n    tag_20:\n      dup1\n      0xbaa12859\n      eq\n      tag_11\n      jumpi\n      dup1\n      0xc0463711\n      eq\n      tag_12\n      jumpi\n      dup1\n      0xcee321d6\n      eq\n      tag_13\n      jumpi\n      dup1\n      0xe4d6bec8\n      eq\n      tag_14\n      jumpi\n      jump(tag_2)\n    tag_19:\n      dup1\n      0x74e18625\n      gt\n      tag_21\n      jumpi\n      dup1\n      0x74e18625\n      eq\n      tag_7\n      jumpi\n      dup1\n      0x96469b25\n      eq\n      tag_8\n      jumpi\n      dup1\n      0x9bd565d6\n      eq\n      tag_9\n      jumpi\n      dup1\n      0xa21c30de\n      eq\n      tag_10\n      jumpi\n      jump(tag_2)\n    tag_21:\n      dup1\n      0x3c3244ab\n      eq\n      tag_3\n      jumpi\n      dup1\n      0x3ed6ba3d\n      eq\n      tag_4\n      jumpi\n      dup1\n      0x40ef3a69\n      eq\n      tag_5\n      jumpi\n      dup1\n      0x6bab9804\n      eq\n      tag_6\n      jumpi\n    tag_2:\n      0x00\n      dup1\n      revert\n        /* \"contracts/Crossing.sol\":538:587  mapping(address => uint) public trainRequestTimes */\n    tag_3:\n      tag_22\n      0x04\n      dup1\n      calldatasize\n      sub\n      dup2\n      add\n      swap1\n      tag_23\n      swap2\n      swap1\n      tag_24\n      jump\t// in\n    tag_23:\n      tag_25\n      jump\t// in\n    tag_22:\n      mload(0x40)\n      tag_26\n      swap2\n      swap1\n      tag_27\n      jump\t// in\n    tag_26:\n      mload(0x40)\n      dup1\n      swap2\n      sub\n      swap1\n      return\n        /* \"contracts/Crossing.sol\":297:322  uint public preLockedTime */\n    tag_4:\n      tag_28\n      tag_29\n      jump\t// in\n    tag_28:\n      mload(0x40)\n      tag_30\n      swap2\n      swap1\n      tag_27\n      jump\t// in\n    tag_30:\n      mload(0x40)\n      dup1\n      swap2\n      sub\n      swap1\n      return\n        /* \"contracts/Crossing.sol\":123:157  CrossingState public crossingState */\n    tag_5:\n      tag_31\n      tag_32\n      jump\t// in\n    tag_31:\n      mload(0x40)\n      tag_33\n      swap2\n      swap1\n      tag_34\n      jump\t// in\n    tag_33:\n      mload(0x40)\n      dup1\n      swap2\n      sub\n      swap1\n      return\n        /* \"contracts/Crossing.sol\":264:290  uint public maxCarsPerLane */\n    tag_6:\n      tag_35\n      tag_36\n      jump\t// in\n    tag_35:\n      mload(0x40)\n      tag_37\n      swap2\n      swap1\n      tag_27\n      jump\t// in\n    tag_37:\n      mload(0x40)\n      dup1\n      swap2\n      sub\n      swap1\n      return\n        /* \"contracts/Crossing.sol\":2670:2833  function updateFreeToCrossState() external onlyInfrastructure {... */\n    tag_7:\n      tag_38\n      tag_39\n      jump\t// in\n    tag_38:\n      stop\n        /* \"contracts/Crossing.sol\":2383:2658  function releasePermission() external {... */\n    tag_8:\n      tag_40\n      tag_41\n      jump\t// in\n    tag_40:\n      stop\n        /* \"contracts/Crossing.sol\":164:193  address public infrastructure */\n    tag_9:\n      tag_42\n      tag_43\n      jump\t// in\n    tag_42:\n      mload(0x40)\n      tag_44\n      swap2\n      swap1\n      tag_45\n      jump\t// in\n    tag_44:\n      mload(0x40)\n      dup1\n      swap2\n      sub\n      swap1\n      return\n        /* \"contracts/Crossing.sol\":478:531  mapping(address => bool) public trainCrossingRequests */\n    tag_10:\n      tag_46\n      0x04\n      dup1\n      calldatasize\n      sub\n      dup2\n      add\n      swap1\n      tag_47\n      swap2\n      swap1\n      tag_24\n      jump\t// in\n    tag_47:\n      tag_48\n      jump\t// in\n    tag_46:\n      mload(0x40)\n      tag_49\n      swap2\n      swap1\n      tag_50\n      jump\t// in\n    tag_49:\n      mload(0x40)\n      dup1\n      swap2\n      sub\n      swap1\n      return\n        /* \"contracts/Crossing.sol\":423:471  mapping(address => bool) public crossingVehicles */\n    tag_11:\n      tag_51\n      0x04\n      dup1\n      calldatasize\n      sub\n      dup2\n      add\n      swap1\n      tag_52\n      swap2\n      swap1\n      tag_24\n      jump\t// in\n    tag_52:\n      tag_53\n      jump\t// in\n    tag_51:\n      mload(0x40)\n      tag_54\n      swap2\n      swap1\n      tag_50\n      jump\t// in\n    tag_54:\n      mload(0x40)\n      dup1\n      swap2\n      sub\n      swap1\n      return\n        /* \"contracts/Crossing.sol\":200:222  uint public lastUpdate */\n    tag_12:\n      tag_55\n      tag_56\n      jump\t// in\n    tag_55:\n      mload(0x40)\n      tag_57\n      swap2\n      swap1\n      tag_27\n      jump\t// in\n    tag_57:\n      mload(0x40)\n      dup1\n      swap2\n      sub\n      swap1\n      return\n        /* \"contracts/Crossing.sol\":329:365  uint public currentCrossingCarNumber */\n    tag_13:\n      tag_58\n      tag_59\n      jump\t// in\n    tag_58:\n      mload(0x40)\n      tag_60\n      swap2\n      swap1\n      tag_27\n      jump\t// in\n    tag_60:\n      mload(0x40)\n      dup1\n      swap2\n      sub\n      swap1\n      return\n        /* \"contracts/Crossing.sol\":4099:4529  function trainReleaseCrossing() external {... */\n    tag_14:\n      tag_61\n      tag_62\n      jump\t// in\n    tag_61:\n      stop\n        /* \"contracts/Crossing.sol\":229:257  uint public crossingValidity */\n    tag_15:\n      tag_63\n      tag_64\n      jump\t// in\n    tag_63:\n      mload(0x40)\n      tag_65\n      swap2\n      swap1\n      tag_27\n      jump\t// in\n    tag_65:\n      mload(0x40)\n      dup1\n      swap2\n      sub\n      swap1\n      return\n        /* \"contracts/Crossing.sol\":3284:4091  function trainRequestCrossing() external {... */\n    tag_16:\n      tag_66\n      tag_67\n      jump\t// in\n    tag_66:\n      stop\n        /* \"contracts/Crossing.sol\":2081:2375  function requestPermission() external onlyFreeToCross onlyWhenCrossingNotFull {... */\n    tag_17:\n      tag_68\n      tag_69\n      jump\t// in\n    tag_68:\n      stop\n        /* \"contracts/Crossing.sol\":372:410  uint public trainCrossingRequestNumber */\n    tag_18:\n      tag_70\n      tag_71\n      jump\t// in\n    tag_70:\n      mload(0x40)\n      tag_72\n      swap2\n      swap1\n      tag_27\n      jump\t// in\n    tag_72:\n      mload(0x40)\n      dup1\n      swap2\n      sub\n      swap1\n      return\n        /* \"contracts/Crossing.sol\":538:587  mapping(address => uint) public trainRequestTimes */\n    tag_25:\n      mstore(0x20, 0x09)\n      dup1\n      0x00\n      mstore\n      keccak256(0x00, 0x40)\n      0x00\n      swap2\n      pop\n      swap1\n      pop\n      sload\n      dup2\n      jump\t// out\n        /* \"contracts/Crossing.sol\":297:322  uint public preLockedTime */\n    tag_29:\n      sload(0x04)\n      dup2\n      jump\t// out\n        /* \"contracts/Crossing.sol\":123:157  CrossingState public crossingState */\n    tag_32:\n      0x00\n      dup1\n      sload\n      swap1\n      0x0100\n      exp\n      swap1\n      div\n      0xff\n      and\n      dup2\n      jump\t// out\n        /* \"contracts/Crossing.sol\":264:290  uint public maxCarsPerLane */\n    tag_36:\n      sload(0x03)\n      dup2\n      jump\t// out\n        /* \"contracts/Crossing.sol\":2670:2833  function updateFreeToCrossState() external onlyInfrastructure {... */\n    tag_39:\n        /* \"contracts/Crossing.sol\":1080:1094  infrastructure */\n      0x00\n      0x01\n      swap1\n      sload\n      swap1\n      0x0100\n      exp\n      swap1\n      div\n      0xffffffffffffffffffffffffffffffffffffffff\n      and\n        /* \"contracts/Crossing.sol\":1066:1094  msg.sender == infrastructure */\n      0xffffffffffffffffffffffffffffffffffffffff\n      and\n        /* \"contracts/Crossing.sol\":1066:1076  msg.sender */\n      caller\n        /* \"contracts/Crossing.sol\":1066:1094  msg.sender == infrastructure */\n      0xffffffffffffffffffffffffffffffffffffffff\n      and\n      eq\n        /* \"contracts/Crossing.sol\":1058:1142  require(msg.sender == infrastructure, \"Only infrastructure can call this function.\") */\n      tag_74\n      jumpi\n      mload(0x40)\n      0x08c379a000000000000000000000000000000000000000000000000000000000\n      dup2\n      mstore\n      0x04\n      add\n      tag_75\n      swap1\n      tag_76\n      jump\t// in\n    tag_75:\n      mload(0x40)\n      dup1\n      swap2\n      sub\n      swap1\n      revert\n    tag_74:\n        /* \"contracts/Crossing.sol\":2759:2786  CrossingState.FREE_TO_CROSS */\n      0x00\n        /* \"contracts/Crossing.sol\":2743:2756  crossingState */\n      dup1\n      0x00\n        /* \"contracts/Crossing.sol\":2743:2786  crossingState = CrossingState.FREE_TO_CROSS */\n      0x0100\n      exp\n      dup2\n      sload\n      dup2\n      0xff\n      mul\n      not\n      and\n      swap1\n      dup4\n      0x02\n      dup2\n      gt\n      iszero\n      tag_78\n      jumpi\n      tag_79\n      tag_80\n      jump\t// in\n    tag_79:\n    tag_78:\n      mul\n      or\n      swap1\n      sstore\n      pop\n        /* \"contracts/Crossing.sol\":2810:2825  block.timestamp */\n      timestamp\n        /* \"contracts/Crossing.sol\":2797:2807  lastUpdate */\n      0x01\n        /* \"contracts/Crossing.sol\":2797:2825  lastUpdate = block.timestamp */\n      dup2\n      swap1\n      sstore\n      pop\n        /* \"contracts/Crossing.sol\":2670:2833  function updateFreeToCrossState() external onlyInfrastructure {... */\n      jump\t// out\n        /* \"contracts/Crossing.sol\":2383:2658  function releasePermission() external {... */\n    tag_41:\n        /* \"contracts/Crossing.sol\":2440:2456  crossingVehicles */\n      0x07\n        /* \"contracts/Crossing.sol\":2440:2468  crossingVehicles[msg.sender] */\n      0x00\n        /* \"contracts/Crossing.sol\":2457:2467  msg.sender */\n      caller\n        /* \"contracts/Crossing.sol\":2440:2468  crossingVehicles[msg.sender] */\n      0xffffffffffffffffffffffffffffffffffffffff\n      and\n      0xffffffffffffffffffffffffffffffffffffffff\n      and\n      dup2\n      mstore\n      0x20\n      add\n      swap1\n      dup2\n      mstore\n      0x20\n      add\n      0x00\n      keccak256\n      0x00\n      swap1\n      sload\n      swap1\n      0x0100\n      exp\n      swap1\n      div\n      0xff\n      and\n        /* \"contracts/Crossing.sol\":2432:2509  require(crossingVehicles[msg.sender], \"Vehicle has not requested permission\") */\n      tag_82\n      jumpi\n      mload(0x40)\n      0x08c379a000000000000000000000000000000000000000000000000000000000\n      dup2\n      mstore\n      0x04\n      add\n      tag_83\n      swap1\n      tag_84\n      jump\t// in\n    tag_83:\n      mload(0x40)\n      dup1\n      swap2\n      sub\n      swap1\n      revert\n    tag_82:\n        /* \"contracts/Crossing.sol\":2551:2556  false */\n      0x00\n        /* \"contracts/Crossing.sol\":2520:2536  crossingVehicles */\n      0x07\n        /* \"contracts/Crossing.sol\":2520:2548  crossingVehicles[msg.sender] */\n      0x00\n        /* \"contracts/Crossing.sol\":2537:2547  msg.sender */\n      caller\n        /* \"contracts/Crossing.sol\":2520:2548  crossingVehicles[msg.sender] */\n      0xffffffffffffffffffffffffffffffffffffffff\n      and\n      0xffffffffffffffffffffffffffffffffffffffff\n      and\n      dup2\n      mstore\n      0x20\n      add\n      swap1\n      dup2\n      mstore\n      0x20\n      add\n      0x00\n      keccak256\n      0x00\n        /* \"contracts/Crossing.sol\":2520:2556  crossingVehicles[msg.sender] = false */\n      0x0100\n      exp\n      dup2\n      sload\n      dup2\n      0xff\n      mul\n      not\n      and\n      swap1\n      dup4\n      iszero\n      iszero\n      mul\n      or\n      swap1\n      sstore\n      pop\n        /* \"contracts/Crossing.sol\":2567:2591  currentCrossingCarNumber */\n      0x05\n      0x00\n        /* \"contracts/Crossing.sol\":2567:2593  currentCrossingCarNumber-- */\n      dup2\n      sload\n      dup1\n      swap3\n      swap2\n      swap1\n      tag_85\n      swap1\n      tag_86\n      jump\t// in\n    tag_85:\n      swap2\n      swap1\n      pop\n      sstore\n      pop\n        /* \"contracts/Crossing.sol\":2609:2650  CarCrossingPermissionReleased(msg.sender) */\n      0x2e88ceae333b5a571097904aed082642c40e10839dd32e2a0753d8008a89e2e1\n        /* \"contracts/Crossing.sol\":2639:2649  msg.sender */\n      caller\n        /* \"contracts/Crossing.sol\":2609:2650  CarCrossingPermissionReleased(msg.sender) */\n      mload(0x40)\n      tag_87\n      swap2\n      swap1\n      tag_45\n      jump\t// in\n    tag_87:\n      mload(0x40)\n      dup1\n      swap2\n      sub\n      swap1\n      log1\n        /* \"contracts/Crossing.sol\":2383:2658  function releasePermission() external {... */\n      jump\t// out\n        /* \"contracts/Crossing.sol\":164:193  address public infrastructure */\n    tag_43:\n      0x00\n      0x01\n      swap1\n      sload\n      swap1\n      0x0100\n      exp\n      swap1\n      div\n      0xffffffffffffffffffffffffffffffffffffffff\n      and\n      dup2\n      jump\t// out\n        /* \"contracts/Crossing.sol\":478:531  mapping(address => bool) public trainCrossingRequests */\n    tag_48:\n      mstore(0x20, 0x08)\n      dup1\n      0x00\n      mstore\n      keccak256(0x00, 0x40)\n      0x00\n      swap2\n      pop\n      sload\n      swap1\n      0x0100\n      exp\n      swap1\n      div\n      0xff\n      and\n      dup2\n      jump\t// out\n        /* \"contracts/Crossing.sol\":423:471  mapping(address => bool) public crossingVehicles */\n    tag_53:\n      mstore(0x20, 0x07)\n      dup1\n      0x00\n      mstore\n      keccak256(0x00, 0x40)\n      0x00\n      swap2\n      pop\n      sload\n      swap1\n      0x0100\n      exp\n      swap1\n      div\n      0xff\n      and\n      dup2\n      jump\t// out\n        /* \"contracts/Crossing.sol\":200:222  uint public lastUpdate */\n    tag_56:\n      sload(0x01)\n      dup2\n      jump\t// out\n        /* \"contracts/Crossing.sol\":329:365  uint public currentCrossingCarNumber */\n    tag_59:\n      sload(0x05)\n      dup2\n      jump\t// out\n        /* \"contracts/Crossing.sol\":4099:4529  function trainReleaseCrossing() external {... */\n    tag_62:\n        /* \"contracts/Crossing.sol\":4159:4180  trainCrossingRequests */\n      0x08\n        /* \"contracts/Crossing.sol\":4159:4192  trainCrossingRequests[msg.sender] */\n      0x00\n        /* \"contracts/Crossing.sol\":4181:4191  msg.sender */\n      caller\n        /* \"contracts/Crossing.sol\":4159:4192  trainCrossingRequests[msg.sender] */\n      0xffffffffffffffffffffffffffffffffffffffff\n      and\n      0xffffffffffffffffffffffffffffffffffffffff\n      and\n      dup2\n      mstore\n      0x20\n      add\n      swap1\n      dup2\n      mstore\n      0x20\n      add\n      0x00\n      keccak256\n      0x00\n      swap1\n      sload\n      swap1\n      0x0100\n      exp\n      swap1\n      div\n      0xff\n      and\n        /* \"contracts/Crossing.sol\":4151:4234  require(trainCrossingRequests[msg.sender], \"You don't have permission to release.\") */\n      tag_89\n      jumpi\n      mload(0x40)\n      0x08c379a000000000000000000000000000000000000000000000000000000000\n      dup2\n      mstore\n      0x04\n      add\n      tag_90\n      swap1\n      tag_91\n      jump\t// in\n    tag_90:\n      mload(0x40)\n      dup1\n      swap2\n      sub\n      swap1\n      revert\n    tag_89:\n        /* \"contracts/Crossing.sol\":4281:4286  false */\n      0x00\n        /* \"contracts/Crossing.sol\":4245:4266  trainCrossingRequests */\n      0x08\n        /* \"contracts/Crossing.sol\":4245:4278  trainCrossingRequests[msg.sender] */\n      0x00\n        /* \"contracts/Crossing.sol\":4267:4277  msg.sender */\n      caller\n        /* \"contracts/Crossing.sol\":4245:4278  trainCrossingRequests[msg.sender] */\n      0xffffffffffffffffffffffffffffffffffffffff\n      and\n      0xffffffffffffffffffffffffffffffffffffffff\n      and\n      dup2\n      mstore\n      0x20\n      add\n      swap1\n      dup2\n      mstore\n      0x20\n      add\n      0x00\n      keccak256\n      0x00\n        /* \"contracts/Crossing.sol\":4245:4286  trainCrossingRequests[msg.sender] = false */\n      0x0100\n      exp\n      dup2\n      sload\n      dup2\n      0xff\n      mul\n      not\n      and\n      swap1\n      dup4\n      iszero\n      iszero\n      mul\n      or\n      swap1\n      sstore\n      pop\n        /* \"contracts/Crossing.sol\":4297:4323  trainCrossingRequestNumber */\n      0x06\n      0x00\n        /* \"contracts/Crossing.sol\":4297:4325  trainCrossingRequestNumber-- */\n      dup2\n      sload\n      dup1\n      swap3\n      swap2\n      swap1\n      tag_92\n      swap1\n      tag_86\n      jump\t// in\n    tag_92:\n      swap2\n      swap1\n      pop\n      sstore\n      pop\n        /* \"contracts/Crossing.sol\":4380:4381  0 */\n      0x00\n        /* \"contracts/Crossing.sol\":4350:4376  trainCrossingRequestNumber */\n      sload(0x06)\n        /* \"contracts/Crossing.sol\":4350:4381  trainCrossingRequestNumber == 0 */\n      sub\n        /* \"contracts/Crossing.sol\":4346:4453  if (trainCrossingRequestNumber == 0) {... */\n      tag_93\n      jumpi\n        /* \"contracts/Crossing.sol\":4414:4441  CrossingState.FREE_TO_CROSS */\n      0x00\n        /* \"contracts/Crossing.sol\":4398:4411  crossingState */\n      dup1\n      0x00\n        /* \"contracts/Crossing.sol\":4398:4441  crossingState = CrossingState.FREE_TO_CROSS */\n      0x0100\n      exp\n      dup2\n      sload\n      dup2\n      0xff\n      mul\n      not\n      and\n      swap1\n      dup4\n      0x02\n      dup2\n      gt\n      iszero\n      tag_94\n      jumpi\n      tag_95\n      tag_80\n      jump\t// in\n    tag_95:\n    tag_94:\n      mul\n      or\n      swap1\n      sstore\n      pop\n        /* \"contracts/Crossing.sol\":4346:4453  if (trainCrossingRequestNumber == 0) {... */\n    tag_93:\n        /* \"contracts/Crossing.sol\":4478:4521  TrainCrossingPermissionReleased(msg.sender) */\n      0x3c0ea4a00d4de0ccc27897a7a04782de620b5fe6df6cb5601d2560e3aee591c4\n        /* \"contracts/Crossing.sol\":4510:4520  msg.sender */\n      caller\n        /* \"contracts/Crossing.sol\":4478:4521  TrainCrossingPermissionReleased(msg.sender) */\n      mload(0x40)\n      tag_96\n      swap2\n      swap1\n      tag_45\n      jump\t// in\n    tag_96:\n      mload(0x40)\n      dup1\n      swap2\n      sub\n      swap1\n      log1\n        /* \"contracts/Crossing.sol\":4099:4529  function trainReleaseCrossing() external {... */\n      jump\t// out\n        /* \"contracts/Crossing.sol\":229:257  uint public crossingValidity */\n    tag_64:\n      sload(0x02)\n      dup2\n      jump\t// out\n        /* \"contracts/Crossing.sol\":3284:4091  function trainRequestCrossing() external {... */\n    tag_67:\n        /* \"contracts/Crossing.sol\":3341:3409  TrainCrossingRequest(msg.sender, !trainCrossingRequests[msg.sender]) */\n      0x99dabed7f6f5ed6344a92aa6d218a2783233053b23aab6cc21a53bf4c5980f50\n        /* \"contracts/Crossing.sol\":3362:3372  msg.sender */\n      caller\n        /* \"contracts/Crossing.sol\":3375:3396  trainCrossingRequests */\n      0x08\n        /* \"contracts/Crossing.sol\":3375:3408  trainCrossingRequests[msg.sender] */\n      0x00\n        /* \"contracts/Crossing.sol\":3397:3407  msg.sender */\n      caller\n        /* \"contracts/Crossing.sol\":3375:3408  trainCrossingRequests[msg.sender] */\n      0xffffffffffffffffffffffffffffffffffffffff\n      and\n      0xffffffffffffffffffffffffffffffffffffffff\n      and\n      dup2\n      mstore\n      0x20\n      add\n      swap1\n      dup2\n      mstore\n      0x20\n      add\n      0x00\n      keccak256\n      0x00\n      swap1\n      sload\n      swap1\n      0x0100\n      exp\n      swap1\n      div\n      0xff\n      and\n        /* \"contracts/Crossing.sol\":3374:3408  !trainCrossingRequests[msg.sender] */\n      iszero\n        /* \"contracts/Crossing.sol\":3341:3409  TrainCrossingRequest(msg.sender, !trainCrossingRequests[msg.sender]) */\n      mload(0x40)\n      tag_98\n      swap3\n      swap2\n      swap1\n      tag_99\n      jump\t// in\n    tag_98:\n      mload(0x40)\n      dup1\n      swap2\n      sub\n      swap1\n      log1\n        /* \"contracts/Crossing.sol\":3427:3448  trainCrossingRequests */\n      0x08\n        /* \"contracts/Crossing.sol\":3427:3460  trainCrossingRequests[msg.sender] */\n      0x00\n        /* \"contracts/Crossing.sol\":3449:3459  msg.sender */\n      caller\n        /* \"contracts/Crossing.sol\":3427:3460  trainCrossingRequests[msg.sender] */\n      0xffffffffffffffffffffffffffffffffffffffff\n      and\n      0xffffffffffffffffffffffffffffffffffffffff\n      and\n      dup2\n      mstore\n      0x20\n      add\n      swap1\n      dup2\n      mstore\n      0x20\n      add\n      0x00\n      keccak256\n      0x00\n      swap1\n      sload\n      swap1\n      0x0100\n      exp\n      swap1\n      div\n      0xff\n      and\n        /* \"contracts/Crossing.sol\":3422:3634  if (!trainCrossingRequests[msg.sender]) {... */\n      tag_100\n      jumpi\n        /* \"contracts/Crossing.sol\":3513:3517  true */\n      0x01\n        /* \"contracts/Crossing.sol\":3477:3498  trainCrossingRequests */\n      0x08\n        /* \"contracts/Crossing.sol\":3477:3510  trainCrossingRequests[msg.sender] */\n      0x00\n        /* \"contracts/Crossing.sol\":3499:3509  msg.sender */\n      caller\n        /* \"contracts/Crossing.sol\":3477:3510  trainCrossingRequests[msg.sender] */\n      0xffffffffffffffffffffffffffffffffffffffff\n      and\n      0xffffffffffffffffffffffffffffffffffffffff\n      and\n      dup2\n      mstore\n      0x20\n      add\n      swap1\n      dup2\n      mstore\n      0x20\n      add\n      0x00\n      keccak256\n      0x00\n        /* \"contracts/Crossing.sol\":3477:3517  trainCrossingRequests[msg.sender] = true */\n      0x0100\n      exp\n      dup2\n      sload\n      dup2\n      0xff\n      mul\n      not\n      and\n      swap1\n      dup4\n      iszero\n      iszero\n      mul\n      or\n      swap1\n      sstore\n      pop\n        /* \"contracts/Crossing.sol\":3564:3579  block.timestamp */\n      timestamp\n        /* \"contracts/Crossing.sol\":3532:3549  trainRequestTimes */\n      0x09\n        /* \"contracts/Crossing.sol\":3532:3561  trainRequestTimes[msg.sender] */\n      0x00\n        /* \"contracts/Crossing.sol\":3550:3560  msg.sender */\n      caller\n        /* \"contracts/Crossing.sol\":3532:3561  trainRequestTimes[msg.sender] */\n      0xffffffffffffffffffffffffffffffffffffffff\n      and\n      0xffffffffffffffffffffffffffffffffffffffff\n      and\n      dup2\n      mstore\n      0x20\n      add\n      swap1\n      dup2\n      mstore\n      0x20\n      add\n      0x00\n      keccak256\n        /* \"contracts/Crossing.sol\":3532:3579  trainRequestTimes[msg.sender] = block.timestamp */\n      dup2\n      swap1\n      sstore\n      pop\n        /* \"contracts/Crossing.sol\":3594:3620  trainCrossingRequestNumber */\n      0x06\n      0x00\n        /* \"contracts/Crossing.sol\":3594:3622  trainCrossingRequestNumber++ */\n      dup2\n      sload\n      dup1\n      swap3\n      swap2\n      swap1\n      tag_101\n      swap1\n      tag_102\n      jump\t// in\n    tag_101:\n      swap2\n      swap1\n      pop\n      sstore\n      pop\n        /* \"contracts/Crossing.sol\":3422:3634  if (!trainCrossingRequests[msg.sender]) {... */\n    tag_100:\n        /* \"contracts/Crossing.sol\":3646:3660  lockCrossing() */\n      tag_103\n        /* \"contracts/Crossing.sol\":3646:3658  lockCrossing */\n      tag_104\n        /* \"contracts/Crossing.sol\":3646:3660  lockCrossing() */\n      jump\t// in\n    tag_103:\n        /* \"contracts/Crossing.sol\":3694:3718  CrossingState.PRE_LOCKED */\n      0x02\n        /* \"contracts/Crossing.sol\":3677:3718  crossingState == CrossingState.PRE_LOCKED */\n      dup1\n      dup2\n      gt\n      iszero\n      tag_105\n      jumpi\n      tag_106\n      tag_80\n      jump\t// in\n    tag_106:\n    tag_105:\n        /* \"contracts/Crossing.sol\":3677:3690  crossingState */\n      0x00\n      dup1\n      sload\n      swap1\n      0x0100\n      exp\n      swap1\n      div\n      0xff\n      and\n        /* \"contracts/Crossing.sol\":3677:3718  crossingState == CrossingState.PRE_LOCKED */\n      0x02\n      dup2\n      gt\n      iszero\n      tag_107\n      jumpi\n      tag_108\n      tag_80\n      jump\t// in\n    tag_108:\n    tag_107:\n      sub\n        /* \"contracts/Crossing.sol\":3673:4084  if (crossingState == CrossingState.PRE_LOCKED) {... */\n      tag_109\n      jumpi\n        /* \"contracts/Crossing.sol\":3789:3802  preLockedTime */\n      sload(0x04)\n        /* \"contracts/Crossing.sol\":3757:3774  trainRequestTimes */\n      0x09\n        /* \"contracts/Crossing.sol\":3757:3786  trainRequestTimes[msg.sender] */\n      0x00\n        /* \"contracts/Crossing.sol\":3775:3785  msg.sender */\n      caller\n        /* \"contracts/Crossing.sol\":3757:3786  trainRequestTimes[msg.sender] */\n      0xffffffffffffffffffffffffffffffffffffffff\n      and\n      0xffffffffffffffffffffffffffffffffffffffff\n      and\n      dup2\n      mstore\n      0x20\n      add\n      swap1\n      dup2\n      mstore\n      0x20\n      add\n      0x00\n      keccak256\n      sload\n        /* \"contracts/Crossing.sol\":3739:3754  block.timestamp */\n      timestamp\n        /* \"contracts/Crossing.sol\":3739:3786  block.timestamp - trainRequestTimes[msg.sender] */\n      tag_110\n      swap2\n      swap1\n      tag_111\n      jump\t// in\n    tag_110:\n        /* \"contracts/Crossing.sol\":3739:3802  block.timestamp - trainRequestTimes[msg.sender] > preLockedTime */\n      gt\n        /* \"contracts/Crossing.sol\":3735:3890  if (block.timestamp - trainRequestTimes[msg.sender] > preLockedTime) {... */\n      iszero\n      tag_112\n      jumpi\n        /* \"contracts/Crossing.sol\":3828:3849  StopTrain(msg.sender) */\n      0x273d510e41fd7354aecc3dd5a1af735cae0c081cf7142da8245e713e3ee4f488\n        /* \"contracts/Crossing.sol\":3838:3848  msg.sender */\n      caller\n        /* \"contracts/Crossing.sol\":3828:3849  StopTrain(msg.sender) */\n      mload(0x40)\n      tag_113\n      swap2\n      swap1\n      tag_45\n      jump\t// in\n    tag_113:\n      mload(0x40)\n      dup1\n      swap2\n      sub\n      swap1\n      log1\n        /* \"contracts/Crossing.sol\":3868:3875  return; */\n      jump(tag_97)\n        /* \"contracts/Crossing.sol\":3735:3890  if (block.timestamp - trainRequestTimes[msg.sender] > preLockedTime) {... */\n    tag_112:\n        /* \"contracts/Crossing.sol\":3909:3949  TrainCrossingWaitingForRetry(msg.sender) */\n      0x3f79930be7ed586c284cb8ba2feaa12b5bc8b3f6f0788a2c0577c66876c591bf\n        /* \"contracts/Crossing.sol\":3938:3948  msg.sender */\n      caller\n        /* \"contracts/Crossing.sol\":3909:3949  TrainCrossingWaitingForRetry(msg.sender) */\n      mload(0x40)\n      tag_114\n      swap2\n      swap1\n      tag_45\n      jump\t// in\n    tag_114:\n      mload(0x40)\n      dup1\n      swap2\n      sub\n      swap1\n      log1\n        /* \"contracts/Crossing.sol\":3673:4084  if (crossingState == CrossingState.PRE_LOCKED) {... */\n      jump(tag_115)\n    tag_109:\n        /* \"contracts/Crossing.sol\":3988:4008  CrossingState.LOCKED */\n      0x01\n        /* \"contracts/Crossing.sol\":3971:4008  crossingState == CrossingState.LOCKED */\n      0x02\n      dup2\n      gt\n      iszero\n      tag_116\n      jumpi\n      tag_117\n      tag_80\n      jump\t// in\n    tag_117:\n    tag_116:\n        /* \"contracts/Crossing.sol\":3971:3984  crossingState */\n      0x00\n      dup1\n      sload\n      swap1\n      0x0100\n      exp\n      swap1\n      div\n      0xff\n      and\n        /* \"contracts/Crossing.sol\":3971:4008  crossingState == CrossingState.LOCKED */\n      0x02\n      dup2\n      gt\n      iszero\n      tag_118\n      jumpi\n      tag_119\n      tag_80\n      jump\t// in\n    tag_119:\n    tag_118:\n      sub\n        /* \"contracts/Crossing.sol\":3967:4084  if (crossingState == CrossingState.LOCKED) {... */\n      tag_120\n      jumpi\n        /* \"contracts/Crossing.sol\":4030:4072  TrainCrossingPermissionGranted(msg.sender) */\n      0xaf562694fb399e648b3c3c32d69af1a74406eaab624eaff9802aa97414dfde33\n        /* \"contracts/Crossing.sol\":4061:4071  msg.sender */\n      caller\n        /* \"contracts/Crossing.sol\":4030:4072  TrainCrossingPermissionGranted(msg.sender) */\n      mload(0x40)\n      tag_121\n      swap2\n      swap1\n      tag_45\n      jump\t// in\n    tag_121:\n      mload(0x40)\n      dup1\n      swap2\n      sub\n      swap1\n      log1\n        /* \"contracts/Crossing.sol\":3967:4084  if (crossingState == CrossingState.LOCKED) {... */\n    tag_120:\n        /* \"contracts/Crossing.sol\":3673:4084  if (crossingState == CrossingState.PRE_LOCKED) {... */\n    tag_115:\n        /* \"contracts/Crossing.sol\":3284:4091  function trainRequestCrossing() external {... */\n    tag_97:\n      jump\t// out\n        /* \"contracts/Crossing.sol\":2081:2375  function requestPermission() external onlyFreeToCross onlyWhenCrossingNotFull {... */\n    tag_69:\n        /* \"contracts/Crossing.sol\":1212:1235  checkFreeToCrossTimer() */\n      tag_123\n        /* \"contracts/Crossing.sol\":1212:1233  checkFreeToCrossTimer */\n      tag_124\n        /* \"contracts/Crossing.sol\":1212:1235  checkFreeToCrossTimer() */\n      jump\t// in\n    tag_123:\n        /* \"contracts/Crossing.sol\":1271:1298  CrossingState.FREE_TO_CROSS */\n      0x00\n        /* \"contracts/Crossing.sol\":1254:1298  crossingState == CrossingState.FREE_TO_CROSS */\n      0x02\n      dup2\n      gt\n      iszero\n      tag_125\n      jumpi\n      tag_126\n      tag_80\n      jump\t// in\n    tag_126:\n    tag_125:\n        /* \"contracts/Crossing.sol\":1254:1267  crossingState */\n      0x00\n      dup1\n      sload\n      swap1\n      0x0100\n      exp\n      swap1\n      div\n      0xff\n      and\n        /* \"contracts/Crossing.sol\":1254:1298  crossingState == CrossingState.FREE_TO_CROSS */\n      0x02\n      dup2\n      gt\n      iszero\n      tag_127\n      jumpi\n      tag_128\n      tag_80\n      jump\t// in\n    tag_128:\n    tag_127:\n      eq\n        /* \"contracts/Crossing.sol\":1246:1333  require(crossingState == CrossingState.FREE_TO_CROSS, \"Crossing is not free to cross.\") */\n      tag_129\n      jumpi\n      mload(0x40)\n      0x08c379a000000000000000000000000000000000000000000000000000000000\n      dup2\n      mstore\n      0x04\n      add\n      tag_130\n      swap1\n      tag_131\n      jump\t// in\n    tag_130:\n      mload(0x40)\n      dup1\n      swap2\n      sub\n      swap1\n      revert\n    tag_129:\n        /* \"contracts/Crossing.sol\":1579:1593  maxCarsPerLane */\n      sload(0x03)\n        /* \"contracts/Crossing.sol\":1552:1576  currentCrossingCarNumber */\n      sload(0x05)\n        /* \"contracts/Crossing.sol\":1552:1593  currentCrossingCarNumber < maxCarsPerLane */\n      lt\n        /* \"contracts/Crossing.sol\":1544:1615  require(currentCrossingCarNumber < maxCarsPerLane, \"Crossing is full.\") */\n      tag_133\n      jumpi\n      mload(0x40)\n      0x08c379a000000000000000000000000000000000000000000000000000000000\n      dup2\n      mstore\n      0x04\n      add\n      tag_134\n      swap1\n      tag_135\n      jump\t// in\n    tag_134:\n      mload(0x40)\n      dup1\n      swap2\n      sub\n      swap1\n      revert\n    tag_133:\n        /* \"contracts/Crossing.sol\":2179:2195  crossingVehicles */\n      0x07\n        /* \"contracts/Crossing.sol\":2179:2207  crossingVehicles[msg.sender] */\n      0x00\n        /* \"contracts/Crossing.sol\":2196:2206  msg.sender */\n      caller\n        /* \"contracts/Crossing.sol\":2179:2207  crossingVehicles[msg.sender] */\n      0xffffffffffffffffffffffffffffffffffffffff\n      and\n      0xffffffffffffffffffffffffffffffffffffffff\n      and\n      dup2\n      mstore\n      0x20\n      add\n      swap1\n      dup2\n      mstore\n      0x20\n      add\n      0x00\n      keccak256\n      0x00\n      swap1\n      sload\n      swap1\n      0x0100\n      exp\n      swap1\n      div\n      0xff\n      and\n        /* \"contracts/Crossing.sol\":2178:2207  !crossingVehicles[msg.sender] */\n      iszero\n        /* \"contracts/Crossing.sol\":2170:2228  require(!crossingVehicles[msg.sender], \"Already crossing\") */\n      tag_137\n      jumpi\n      mload(0x40)\n      0x08c379a000000000000000000000000000000000000000000000000000000000\n      dup2\n      mstore\n      0x04\n      add\n      tag_138\n      swap1\n      tag_139\n      jump\t// in\n    tag_138:\n      mload(0x40)\n      dup1\n      swap2\n      sub\n      swap1\n      revert\n    tag_137:\n        /* \"contracts/Crossing.sol\":2270:2274  true */\n      0x01\n        /* \"contracts/Crossing.sol\":2239:2255  crossingVehicles */\n      0x07\n        /* \"contracts/Crossing.sol\":2239:2267  crossingVehicles[msg.sender] */\n      0x00\n        /* \"contracts/Crossing.sol\":2256:2266  msg.sender */\n      caller\n        /* \"contracts/Crossing.sol\":2239:2267  crossingVehicles[msg.sender] */\n      0xffffffffffffffffffffffffffffffffffffffff\n      and\n      0xffffffffffffffffffffffffffffffffffffffff\n      and\n      dup2\n      mstore\n      0x20\n      add\n      swap1\n      dup2\n      mstore\n      0x20\n      add\n      0x00\n      keccak256\n      0x00\n        /* \"contracts/Crossing.sol\":2239:2274  crossingVehicles[msg.sender] = true */\n      0x0100\n      exp\n      dup2\n      sload\n      dup2\n      0xff\n      mul\n      not\n      and\n      swap1\n      dup4\n      iszero\n      iszero\n      mul\n      or\n      swap1\n      sstore\n      pop\n        /* \"contracts/Crossing.sol\":2285:2309  currentCrossingCarNumber */\n      0x05\n      0x00\n        /* \"contracts/Crossing.sol\":2285:2311  currentCrossingCarNumber++ */\n      dup2\n      sload\n      dup1\n      swap3\n      swap2\n      swap1\n      tag_140\n      swap1\n      tag_102\n      jump\t// in\n    tag_140:\n      swap2\n      swap1\n      pop\n      sstore\n      pop\n        /* \"contracts/Crossing.sol\":2327:2367  CarCrossingPermissionGranted(msg.sender) */\n      0x8b0924eaa49635981070514597e848549adc7d69bc943b4b2a7ceefb16003dc2\n        /* \"contracts/Crossing.sol\":2356:2366  msg.sender */\n      caller\n        /* \"contracts/Crossing.sol\":2327:2367  CarCrossingPermissionGranted(msg.sender) */\n      mload(0x40)\n      tag_141\n      swap2\n      swap1\n      tag_45\n      jump\t// in\n    tag_141:\n      mload(0x40)\n      dup1\n      swap2\n      sub\n      swap1\n      log1\n        /* \"contracts/Crossing.sol\":2081:2375  function requestPermission() external onlyFreeToCross onlyWhenCrossingNotFull {... */\n      jump\t// out\n        /* \"contracts/Crossing.sol\":372:410  uint public trainCrossingRequestNumber */\n    tag_71:\n      sload(0x06)\n      dup2\n      jump\t// out\n        /* \"contracts/Crossing.sol\":3051:3272  function lockCrossing() internal {... */\n    tag_104:\n        /* \"contracts/Crossing.sol\":3126:3127  0 */\n      0x00\n        /* \"contracts/Crossing.sol\":3099:3123  currentCrossingCarNumber */\n      sload(0x05)\n        /* \"contracts/Crossing.sol\":3099:3127  currentCrossingCarNumber > 0 */\n      gt\n        /* \"contracts/Crossing.sol\":3095:3265  if (currentCrossingCarNumber > 0) {... */\n      iszero\n      tag_143\n      jumpi\n        /* \"contracts/Crossing.sol\":3160:3184  CrossingState.PRE_LOCKED */\n      0x02\n        /* \"contracts/Crossing.sol\":3144:3157  crossingState */\n      0x00\n      dup1\n        /* \"contracts/Crossing.sol\":3144:3184  crossingState = CrossingState.PRE_LOCKED */\n      0x0100\n      exp\n      dup2\n      sload\n      dup2\n      0xff\n      mul\n      not\n      and\n      swap1\n      dup4\n      0x02\n      dup2\n      gt\n      iszero\n      tag_144\n      jumpi\n      tag_145\n      tag_80\n      jump\t// in\n    tag_145:\n    tag_144:\n      mul\n      or\n      swap1\n      sstore\n      pop\n        /* \"contracts/Crossing.sol\":3095:3265  if (currentCrossingCarNumber > 0) {... */\n      jump(tag_146)\n    tag_143:\n        /* \"contracts/Crossing.sol\":3233:3253  CrossingState.LOCKED */\n      0x01\n        /* \"contracts/Crossing.sol\":3217:3230  crossingState */\n      0x00\n      dup1\n        /* \"contracts/Crossing.sol\":3217:3253  crossingState = CrossingState.LOCKED */\n      0x0100\n      exp\n      dup2\n      sload\n      dup2\n      0xff\n      mul\n      not\n      and\n      swap1\n      dup4\n      0x02\n      dup2\n      gt\n      iszero\n      tag_147\n      jumpi\n      tag_148\n      tag_80\n      jump\t// in\n    tag_148:\n    tag_147:\n      mul\n      or\n      swap1\n      sstore\n      pop\n        /* \"contracts/Crossing.sol\":3095:3265  if (currentCrossingCarNumber > 0) {... */\n    tag_146:\n        /* \"contracts/Crossing.sol\":3051:3272  function lockCrossing() internal {... */\n      jump\t// out\n        /* \"contracts/Crossing.sol\":2841:3043  function checkFreeToCrossTimer() internal {... */\n    tag_124:\n        /* \"contracts/Crossing.sol\":2929:2945  crossingValidity */\n      sload(0x02)\n        /* \"contracts/Crossing.sol\":2916:2926  lastUpdate */\n      sload(0x01)\n        /* \"contracts/Crossing.sol\":2898:2913  block.timestamp */\n      timestamp\n        /* \"contracts/Crossing.sol\":2898:2926  block.timestamp - lastUpdate */\n      tag_150\n      swap2\n      swap1\n      tag_111\n      jump\t// in\n    tag_150:\n        /* \"contracts/Crossing.sol\":2898:2945  block.timestamp - lastUpdate > crossingValidity */\n      gt\n        /* \"contracts/Crossing.sol\":2898:2993  block.timestamp - lastUpdate > crossingValidity && crossingState == CrossingState.FREE_TO_CROSS */\n      dup1\n      iszero\n      tag_151\n      jumpi\n      pop\n        /* \"contracts/Crossing.sol\":2966:2993  CrossingState.FREE_TO_CROSS */\n      0x00\n        /* \"contracts/Crossing.sol\":2949:2993  crossingState == CrossingState.FREE_TO_CROSS */\n      0x02\n      dup2\n      gt\n      iszero\n      tag_152\n      jumpi\n      tag_153\n      tag_80\n      jump\t// in\n    tag_153:\n    tag_152:\n        /* \"contracts/Crossing.sol\":2949:2962  crossingState */\n      0x00\n      dup1\n      sload\n      swap1\n      0x0100\n      exp\n      swap1\n      div\n      0xff\n      and\n        /* \"contracts/Crossing.sol\":2949:2993  crossingState == CrossingState.FREE_TO_CROSS */\n      0x02\n      dup2\n      gt\n      iszero\n      tag_154\n      jumpi\n      tag_155\n      tag_80\n      jump\t// in\n    tag_155:\n    tag_154:\n      eq\n        /* \"contracts/Crossing.sol\":2898:2993  block.timestamp - lastUpdate > crossingValidity && crossingState == CrossingState.FREE_TO_CROSS */\n    tag_151:\n        /* \"contracts/Crossing.sol\":2894:3036  if (block.timestamp - lastUpdate > crossingValidity && crossingState == CrossingState.FREE_TO_CROSS) {... */\n      iszero\n      tag_156\n      jumpi\n        /* \"contracts/Crossing.sol\":3010:3024  lockCrossing() */\n      tag_157\n        /* \"contracts/Crossing.sol\":3010:3022  lockCrossing */\n      tag_104\n        /* \"contracts/Crossing.sol\":3010:3024  lockCrossing() */\n      jump\t// in\n    tag_157:\n        /* \"contracts/Crossing.sol\":2894:3036  if (block.timestamp - lastUpdate > crossingValidity && crossingState == CrossingState.FREE_TO_CROSS) {... */\n    tag_156:\n        /* \"contracts/Crossing.sol\":2841:3043  function checkFreeToCrossTimer() internal {... */\n      jump\t// out\n        /* \"#utility.yul\":88:205   */\n    tag_159:\n        /* \"#utility.yul\":197:198   */\n      0x00\n        /* \"#utility.yul\":194:195   */\n      dup1\n        /* \"#utility.yul\":187:199   */\n      revert\n        /* \"#utility.yul\":334:460   */\n    tag_161:\n        /* \"#utility.yul\":371:378   */\n      0x00\n        /* \"#utility.yul\":411:453   */\n      0xffffffffffffffffffffffffffffffffffffffff\n        /* \"#utility.yul\":404:409   */\n      dup3\n        /* \"#utility.yul\":400:454   */\n      and\n        /* \"#utility.yul\":389:454   */\n      swap1\n      pop\n        /* \"#utility.yul\":334:460   */\n      swap2\n      swap1\n      pop\n      jump\t// out\n        /* \"#utility.yul\":466:562   */\n    tag_162:\n        /* \"#utility.yul\":503:510   */\n      0x00\n        /* \"#utility.yul\":532:556   */\n      tag_194\n        /* \"#utility.yul\":550:555   */\n      dup3\n        /* \"#utility.yul\":532:556   */\n      tag_161\n      jump\t// in\n    tag_194:\n        /* \"#utility.yul\":521:556   */\n      swap1\n      pop\n        /* \"#utility.yul\":466:562   */\n      swap2\n      swap1\n      pop\n      jump\t// out\n        /* \"#utility.yul\":568:690   */\n    tag_163:\n        /* \"#utility.yul\":641:665   */\n      tag_196\n        /* \"#utility.yul\":659:664   */\n      dup2\n        /* \"#utility.yul\":641:665   */\n      tag_162\n      jump\t// in\n    tag_196:\n        /* \"#utility.yul\":634:639   */\n      dup2\n        /* \"#utility.yul\":631:666   */\n      eq\n        /* \"#utility.yul\":621:684   */\n      tag_197\n      jumpi\n        /* \"#utility.yul\":680:681   */\n      0x00\n        /* \"#utility.yul\":677:678   */\n      dup1\n        /* \"#utility.yul\":670:682   */\n      revert\n        /* \"#utility.yul\":621:684   */\n    tag_197:\n        /* \"#utility.yul\":568:690   */\n      pop\n      jump\t// out\n        /* \"#utility.yul\":696:835   */\n    tag_164:\n        /* \"#utility.yul\":742:747   */\n      0x00\n        /* \"#utility.yul\":780:786   */\n      dup2\n        /* \"#utility.yul\":767:787   */\n      calldataload\n        /* \"#utility.yul\":758:787   */\n      swap1\n      pop\n        /* \"#utility.yul\":796:829   */\n      tag_199\n        /* \"#utility.yul\":823:828   */\n      dup2\n        /* \"#utility.yul\":796:829   */\n      tag_163\n      jump\t// in\n    tag_199:\n        /* \"#utility.yul\":696:835   */\n      swap3\n      swap2\n      pop\n      pop\n      jump\t// out\n        /* \"#utility.yul\":841:1170   */\n    tag_24:\n        /* \"#utility.yul\":900:906   */\n      0x00\n        /* \"#utility.yul\":949:951   */\n      0x20\n        /* \"#utility.yul\":937:946   */\n      dup3\n        /* \"#utility.yul\":928:935   */\n      dup5\n        /* \"#utility.yul\":924:947   */\n      sub\n        /* \"#utility.yul\":920:952   */\n      slt\n        /* \"#utility.yul\":917:1036   */\n      iszero\n      tag_201\n      jumpi\n        /* \"#utility.yul\":955:1034   */\n      tag_202\n      tag_159\n      jump\t// in\n    tag_202:\n        /* \"#utility.yul\":917:1036   */\n    tag_201:\n        /* \"#utility.yul\":1075:1076   */\n      0x00\n        /* \"#utility.yul\":1100:1153   */\n      tag_203\n        /* \"#utility.yul\":1145:1152   */\n      dup5\n        /* \"#utility.yul\":1136:1142   */\n      dup3\n        /* \"#utility.yul\":1125:1134   */\n      dup6\n        /* \"#utility.yul\":1121:1143   */\n      add\n        /* \"#utility.yul\":1100:1153   */\n      tag_164\n      jump\t// in\n    tag_203:\n        /* \"#utility.yul\":1090:1153   */\n      swap2\n      pop\n        /* \"#utility.yul\":1046:1163   */\n      pop\n        /* \"#utility.yul\":841:1170   */\n      swap3\n      swap2\n      pop\n      pop\n      jump\t// out\n        /* \"#utility.yul\":1176:1253   */\n    tag_165:\n        /* \"#utility.yul\":1213:1220   */\n      0x00\n        /* \"#utility.yul\":1242:1247   */\n      dup2\n        /* \"#utility.yul\":1231:1247   */\n      swap1\n      pop\n        /* \"#utility.yul\":1176:1253   */\n      swap2\n      swap1\n      pop\n      jump\t// out\n        /* \"#utility.yul\":1259:1377   */\n    tag_166:\n        /* \"#utility.yul\":1346:1370   */\n      tag_206\n        /* \"#utility.yul\":1364:1369   */\n      dup2\n        /* \"#utility.yul\":1346:1370   */\n      tag_165\n      jump\t// in\n    tag_206:\n        /* \"#utility.yul\":1341:1344   */\n      dup3\n        /* \"#utility.yul\":1334:1371   */\n      mstore\n        /* \"#utility.yul\":1259:1377   */\n      pop\n      pop\n      jump\t// out\n        /* \"#utility.yul\":1383:1605   */\n    tag_27:\n        /* \"#utility.yul\":1476:1480   */\n      0x00\n        /* \"#utility.yul\":1514:1516   */\n      0x20\n        /* \"#utility.yul\":1503:1512   */\n      dup3\n        /* \"#utility.yul\":1499:1517   */\n      add\n        /* \"#utility.yul\":1491:1517   */\n      swap1\n      pop\n        /* \"#utility.yul\":1527:1598   */\n      tag_208\n        /* \"#utility.yul\":1595:1596   */\n      0x00\n        /* \"#utility.yul\":1584:1593   */\n      dup4\n        /* \"#utility.yul\":1580:1597   */\n      add\n        /* \"#utility.yul\":1571:1577   */\n      dup5\n        /* \"#utility.yul\":1527:1598   */\n      tag_166\n      jump\t// in\n    tag_208:\n        /* \"#utility.yul\":1383:1605   */\n      swap3\n      swap2\n      pop\n      pop\n      jump\t// out\n        /* \"#utility.yul\":1611:1791   */\n    tag_80:\n        /* \"#utility.yul\":1659:1736   */\n      0x4e487b7100000000000000000000000000000000000000000000000000000000\n        /* \"#utility.yul\":1656:1657   */\n      0x00\n        /* \"#utility.yul\":1649:1737   */\n      mstore\n        /* \"#utility.yul\":1756:1760   */\n      0x21\n        /* \"#utility.yul\":1753:1754   */\n      0x04\n        /* \"#utility.yul\":1746:1761   */\n      mstore\n        /* \"#utility.yul\":1780:1784   */\n      0x24\n        /* \"#utility.yul\":1777:1778   */\n      0x00\n        /* \"#utility.yul\":1770:1785   */\n      revert\n        /* \"#utility.yul\":1797:1917   */\n    tag_167:\n        /* \"#utility.yul\":1885:1886   */\n      0x03\n        /* \"#utility.yul\":1878:1883   */\n      dup2\n        /* \"#utility.yul\":1875:1887   */\n      lt\n        /* \"#utility.yul\":1865:1911   */\n      tag_211\n      jumpi\n        /* \"#utility.yul\":1891:1909   */\n      tag_212\n      tag_80\n      jump\t// in\n    tag_212:\n        /* \"#utility.yul\":1865:1911   */\n    tag_211:\n        /* \"#utility.yul\":1797:1917   */\n      pop\n      jump\t// out\n        /* \"#utility.yul\":1923:2064   */\n    tag_168:\n        /* \"#utility.yul\":1975:1982   */\n      0x00\n        /* \"#utility.yul\":2004:2009   */\n      dup2\n        /* \"#utility.yul\":1993:2009   */\n      swap1\n      pop\n        /* \"#utility.yul\":2010:2058   */\n      tag_214\n        /* \"#utility.yul\":2052:2057   */\n      dup3\n        /* \"#utility.yul\":2010:2058   */\n      tag_167\n      jump\t// in\n    tag_214:\n        /* \"#utility.yul\":1923:2064   */\n      swap2\n      swap1\n      pop\n      jump\t// out\n        /* \"#utility.yul\":2070:2211   */\n    tag_169:\n        /* \"#utility.yul\":2133:2142   */\n      0x00\n        /* \"#utility.yul\":2166:2205   */\n      tag_216\n        /* \"#utility.yul\":2199:2204   */\n      dup3\n        /* \"#utility.yul\":2166:2205   */\n      tag_168\n      jump\t// in\n    tag_216:\n        /* \"#utility.yul\":2153:2205   */\n      swap1\n      pop\n        /* \"#utility.yul\":2070:2211   */\n      swap2\n      swap1\n      pop\n      jump\t// out\n        /* \"#utility.yul\":2217:2374   */\n    tag_170:\n        /* \"#utility.yul\":2317:2367   */\n      tag_218\n        /* \"#utility.yul\":2361:2366   */\n      dup2\n        /* \"#utility.yul\":2317:2367   */\n      tag_169\n      jump\t// in\n    tag_218:\n        /* \"#utility.yul\":2312:2315   */\n      dup3\n        /* \"#utility.yul\":2305:2368   */\n      mstore\n        /* \"#utility.yul\":2217:2374   */\n      pop\n      pop\n      jump\t// out\n        /* \"#utility.yul\":2380:2628   */\n    tag_34:\n        /* \"#utility.yul\":2486:2490   */\n      0x00\n        /* \"#utility.yul\":2524:2526   */\n      0x20\n        /* \"#utility.yul\":2513:2522   */\n      dup3\n        /* \"#utility.yul\":2509:2527   */\n      add\n        /* \"#utility.yul\":2501:2527   */\n      swap1\n      pop\n        /* \"#utility.yul\":2537:2621   */\n      tag_220\n        /* \"#utility.yul\":2618:2619   */\n      0x00\n        /* \"#utility.yul\":2607:2616   */\n      dup4\n        /* \"#utility.yul\":2603:2620   */\n      add\n        /* \"#utility.yul\":2594:2600   */\n      dup5\n        /* \"#utility.yul\":2537:2621   */\n      tag_170\n      jump\t// in\n    tag_220:\n        /* \"#utility.yul\":2380:2628   */\n      swap3\n      swap2\n      pop\n      pop\n      jump\t// out\n        /* \"#utility.yul\":2634:2752   */\n    tag_171:\n        /* \"#utility.yul\":2721:2745   */\n      tag_222\n        /* \"#utility.yul\":2739:2744   */\n      dup2\n        /* \"#utility.yul\":2721:2745   */\n      tag_162\n      jump\t// in\n    tag_222:\n        /* \"#utility.yul\":2716:2719   */\n      dup3\n        /* \"#utility.yul\":2709:2746   */\n      mstore\n        /* \"#utility.yul\":2634:2752   */\n      pop\n      pop\n      jump\t// out\n        /* \"#utility.yul\":2758:2980   */\n    tag_45:\n        /* \"#utility.yul\":2851:2855   */\n      0x00\n        /* \"#utility.yul\":2889:2891   */\n      0x20\n        /* \"#utility.yul\":2878:2887   */\n      dup3\n        /* \"#utility.yul\":2874:2892   */\n      add\n        /* \"#utility.yul\":2866:2892   */\n      swap1\n      pop\n        /* \"#utility.yul\":2902:2973   */\n      tag_224\n        /* \"#utility.yul\":2970:2971   */\n      0x00\n        /* \"#utility.yul\":2959:2968   */\n      dup4\n        /* \"#utility.yul\":2955:2972   */\n      add\n        /* \"#utility.yul\":2946:2952   */\n      dup5\n        /* \"#utility.yul\":2902:2973   */\n      tag_171\n      jump\t// in\n    tag_224:\n        /* \"#utility.yul\":2758:2980   */\n      swap3\n      swap2\n      pop\n      pop\n      jump\t// out\n        /* \"#utility.yul\":2986:3076   */\n    tag_172:\n        /* \"#utility.yul\":3020:3027   */\n      0x00\n        /* \"#utility.yul\":3063:3068   */\n      dup2\n        /* \"#utility.yul\":3056:3069   */\n      iszero\n        /* \"#utility.yul\":3049:3070   */\n      iszero\n        /* \"#utility.yul\":3038:3070   */\n      swap1\n      pop\n        /* \"#utility.yul\":2986:3076   */\n      swap2\n      swap1\n      pop\n      jump\t// out\n        /* \"#utility.yul\":3082:3191   */\n    tag_173:\n        /* \"#utility.yul\":3163:3184   */\n      tag_227\n        /* \"#utility.yul\":3178:3183   */\n      dup2\n        /* \"#utility.yul\":3163:3184   */\n      tag_172\n      jump\t// in\n    tag_227:\n        /* \"#utility.yul\":3158:3161   */\n      dup3\n        /* \"#utility.yul\":3151:3185   */\n      mstore\n        /* \"#utility.yul\":3082:3191   */\n      pop\n      pop\n      jump\t// out\n        /* \"#utility.yul\":3197:3407   */\n    tag_50:\n        /* \"#utility.yul\":3284:3288   */\n      0x00\n        /* \"#utility.yul\":3322:3324   */\n      0x20\n        /* \"#utility.yul\":3311:3320   */\n      dup3\n        /* \"#utility.yul\":3307:3325   */\n      add\n        /* \"#utility.yul\":3299:3325   */\n      swap1\n      pop\n        /* \"#utility.yul\":3335:3400   */\n      tag_229\n        /* \"#utility.yul\":3397:3398   */\n      0x00\n        /* \"#utility.yul\":3386:3395   */\n      dup4\n        /* \"#utility.yul\":3382:3399   */\n      add\n        /* \"#utility.yul\":3373:3379   */\n      dup5\n        /* \"#utility.yul\":3335:3400   */\n      tag_173\n      jump\t// in\n    tag_229:\n        /* \"#utility.yul\":3197:3407   */\n      swap3\n      swap2\n      pop\n      pop\n      jump\t// out\n        /* \"#utility.yul\":3413:3582   */\n    tag_174:\n        /* \"#utility.yul\":3497:3508   */\n      0x00\n        /* \"#utility.yul\":3531:3537   */\n      dup3\n        /* \"#utility.yul\":3526:3529   */\n      dup3\n        /* \"#utility.yul\":3519:3538   */\n      mstore\n        /* \"#utility.yul\":3571:3575   */\n      0x20\n        /* \"#utility.yul\":3566:3569   */\n      dup3\n        /* \"#utility.yul\":3562:3576   */\n      add\n        /* \"#utility.yul\":3547:3576   */\n      swap1\n      pop\n        /* \"#utility.yul\":3413:3582   */\n      swap3\n      swap2\n      pop\n      pop\n      jump\t// out\n        /* \"#utility.yul\":3588:3818   */\n    tag_175:\n        /* \"#utility.yul\":3728:3762   */\n      0x4f6e6c7920696e6672617374727563747572652063616e2063616c6c20746869\n        /* \"#utility.yul\":3724:3725   */\n      0x00\n        /* \"#utility.yul\":3716:3722   */\n      dup3\n        /* \"#utility.yul\":3712:3726   */\n      add\n        /* \"#utility.yul\":3705:3763   */\n      mstore\n        /* \"#utility.yul\":3797:3810   */\n      0x732066756e6374696f6e2e000000000000000000000000000000000000000000\n        /* \"#utility.yul\":3792:3794   */\n      0x20\n        /* \"#utility.yul\":3784:3790   */\n      dup3\n        /* \"#utility.yul\":3780:3795   */\n      add\n        /* \"#utility.yul\":3773:3811   */\n      mstore\n        /* \"#utility.yul\":3588:3818   */\n      pop\n      jump\t// out\n        /* \"#utility.yul\":3824:4190   */\n    tag_176:\n        /* \"#utility.yul\":3966:3969   */\n      0x00\n        /* \"#utility.yul\":3987:4054   */\n      tag_233\n        /* \"#utility.yul\":4051:4053   */\n      0x2b\n        /* \"#utility.yul\":4046:4049   */\n      dup4\n        /* \"#utility.yul\":3987:4054   */\n      tag_174\n      jump\t// in\n    tag_233:\n        /* \"#utility.yul\":3980:4054   */\n      swap2\n      pop\n        /* \"#utility.yul\":4063:4156   */\n      tag_234\n        /* \"#utility.yul\":4152:4155   */\n      dup3\n        /* \"#utility.yul\":4063:4156   */\n      tag_175\n      jump\t// in\n    tag_234:\n        /* \"#utility.yul\":4181:4183   */\n      0x40\n        /* \"#utility.yul\":4176:4179   */\n      dup3\n        /* \"#utility.yul\":4172:4184   */\n      add\n        /* \"#utility.yul\":4165:4184   */\n      swap1\n      pop\n        /* \"#utility.yul\":3824:4190   */\n      swap2\n      swap1\n      pop\n      jump\t// out\n        /* \"#utility.yul\":4196:4615   */\n    tag_76:\n        /* \"#utility.yul\":4362:4366   */\n      0x00\n        /* \"#utility.yul\":4400:4402   */\n      0x20\n        /* \"#utility.yul\":4389:4398   */\n      dup3\n        /* \"#utility.yul\":4385:4403   */\n      add\n        /* \"#utility.yul\":4377:4403   */\n      swap1\n      pop\n        /* \"#utility.yul\":4449:4458   */\n      dup2\n        /* \"#utility.yul\":4443:4447   */\n      dup2\n        /* \"#utility.yul\":4439:4459   */\n      sub\n        /* \"#utility.yul\":4435:4436   */\n      0x00\n        /* \"#utility.yul\":4424:4433   */\n      dup4\n        /* \"#utility.yul\":4420:4437   */\n      add\n        /* \"#utility.yul\":4413:4460   */\n      mstore\n        /* \"#utility.yul\":4477:4608   */\n      tag_236\n        /* \"#utility.yul\":4603:4607   */\n      dup2\n        /* \"#utility.yul\":4477:4608   */\n      tag_176\n      jump\t// in\n    tag_236:\n        /* \"#utility.yul\":4469:4608   */\n      swap1\n      pop\n        /* \"#utility.yul\":4196:4615   */\n      swap2\n      swap1\n      pop\n      jump\t// out\n        /* \"#utility.yul\":4621:4844   */\n    tag_177:\n        /* \"#utility.yul\":4761:4795   */\n      0x56656869636c6520686173206e6f7420726571756573746564207065726d6973\n        /* \"#utility.yul\":4757:4758   */\n      0x00\n        /* \"#utility.yul\":4749:4755   */\n      dup3\n        /* \"#utility.yul\":4745:4759   */\n      add\n        /* \"#utility.yul\":4738:4796   */\n      mstore\n        /* \"#utility.yul\":4830:4836   */\n      0x73696f6e00000000000000000000000000000000000000000000000000000000\n        /* \"#utility.yul\":4825:4827   */\n      0x20\n        /* \"#utility.yul\":4817:4823   */\n      dup3\n        /* \"#utility.yul\":4813:4828   */\n      add\n        /* \"#utility.yul\":4806:4837   */\n      mstore\n        /* \"#utility.yul\":4621:4844   */\n      pop\n      jump\t// out\n        /* \"#utility.yul\":4850:5216   */\n    tag_178:\n        /* \"#utility.yul\":4992:4995   */\n      0x00\n        /* \"#utility.yul\":5013:5080   */\n      tag_239\n        /* \"#utility.yul\":5077:5079   */\n      0x24\n        /* \"#utility.yul\":5072:5075   */\n      dup4\n        /* \"#utility.yul\":5013:5080   */\n      tag_174\n      jump\t// in\n    tag_239:\n        /* \"#utility.yul\":5006:5080   */\n      swap2\n      pop\n        /* \"#utility.yul\":5089:5182   */\n      tag_240\n        /* \"#utility.yul\":5178:5181   */\n      dup3\n        /* \"#utility.yul\":5089:5182   */\n      tag_177\n      jump\t// in\n    tag_240:\n        /* \"#utility.yul\":5207:5209   */\n      0x40\n        /* \"#utility.yul\":5202:5205   */\n      dup3\n        /* \"#utility.yul\":5198:5210   */\n      add\n        /* \"#utility.yul\":5191:5210   */\n      swap1\n      pop\n        /* \"#utility.yul\":4850:5216   */\n      swap2\n      swap1\n      pop\n      jump\t// out\n        /* \"#utility.yul\":5222:5641   */\n    tag_84:\n        /* \"#utility.yul\":5388:5392   */\n      0x00\n        /* \"#utility.yul\":5426:5428   */\n      0x20\n        /* \"#utility.yul\":5415:5424   */\n      dup3\n        /* \"#utility.yul\":5411:5429   */\n      add\n        /* \"#utility.yul\":5403:5429   */\n      swap1\n      pop\n        /* \"#utility.yul\":5475:5484   */\n      dup2\n        /* \"#utility.yul\":5469:5473   */\n      dup2\n        /* \"#utility.yul\":5465:5485   */\n      sub\n        /* \"#utility.yul\":5461:5462   */\n      0x00\n        /* \"#utility.yul\":5450:5459   */\n      dup4\n        /* \"#utility.yul\":5446:5463   */\n      add\n        /* \"#utility.yul\":5439:5486   */\n      mstore\n        /* \"#utility.yul\":5503:5634   */\n      tag_242\n        /* \"#utility.yul\":5629:5633   */\n      dup2\n        /* \"#utility.yul\":5503:5634   */\n      tag_178\n      jump\t// in\n    tag_242:\n        /* \"#utility.yul\":5495:5634   */\n      swap1\n      pop\n        /* \"#utility.yul\":5222:5641   */\n      swap2\n      swap1\n      pop\n      jump\t// out\n        /* \"#utility.yul\":5647:5827   */\n    tag_179:\n        /* \"#utility.yul\":5695:5772   */\n      0x4e487b7100000000000000000000000000000000000000000000000000000000\n        /* \"#utility.yul\":5692:5693   */\n      0x00\n        /* \"#utility.yul\":5685:5773   */\n      mstore\n        /* \"#utility.yul\":5792:5796   */\n      0x11\n        /* \"#utility.yul\":5789:5790   */\n      0x04\n        /* \"#utility.yul\":5782:5797   */\n      mstore\n        /* \"#utility.yul\":5816:5820   */\n      0x24\n        /* \"#utility.yul\":5813:5814   */\n      0x00\n        /* \"#utility.yul\":5806:5821   */\n      revert\n        /* \"#utility.yul\":5833:6004   */\n    tag_86:\n        /* \"#utility.yul\":5872:5875   */\n      0x00\n        /* \"#utility.yul\":5895:5919   */\n      tag_245\n        /* \"#utility.yul\":5913:5918   */\n      dup3\n        /* \"#utility.yul\":5895:5919   */\n      tag_165\n      jump\t// in\n    tag_245:\n        /* \"#utility.yul\":5886:5919   */\n      swap2\n      pop\n        /* \"#utility.yul\":5941:5945   */\n      0x00\n        /* \"#utility.yul\":5934:5939   */\n      dup3\n        /* \"#utility.yul\":5931:5946   */\n      sub\n        /* \"#utility.yul\":5928:5969   */\n      tag_246\n      jumpi\n        /* \"#utility.yul\":5949:5967   */\n      tag_247\n      tag_179\n      jump\t// in\n    tag_247:\n        /* \"#utility.yul\":5928:5969   */\n    tag_246:\n        /* \"#utility.yul\":5996:5997   */\n      0x01\n        /* \"#utility.yul\":5989:5994   */\n      dup3\n        /* \"#utility.yul\":5985:5998   */\n      sub\n        /* \"#utility.yul\":5978:5998   */\n      swap1\n      pop\n        /* \"#utility.yul\":5833:6004   */\n      swap2\n      swap1\n      pop\n      jump\t// out\n        /* \"#utility.yul\":6010:6234   */\n    tag_180:\n        /* \"#utility.yul\":6150:6184   */\n      0x596f7520646f6e27742068617665207065726d697373696f6e20746f2072656c\n        /* \"#utility.yul\":6146:6147   */\n      0x00\n        /* \"#utility.yul\":6138:6144   */\n      dup3\n        /* \"#utility.yul\":6134:6148   */\n      add\n        /* \"#utility.yul\":6127:6185   */\n      mstore\n        /* \"#utility.yul\":6219:6226   */\n      0x656173652e000000000000000000000000000000000000000000000000000000\n        /* \"#utility.yul\":6214:6216   */\n      0x20\n        /* \"#utility.yul\":6206:6212   */\n      dup3\n        /* \"#utility.yul\":6202:6217   */\n      add\n        /* \"#utility.yul\":6195:6227   */\n      mstore\n        /* \"#utility.yul\":6010:6234   */\n      pop\n      jump\t// out\n        /* \"#utility.yul\":6240:6606   */\n    tag_181:\n        /* \"#utility.yul\":6382:6385   */\n      0x00\n        /* \"#utility.yul\":6403:6470   */\n      tag_250\n        /* \"#utility.yul\":6467:6469   */\n      0x25\n        /* \"#utility.yul\":6462:6465   */\n      dup4\n        /* \"#utility.yul\":6403:6470   */\n      tag_174\n      jump\t// in\n    tag_250:\n        /* \"#utility.yul\":6396:6470   */\n      swap2\n      pop\n        /* \"#utility.yul\":6479:6572   */\n      tag_251\n        /* \"#utility.yul\":6568:6571   */\n      dup3\n        /* \"#utility.yul\":6479:6572   */\n      tag_180\n      jump\t// in\n    tag_251:\n        /* \"#utility.yul\":6597:6599   */\n      0x40\n        /* \"#utility.yul\":6592:6595   */\n      dup3\n        /* \"#utility.yul\":6588:6600   */\n      add\n        /* \"#utility.yul\":6581:6600   */\n      swap1\n      pop\n        /* \"#utility.yul\":6240:6606   */\n      swap2\n      swap1\n      pop\n      jump\t// out\n        /* \"#utility.yul\":6612:7031   */\n    tag_91:\n        /* \"#utility.yul\":6778:6782   */\n      0x00\n        /* \"#utility.yul\":6816:6818   */\n      0x20\n        /* \"#utility.yul\":6805:6814   */\n      dup3\n        /* \"#utility.yul\":6801:6819   */\n      add\n        /* \"#utility.yul\":6793:6819   */\n      swap1\n      pop\n        /* \"#utility.yul\":6865:6874   */\n      dup2\n        /* \"#utility.yul\":6859:6863   */\n      dup2\n        /* \"#utility.yul\":6855:6875   */\n      sub\n        /* \"#utility.yul\":6851:6852   */\n      0x00\n        /* \"#utility.yul\":6840:6849   */\n      dup4\n        /* \"#utility.yul\":6836:6853   */\n      add\n        /* \"#utility.yul\":6829:6876   */\n      mstore\n        /* \"#utility.yul\":6893:7024   */\n      tag_253\n        /* \"#utility.yul\":7019:7023   */\n      dup2\n        /* \"#utility.yul\":6893:7024   */\n      tag_181\n      jump\t// in\n    tag_253:\n        /* \"#utility.yul\":6885:7024   */\n      swap1\n      pop\n        /* \"#utility.yul\":6612:7031   */\n      swap2\n      swap1\n      pop\n      jump\t// out\n        /* \"#utility.yul\":7037:7357   */\n    tag_99:\n        /* \"#utility.yul\":7152:7156   */\n      0x00\n        /* \"#utility.yul\":7190:7192   */\n      0x40\n        /* \"#utility.yul\":7179:7188   */\n      dup3\n        /* \"#utility.yul\":7175:7193   */\n      add\n        /* \"#utility.yul\":7167:7193   */\n      swap1\n      pop\n        /* \"#utility.yul\":7203:7274   */\n      tag_255\n        /* \"#utility.yul\":7271:7272   */\n      0x00\n        /* \"#utility.yul\":7260:7269   */\n      dup4\n        /* \"#utility.yul\":7256:7273   */\n      add\n        /* \"#utility.yul\":7247:7253   */\n      dup6\n        /* \"#utility.yul\":7203:7274   */\n      tag_171\n      jump\t// in\n    tag_255:\n        /* \"#utility.yul\":7284:7350   */\n      tag_256\n        /* \"#utility.yul\":7346:7348   */\n      0x20\n        /* \"#utility.yul\":7335:7344   */\n      dup4\n        /* \"#utility.yul\":7331:7349   */\n      add\n        /* \"#utility.yul\":7322:7328   */\n      dup5\n        /* \"#utility.yul\":7284:7350   */\n      tag_173\n      jump\t// in\n    tag_256:\n        /* \"#utility.yul\":7037:7357   */\n      swap4\n      swap3\n      pop\n      pop\n      pop\n      jump\t// out\n        /* \"#utility.yul\":7363:7596   */\n    tag_102:\n        /* \"#utility.yul\":7402:7405   */\n      0x00\n        /* \"#utility.yul\":7425:7449   */\n      tag_258\n        /* \"#utility.yul\":7443:7448   */\n      dup3\n        /* \"#utility.yul\":7425:7449   */\n      tag_165\n      jump\t// in\n    tag_258:\n        /* \"#utility.yul\":7416:7449   */\n      swap2\n      pop\n        /* \"#utility.yul\":7471:7537   */\n      0xffffffffffffffffffffffffffffffffffffffffffffffffffffffffffffffff\n        /* \"#utility.yul\":7464:7469   */\n      dup3\n        /* \"#utility.yul\":7461:7538   */\n      sub\n        /* \"#utility.yul\":7458:7561   */\n      tag_259\n      jumpi\n        /* \"#utility.yul\":7541:7559   */\n      tag_260\n      tag_179\n      jump\t// in\n    tag_260:\n        /* \"#utility.yul\":7458:7561   */\n    tag_259:\n        /* \"#utility.yul\":7588:7589   */\n      0x01\n        /* \"#utility.yul\":7581:7586   */\n      dup3\n        /* \"#utility.yul\":7577:7590   */\n      add\n        /* \"#utility.yul\":7570:7590   */\n      swap1\n      pop\n        /* \"#utility.yul\":7363:7596   */\n      swap2\n      swap1\n      pop\n      jump\t// out\n        /* \"#utility.yul\":7602:7796   */\n    tag_111:\n        /* \"#utility.yul\":7642:7646   */\n      0x00\n        /* \"#utility.yul\":7662:7682   */\n      tag_262\n        /* \"#utility.yul\":7680:7681   */\n      dup3\n        /* \"#utility.yul\":7662:7682   */\n      tag_165\n      jump\t// in\n    tag_262:\n        /* \"#utility.yul\":7657:7682   */\n      swap2\n      pop\n        /* \"#utility.yul\":7696:7716   */\n      tag_263\n        /* \"#utility.yul\":7714:7715   */\n      dup4\n        /* \"#utility.yul\":7696:7716   */\n      tag_165\n      jump\t// in\n    tag_263:\n        /* \"#utility.yul\":7691:7716   */\n      swap3\n      pop\n        /* \"#utility.yul\":7740:7741   */\n      dup3\n        /* \"#utility.yul\":7737:7738   */\n      dup3\n        /* \"#utility.yul\":7733:7742   */\n      sub\n        /* \"#utility.yul\":7725:7742   */\n      swap1\n      pop\n        /* \"#utility.yul\":7764:7765   */\n      dup2\n        /* \"#utility.yul\":7758:7762   */\n      dup2\n        /* \"#utility.yul\":7755:7766   */\n      gt\n        /* \"#utility.yul\":7752:7789   */\n      iszero\n      tag_264\n      jumpi\n        /* \"#utility.yul\":7769:7787   */\n      tag_265\n      tag_179\n      jump\t// in\n    tag_265:\n        /* \"#utility.yul\":7752:7789   */\n    tag_264:\n        /* \"#utility.yul\":7602:7796   */\n      swap3\n      swap2\n      pop\n      pop\n      jump\t// out\n        /* \"#utility.yul\":7802:7982   */\n    tag_182:\n        /* \"#utility.yul\":7942:7974   */\n      0x43726f7373696e67206973206e6f74206672656520746f2063726f73732e0000\n        /* \"#utility.yul\":7938:7939   */\n      0x00\n        /* \"#utility.yul\":7930:7936   */\n      dup3\n        /* \"#utility.yul\":7926:7940   */\n      add\n        /* \"#utility.yul\":7919:7975   */\n      mstore\n        /* \"#utility.yul\":7802:7982   */\n      pop\n      jump\t// out\n        /* \"#utility.yul\":7988:8354   */\n    tag_183:\n        /* \"#utility.yul\":8130:8133   */\n      0x00\n        /* \"#utility.yul\":8151:8218   */\n      tag_268\n        /* \"#utility.yul\":8215:8217   */\n      0x1e\n        /* \"#utility.yul\":8210:8213   */\n      dup4\n        /* \"#utility.yul\":8151:8218   */\n      tag_174\n      jump\t// in\n    tag_268:\n        /* \"#utility.yul\":8144:8218   */\n      swap2\n      pop\n        /* \"#utility.yul\":8227:8320   */\n      tag_269\n        /* \"#utility.yul\":8316:8319   */\n      dup3\n        /* \"#utility.yul\":8227:8320   */\n      tag_182\n      jump\t// in\n    tag_269:\n        /* \"#utility.yul\":8345:8347   */\n      0x20\n        /* \"#utility.yul\":8340:8343   */\n      dup3\n        /* \"#utility.yul\":8336:8348   */\n      add\n        /* \"#utility.yul\":8329:8348   */\n      swap1\n      pop\n        /* \"#utility.yul\":7988:8354   */\n      swap2\n      swap1\n      pop\n      jump\t// out\n        /* \"#utility.yul\":8360:8779   */\n    tag_131:\n        /* \"#utility.yul\":8526:8530   */\n      0x00\n        /* \"#utility.yul\":8564:8566   */\n      0x20\n        /* \"#utility.yul\":8553:8562   */\n      dup3\n        /* \"#utility.yul\":8549:8567   */\n      add\n        /* \"#utility.yul\":8541:8567   */\n      swap1\n      pop\n        /* \"#utility.yul\":8613:8622   */\n      dup2\n        /* \"#utility.yul\":8607:8611   */\n      dup2\n        /* \"#utility.yul\":8603:8623   */\n      sub\n        /* \"#utility.yul\":8599:8600   */\n      0x00\n        /* \"#utility.yul\":8588:8597   */\n      dup4\n        /* \"#utility.yul\":8584:8601   */\n      add\n        /* \"#utility.yul\":8577:8624   */\n      mstore\n        /* \"#utility.yul\":8641:8772   */\n      tag_271\n        /* \"#utility.yul\":8767:8771   */\n      dup2\n        /* \"#utility.yul\":8641:8772   */\n      tag_183\n      jump\t// in\n    tag_271:\n        /* \"#utility.yul\":8633:8772   */\n      swap1\n      pop\n        /* \"#utility.yul\":8360:8779   */\n      swap2\n      swap1\n      pop\n      jump\t// out\n        /* \"#utility.yul\":8785:8952   */\n    tag_184:\n        /* \"#utility.yul\":8925:8944   */\n      0x43726f7373696e672069732066756c6c2e000000000000000000000000000000\n        /* \"#utility.yul\":8921:8922   */\n      0x00\n        /* \"#utility.yul\":8913:8919   */\n      dup3\n        /* \"#utility.yul\":8909:8923   */\n      add\n        /* \"#utility.yul\":8902:8945   */\n      mstore\n        /* \"#utility.yul\":8785:8952   */\n      pop\n      jump\t// out\n        /* \"#utility.yul\":8958:9324   */\n    tag_185:\n        /* \"#utility.yul\":9100:9103   */\n      0x00\n        /* \"#utility.yul\":9121:9188   */\n      tag_274\n        /* \"#utility.yul\":9185:9187   */\n      0x11\n        /* \"#utility.yul\":9180:9183   */\n      dup4\n        /* \"#utility.yul\":9121:9188   */\n      tag_174\n      jump\t// in\n    tag_274:\n        /* \"#utility.yul\":9114:9188   */\n      swap2\n      pop\n        /* \"#utility.yul\":9197:9290   */\n      tag_275\n        /* \"#utility.yul\":9286:9289   */\n      dup3\n        /* \"#utility.yul\":9197:9290   */\n      tag_184\n      jump\t// in\n    tag_275:\n        /* \"#utility.yul\":9315:9317   */\n      0x20\n        /* \"#utility.yul\":9310:9313   */\n      dup3\n        /* \"#utility.yul\":9306:9318   */\n      add\n        /* \"#utility.yul\":9299:9318   */\n      swap1\n      pop\n        /* \"#utility.yul\":8958:9324   */\n      swap2\n      swap1\n      pop\n      jump\t// out\n        /* \"#utility.yul\":9330:9749   */\n    tag_135:\n        /* \"#utility.yul\":9496:9500   */\n      0x00\n        /* \"#utility.yul\":9534:9536   */\n      0x20\n        /* \"#utility.yul\":9523:9532   */\n      dup3\n        /* \"#utility.yul\":9519:9537   */\n      add\n        /* \"#utility.yul\":9511:9537   */\n      swap1\n      pop\n        /* \"#utility.yul\":9583:9592   */\n      dup2\n        /* \"#utility.yul\":9577:9581   */\n      dup2\n        /* \"#utility.yul\":9573:9593   */\n      sub\n        /* \"#utility.yul\":9569:9570   */\n      0x00\n        /* \"#utility.yul\":9558:9567   */\n      dup4\n        /* \"#utility.yul\":9554:9571   */\n      add\n        /* \"#utility.yul\":9547:9594   */\n      mstore\n        /* \"#utility.yul\":9611:9742   */\n      tag_277\n        /* \"#utility.yul\":9737:9741   */\n      dup2\n        /* \"#utility.yul\":9611:9742   */\n      tag_185\n      jump\t// in\n    tag_277:\n        /* \"#utility.yul\":9603:9742   */\n      swap1\n      pop\n        /* \"#utility.yul\":9330:9749   */\n      swap2\n      swap1\n      pop\n      jump\t// out\n        /* \"#utility.yul\":9755:9921   */\n    tag_186:\n        /* \"#utility.yul\":9895:9913   */\n      0x416c72656164792063726f7373696e6700000000000000000000000000000000\n        /* \"#utility.yul\":9891:9892   */\n      0x00\n        /* \"#utility.yul\":9883:9889   */\n      dup3\n        /* \"#utility.yul\":9879:9893   */\n      add\n        /* \"#utility.yul\":9872:9914   */\n      mstore\n        /* \"#utility.yul\":9755:9921   */\n      pop\n      jump\t// out\n        /* \"#utility.yul\":9927:10293   */\n    tag_187:\n        /* \"#utility.yul\":10069:10072   */\n      0x00\n        /* \"#utility.yul\":10090:10157   */\n      tag_280\n        /* \"#utility.yul\":10154:10156   */\n      0x10\n        /* \"#utility.yul\":10149:10152   */\n      dup4\n        /* \"#utility.yul\":10090:10157   */\n      tag_174\n      jump\t// in\n    tag_280:\n        /* \"#utility.yul\":10083:10157   */\n      swap2\n      pop\n        /* \"#utility.yul\":10166:10259   */\n      tag_281\n        /* \"#utility.yul\":10255:10258   */\n      dup3\n        /* \"#utility.yul\":10166:10259   */\n      tag_186\n      jump\t// in\n    tag_281:\n        /* \"#utility.yul\":10284:10286   */\n      0x20\n        /* \"#utility.yul\":10279:10282   */\n      dup3\n        /* \"#utility.yul\":10275:10287   */\n      add\n        /* \"#utility.yul\":10268:10287   */\n      swap1\n      pop\n        /* \"#utility.yul\":9927:10293   */\n      swap2\n      swap1\n      pop\n      jump\t// out\n        /* \"#utility.yul\":10299:10718   */\n    tag_139:\n        /* \"#utility.yul\":10465:10469   */\n      0x00\n        /* \"#utility.yul\":10503:10505   */\n      0x20\n        /* \"#utility.yul\":10492:10501   */\n      dup3\n        /* \"#utility.yul\":10488:10506   */\n      add\n        /* \"#utility.yul\":10480:10506   */\n      swap1\n      pop\n        /* \"#utility.yul\":10552:10561   */\n      dup2\n        /* \"#utility.yul\":10546:10550   */\n      dup2\n        /* \"#utility.yul\":10542:10562   */\n      sub\n        /* \"#utility.yul\":10538:10539   */\n      0x00\n        /* \"#utility.yul\":10527:10536   */\n      dup4\n        /* \"#utility.yul\":10523:10540   */\n      add\n        /* \"#utility.yul\":10516:10563   */\n      mstore\n        /* \"#utility.yul\":10580:10711   */\n      tag_283\n        /* \"#utility.yul\":10706:10710   */\n      dup2\n        /* \"#utility.yul\":10580:10711   */\n      tag_187\n      jump\t// in\n    tag_283:\n        /* \"#utility.yul\":10572:10711   */\n      swap1\n      pop\n        /* \"#utility.yul\":10299:10718   */\n      swap2\n      swap1\n      pop\n      jump\t// out\n\n    auxdata: 0xa2646970667358221220333c1337969df7f5768925c77c3d58114dfdb52238639d8452c1d63ed3b8b08464736f6c63430008160033\n}\n",
				"bytecode": {
					"linkReferences": {},
					"object": "608060405234801562000010575f80fd5b50604051620013b8380380620013b8833981810160405281019062000036919062000111565b335f60016101000a81548173ffffffffffffffffffffffffffffffffffffffff021916908373ffffffffffffffffffffffffffffffffffffffff16021790555082600281905550816003819055508060048190555060015f806101000a81548160ff02191690836002811115620000b257620000b16200016a565b5b02179055505f6005819055505f6006819055504260018190555050505062000197565b5f80fd5b5f819050919050565b620000ed81620000d9565b8114620000f8575f80fd5b50565b5f815190506200010b81620000e2565b92915050565b5f805f606084860312156200012b576200012a620000d5565b5b5f6200013a86828701620000fb565b93505060206200014d86828701620000fb565b92505060406200016086828701620000fb565b9150509250925092565b7f4e487b71000000000000000000000000000000000000000000000000000000005f52602160045260245ffd5b61121380620001a55f395ff3fe608060405234801561000f575f80fd5b50600436106100fe575f3560e01c8063baa1285911610095578063e4fa8da911610064578063e4fa8da914610264578063e888711814610282578063ebe0435c1461028c578063fae68b4d14610296576100fe565b8063baa12859146101ee578063c04637111461021e578063cee321d61461023c578063e4d6bec81461025a576100fe565b806374e18625116100d157806374e186251461018c57806396469b25146101965780639bd565d6146101a0578063a21c30de146101be576100fe565b80633c3244ab146101025780633ed6ba3d1461013257806340ef3a69146101505780636bab98041461016e575b5f80fd5b61011c60048036038101906101179190610cb3565b6102b4565b6040516101299190610cf6565b60405180910390f35b61013a6102c9565b6040516101479190610cf6565b60405180910390f35b6101586102cf565b6040516101659190610d82565b60405180910390f35b6101766102df565b6040516101839190610cf6565b60405180910390f35b6101946102e5565b005b61019e6103a5565b005b6101a86104d2565b6040516101b59190610daa565b60405180910390f35b6101d860048036038101906101d39190610cb3565b6104f7565b6040516101e59190610ddd565b60405180910390f35b61020860048036038101906102039190610cb3565b610514565b6040516102159190610ddd565b60405180910390f35b610226610531565b6040516102339190610cf6565b60405180910390f35b610244610537565b6040516102519190610cf6565b60405180910390f35b61026261053d565b005b61026c61069c565b6040516102799190610cf6565b60405180910390f35b61028a6106a2565b005b61029461099f565b005b61029e610b8e565b6040516102ab9190610cf6565b60405180910390f35b6009602052805f5260405f205f915090505481565b60045481565b5f8054906101000a900460ff1681565b60035481565b5f60019054906101000a900473ffffffffffffffffffffffffffffffffffffffff1673ffffffffffffffffffffffffffffffffffffffff163373ffffffffffffffffffffffffffffffffffffffff1614610374576040517f08c379a000000000000000000000000000000000000000000000000000000000815260040161036b90610e76565b60405180910390fd5b5f805f6101000a81548160ff0219169083600281111561039757610396610d0f565b5b021790555042600181905550565b60075f3373ffffffffffffffffffffffffffffffffffffffff1673ffffffffffffffffffffffffffffffffffffffff1681526020019081526020015f205f9054906101000a900460ff1661042e576040517f08c379a000000000000000000000000000000000000000000000000000000000815260040161042590610f04565b60405180910390fd5b5f60075f3373ffffffffffffffffffffffffffffffffffffffff1673ffffffffffffffffffffffffffffffffffffffff1681526020019081526020015f205f6101000a81548160ff02191690831515021790555060055f81548092919061049490610f4f565b91905055507f2e88ceae333b5a571097904aed082642c40e10839dd32e2a0753d8008a89e2e1336040516104c89190610daa565b60405180910390a1565b5f60019054906101000a900473ffffffffffffffffffffffffffffffffffffffff1681565b6008602052805f5260405f205f915054906101000a900460ff1681565b6007602052805f5260405f205f915054906101000a900460ff1681565b60015481565b60055481565b60085f3373ffffffffffffffffffffffffffffffffffffffff1673ffffffffffffffffffffffffffffffffffffffff1681526020019081526020015f205f9054906101000a900460ff166105c6576040517f08c379a00000000000000000000000000000000000000000000000000000000081526004016105bd90610fe6565b60405180910390fd5b5f60085f3373ffffffffffffffffffffffffffffffffffffffff1673ffffffffffffffffffffffffffffffffffffffff1681526020019081526020015f205f6101000a81548160ff02191690831515021790555060065f81548092919061062c90610f4f565b91905055505f60065403610663575f805f6101000a81548160ff0219169083600281111561065d5761065c610d0f565b5b02179055505b7f3c0ea4a00d4de0ccc27897a7a04782de620b5fe6df6cb5601d2560e3aee591c4336040516106929190610daa565b60405180910390a1565b60025481565b7f99dabed7f6f5ed6344a92aa6d218a2783233053b23aab6cc21a53bf4c5980f503360085f3373ffffffffffffffffffffffffffffffffffffffff1673ffffffffffffffffffffffffffffffffffffffff1681526020019081526020015f205f9054906101000a900460ff161560405161071d929190611004565b60405180910390a160085f3373ffffffffffffffffffffffffffffffffffffffff1673ffffffffffffffffffffffffffffffffffffffff1681526020019081526020015f205f9054906101000a900460ff1661082257600160085f3373ffffffffffffffffffffffffffffffffffffffff1673ffffffffffffffffffffffffffffffffffffffff1681526020019081526020015f205f6101000a81548160ff0219169083151502179055504260095f3373ffffffffffffffffffffffffffffffffffffffff1673ffffffffffffffffffffffffffffffffffffffff1681526020019081526020015f208190555060065f81548092919061081c9061102b565b91905055505b61082a610b94565b60028081111561083d5761083c610d0f565b5b5f8054906101000a900460ff16600281111561085c5761085b610d0f565b5b0361092b5760045460095f3373ffffffffffffffffffffffffffffffffffffffff1673ffffffffffffffffffffffffffffffffffffffff1681526020019081526020015f2054426108ad9190611072565b11156108ef577f273d510e41fd7354aecc3dd5a1af735cae0c081cf7142da8245e713e3ee4f488336040516108e29190610daa565b60405180910390a161099d565b7f3f79930be7ed586c284cb8ba2feaa12b5bc8b3f6f0788a2c0577c66876c591bf3360405161091e9190610daa565b60405180910390a161099c565b6001600281111561093f5761093e610d0f565b5b5f8054906101000a900460ff16600281111561095e5761095d610d0f565b5b0361099b577faf562694fb399e648b3c3c32d69af1a74406eaab624eaff9802aa97414dfde33336040516109929190610daa565b60405180910390a15b5b5b565b6109a7610bf8565b5f60028111156109ba576109b9610d0f565b5b5f8054906101000a900460ff1660028111156109d9576109d8610d0f565b5b14610a19576040517f08c379a0000000000000000000000000000000000000000000000000000000008152600401610a10906110ef565b60405180910390fd5b60035460055410610a5f576040517f08c379a0000000000000000000000000000000000000000000000000000000008152600401610a5690611157565b60405180910390fd5b60075f3373ffffffffffffffffffffffffffffffffffffffff1673ffffffffffffffffffffffffffffffffffffffff1681526020019081526020015f205f9054906101000a900460ff1615610ae9576040517f08c379a0000000000000000000000000000000000000000000000000000000008152600401610ae0906111bf565b60405180910390fd5b600160075f3373ffffffffffffffffffffffffffffffffffffffff1673ffffffffffffffffffffffffffffffffffffffff1681526020019081526020015f205f6101000a81548160ff02191690831515021790555060055f815480929190610b509061102b565b91905055507f8b0924eaa49635981070514597e848549adc7d69bc943b4b2a7ceefb16003dc233604051610b849190610daa565b60405180910390a1565b60065481565b5f6005541115610bcc5760025f806101000a81548160ff02191690836002811115610bc257610bc1610d0f565b5b0217905550610bf6565b60015f806101000a81548160ff02191690836002811115610bf057610bef610d0f565b5b02179055505b565b60025460015442610c099190611072565b118015610c4557505f6002811115610c2457610c23610d0f565b5b5f8054906101000a900460ff166002811115610c4357610c42610d0f565b5b145b15610c5357610c52610b94565b5b565b5f80fd5b5f73ffffffffffffffffffffffffffffffffffffffff82169050919050565b5f610c8282610c59565b9050919050565b610c9281610c78565b8114610c9c575f80fd5b50565b5f81359050610cad81610c89565b92915050565b5f60208284031215610cc857610cc7610c55565b5b5f610cd584828501610c9f565b91505092915050565b5f819050919050565b610cf081610cde565b82525050565b5f602082019050610d095f830184610ce7565b92915050565b7f4e487b71000000000000000000000000000000000000000000000000000000005f52602160045260245ffd5b60038110610d4d57610d4c610d0f565b5b50565b5f819050610d5d82610d3c565b919050565b5f610d6c82610d50565b9050919050565b610d7c81610d62565b82525050565b5f602082019050610d955f830184610d73565b92915050565b610da481610c78565b82525050565b5f602082019050610dbd5f830184610d9b565b92915050565b5f8115159050919050565b610dd781610dc3565b82525050565b5f602082019050610df05f830184610dce565b92915050565b5f82825260208201905092915050565b7f4f6e6c7920696e6672617374727563747572652063616e2063616c6c207468695f8201527f732066756e6374696f6e2e000000000000000000000000000000000000000000602082015250565b5f610e60602b83610df6565b9150610e6b82610e06565b604082019050919050565b5f6020820190508181035f830152610e8d81610e54565b9050919050565b7f56656869636c6520686173206e6f7420726571756573746564207065726d69735f8201527f73696f6e00000000000000000000000000000000000000000000000000000000602082015250565b5f610eee602483610df6565b9150610ef982610e94565b604082019050919050565b5f6020820190508181035f830152610f1b81610ee2565b9050919050565b7f4e487b71000000000000000000000000000000000000000000000000000000005f52601160045260245ffd5b5f610f5982610cde565b91505f8203610f6b57610f6a610f22565b5b600182039050919050565b7f596f7520646f6e27742068617665207065726d697373696f6e20746f2072656c5f8201527f656173652e000000000000000000000000000000000000000000000000000000602082015250565b5f610fd0602583610df6565b9150610fdb82610f76565b604082019050919050565b5f6020820190508181035f830152610ffd81610fc4565b9050919050565b5f6040820190506110175f830185610d9b565b6110246020830184610dce565b9392505050565b5f61103582610cde565b91507fffffffffffffffffffffffffffffffffffffffffffffffffffffffffffffffff820361106757611066610f22565b5b600182019050919050565b5f61107c82610cde565b915061108783610cde565b925082820390508181111561109f5761109e610f22565b5b92915050565b7f43726f7373696e67206973206e6f74206672656520746f2063726f73732e00005f82015250565b5f6110d9601e83610df6565b91506110e4826110a5565b602082019050919050565b5f6020820190508181035f830152611106816110cd565b9050919050565b7f43726f7373696e672069732066756c6c2e0000000000000000000000000000005f82015250565b5f611141601183610df6565b915061114c8261110d565b602082019050919050565b5f6020820190508181035f83015261116e81611135565b9050919050565b7f416c72656164792063726f7373696e67000000000000000000000000000000005f82015250565b5f6111a9601083610df6565b91506111b482611175565b602082019050919050565b5f6020820190508181035f8301526111d68161119d565b905091905056fea2646970667358221220333c1337969df7f5768925c77c3d58114dfdb52238639d8452c1d63ed3b8b08464736f6c63430008160033",
					"opcodes": "PUSH1 0x80 PUSH1 0x40 MSTORE CALLVALUE DUP1 ISZERO PUSH3 0x10 JUMPI PUSH0 DUP1 REVERT JUMPDEST POP PUSH1 0x40 MLOAD PUSH3 0x13B8 CODESIZE SUB DUP1 PUSH3 0x13B8 DUP4 CODECOPY DUP2 DUP2 ADD PUSH1 0x40 MSTORE DUP2 ADD SWAP1 PUSH3 0x36 SWAP2 SWAP1 PUSH3 0x111 JUMP JUMPDEST CALLER PUSH0 PUSH1 0x1 PUSH2 0x100 EXP DUP2 SLOAD DUP2 PUSH20 0xFFFFFFFFFFFFFFFFFFFFFFFFFFFFFFFFFFFFFFFF MUL NOT AND SWAP1 DUP4 PUSH20 0xFFFFFFFFFFFFFFFFFFFFFFFFFFFFFFFFFFFFFFFF AND MUL OR SWAP1 SSTORE POP DUP3 PUSH1 0x2 DUP2 SWAP1 SSTORE POP DUP2 PUSH1 0x3 DUP2 SWAP1 SSTORE POP DUP1 PUSH1 0x4 DUP2 SWAP1 SSTORE POP PUSH1 0x1 PUSH0 DUP1 PUSH2 0x100 EXP DUP2 SLOAD DUP2 PUSH1 0xFF MUL NOT AND SWAP1 DUP4 PUSH1 0x2 DUP2 GT ISZERO PUSH3 0xB2 JUMPI PUSH3 0xB1 PUSH3 0x16A JUMP JUMPDEST JUMPDEST MUL OR SWAP1 SSTORE POP PUSH0 PUSH1 0x5 DUP2 SWAP1 SSTORE POP PUSH0 PUSH1 0x6 DUP2 SWAP1 SSTORE POP TIMESTAMP PUSH1 0x1 DUP2 SWAP1 SSTORE POP POP POP POP PUSH3 0x197 JUMP JUMPDEST PUSH0 DUP1 REVERT JUMPDEST PUSH0 DUP2 SWAP1 POP SWAP2 SWAP1 POP JUMP JUMPDEST PUSH3 0xED DUP2 PUSH3 0xD9 JUMP JUMPDEST DUP2 EQ PUSH3 0xF8 JUMPI PUSH0 DUP1 REVERT JUMPDEST POP JUMP JUMPDEST PUSH0 DUP2 MLOAD SWAP1 POP PUSH3 0x10B DUP2 PUSH3 0xE2 JUMP JUMPDEST SWAP3 SWAP2 POP POP JUMP JUMPDEST PUSH0 DUP1 PUSH0 PUSH1 0x60 DUP5 DUP7 SUB SLT ISZERO PUSH3 0x12B JUMPI PUSH3 0x12A PUSH3 0xD5 JUMP JUMPDEST JUMPDEST PUSH0 PUSH3 0x13A DUP7 DUP3 DUP8 ADD PUSH3 0xFB JUMP JUMPDEST SWAP4 POP POP PUSH1 0x20 PUSH3 0x14D DUP7 DUP3 DUP8 ADD PUSH3 0xFB JUMP JUMPDEST SWAP3 POP POP PUSH1 0x40 PUSH3 0x160 DUP7 DUP3 DUP8 ADD PUSH3 0xFB JUMP JUMPDEST SWAP2 POP POP SWAP3 POP SWAP3 POP SWAP3 JUMP JUMPDEST PUSH32 0x4E487B7100000000000000000000000000000000000000000000000000000000 PUSH0 MSTORE PUSH1 0x21 PUSH1 0x4 MSTORE PUSH1 0x24 PUSH0 REVERT JUMPDEST PUSH2 0x1213 DUP1 PUSH3 0x1A5 PUSH0 CODECOPY PUSH0 RETURN INVALID PUSH1 0x80 PUSH1 0x40 MSTORE CALLVALUE DUP1 ISZERO PUSH2 0xF JUMPI PUSH0 DUP1 REVERT JUMPDEST POP PUSH1 0x4 CALLDATASIZE LT PUSH2 0xFE JUMPI PUSH0 CALLDATALOAD PUSH1 0xE0 SHR DUP1 PUSH4 0xBAA12859 GT PUSH2 0x95 JUMPI DUP1 PUSH4 0xE4FA8DA9 GT PUSH2 0x64 JUMPI DUP1 PUSH4 0xE4FA8DA9 EQ PUSH2 0x264 JUMPI DUP1 PUSH4 0xE8887118 EQ PUSH2 0x282 JUMPI DUP1 PUSH4 0xEBE0435C EQ PUSH2 0x28C JUMPI DUP1 PUSH4 0xFAE68B4D EQ PUSH2 0x296 JUMPI PUSH2 0xFE JUMP JUMPDEST DUP1 PUSH4 0xBAA12859 EQ PUSH2 0x1EE JUMPI DUP1 PUSH4 0xC0463711 EQ PUSH2 0x21E JUMPI DUP1 PUSH4 0xCEE321D6 EQ PUSH2 0x23C JUMPI DUP1 PUSH4 0xE4D6BEC8 EQ PUSH2 0x25A JUMPI PUSH2 0xFE JUMP JUMPDEST DUP1 PUSH4 0x74E18625 GT PUSH2 0xD1 JUMPI DUP1 PUSH4 0x74E18625 EQ PUSH2 0x18C JUMPI DUP1 PUSH4 0x96469B25 EQ PUSH2 0x196 JUMPI DUP1 PUSH4 0x9BD565D6 EQ PUSH2 0x1A0 JUMPI DUP1 PUSH4 0xA21C30DE EQ PUSH2 0x1BE JUMPI PUSH2 0xFE JUMP JUMPDEST DUP1 PUSH4 0x3C3244AB EQ PUSH2 0x102 JUMPI DUP1 PUSH4 0x3ED6BA3D EQ PUSH2 0x132 JUMPI DUP1 PUSH4 0x40EF3A69 EQ PUSH2 0x150 JUMPI DUP1 PUSH4 0x6BAB9804 EQ PUSH2 0x16E JUMPI JUMPDEST PUSH0 DUP1 REVERT JUMPDEST PUSH2 0x11C PUSH1 0x4 DUP1 CALLDATASIZE SUB DUP2 ADD SWAP1 PUSH2 0x117 SWAP2 SWAP1 PUSH2 0xCB3 JUMP JUMPDEST PUSH2 0x2B4 JUMP JUMPDEST PUSH1 0x40 MLOAD PUSH2 0x129 SWAP2 SWAP1 PUSH2 0xCF6 JUMP JUMPDEST PUSH1 0x40 MLOAD DUP1 SWAP2 SUB SWAP1 RETURN JUMPDEST PUSH2 0x13A PUSH2 0x2C9 JUMP JUMPDEST PUSH1 0x40 MLOAD PUSH2 0x147 SWAP2 SWAP1 PUSH2 0xCF6 JUMP JUMPDEST PUSH1 0x40 MLOAD DUP1 SWAP2 SUB SWAP1 RETURN JUMPDEST PUSH2 0x158 PUSH2 0x2CF JUMP JUMPDEST PUSH1 0x40 MLOAD PUSH2 0x165 SWAP2 SWAP1 PUSH2 0xD82 JUMP JUMPDEST PUSH1 0x40 MLOAD DUP1 SWAP2 SUB SWAP1 RETURN JUMPDEST PUSH2 0x176 PUSH2 0x2DF JUMP JUMPDEST PUSH1 0x40 MLOAD PUSH2 0x183 SWAP2 SWAP1 PUSH2 0xCF6 JUMP JUMPDEST PUSH1 0x40 MLOAD DUP1 SWAP2 SUB SWAP1 RETURN JUMPDEST PUSH2 0x194 PUSH2 0x2E5 JUMP JUMPDEST STOP JUMPDEST PUSH2 0x19E PUSH2 0x3A5 JUMP JUMPDEST STOP JUMPDEST PUSH2 0x1A8 PUSH2 0x4D2 JUMP JUMPDEST PUSH1 0x40 MLOAD PUSH2 0x1B5 SWAP2 SWAP1 PUSH2 0xDAA JUMP JUMPDEST PUSH1 0x40 MLOAD DUP1 SWAP2 SUB SWAP1 RETURN JUMPDEST PUSH2 0x1D8 PUSH1 0x4 DUP1 CALLDATASIZE SUB DUP2 ADD SWAP1 PUSH2 0x1D3 SWAP2 SWAP1 PUSH2 0xCB3 JUMP JUMPDEST PUSH2 0x4F7 JUMP JUMPDEST PUSH1 0x40 MLOAD PUSH2 0x1E5 SWAP2 SWAP1 PUSH2 0xDDD JUMP JUMPDEST PUSH1 0x40 MLOAD DUP1 SWAP2 SUB SWAP1 RETURN JUMPDEST PUSH2 0x208 PUSH1 0x4 DUP1 CALLDATASIZE SUB DUP2 ADD SWAP1 PUSH2 0x203 SWAP2 SWAP1 PUSH2 0xCB3 JUMP JUMPDEST PUSH2 0x514 JUMP JUMPDEST PUSH1 0x40 MLOAD PUSH2 0x215 SWAP2 SWAP1 PUSH2 0xDDD JUMP JUMPDEST PUSH1 0x40 MLOAD DUP1 SWAP2 SUB SWAP1 RETURN JUMPDEST PUSH2 0x226 PUSH2 0x531 JUMP JUMPDEST PUSH1 0x40 MLOAD PUSH2 0x233 SWAP2 SWAP1 PUSH2 0xCF6 JUMP JUMPDEST PUSH1 0x40 MLOAD DUP1 SWAP2 SUB SWAP1 RETURN JUMPDEST PUSH2 0x244 PUSH2 0x537 JUMP JUMPDEST PUSH1 0x40 MLOAD PUSH2 0x251 SWAP2 SWAP1 PUSH2 0xCF6 JUMP JUMPDEST PUSH1 0x40 MLOAD DUP1 SWAP2 SUB SWAP1 RETURN JUMPDEST PUSH2 0x262 PUSH2 0x53D JUMP JUMPDEST STOP JUMPDEST PUSH2 0x26C PUSH2 0x69C JUMP JUMPDEST PUSH1 0x40 MLOAD PUSH2 0x279 SWAP2 SWAP1 PUSH2 0xCF6 JUMP JUMPDEST PUSH1 0x40 MLOAD DUP1 SWAP2 SUB SWAP1 RETURN JUMPDEST PUSH2 0x28A PUSH2 0x6A2 JUMP JUMPDEST STOP JUMPDEST PUSH2 0x294 PUSH2 0x99F JUMP JUMPDEST STOP JUMPDEST PUSH2 0x29E PUSH2 0xB8E JUMP JUMPDEST PUSH1 0x40 MLOAD PUSH2 0x2AB SWAP2 SWAP1 PUSH2 0xCF6 JUMP JUMPDEST PUSH1 0x40 MLOAD DUP1 SWAP2 SUB SWAP1 RETURN JUMPDEST PUSH1 0x9 PUSH1 0x20 MSTORE DUP1 PUSH0 MSTORE PUSH1 0x40 PUSH0 KECCAK256 PUSH0 SWAP2 POP SWAP1 POP SLOAD DUP2 JUMP JUMPDEST PUSH1 0x4 SLOAD DUP2 JUMP JUMPDEST PUSH0 DUP1 SLOAD SWAP1 PUSH2 0x100 EXP SWAP1 DIV PUSH1 0xFF AND DUP2 JUMP JUMPDEST PUSH1 0x3 SLOAD DUP2 JUMP JUMPDEST PUSH0 PUSH1 0x1 SWAP1 SLOAD SWAP1 PUSH2 0x100 EXP SWAP1 DIV PUSH20 0xFFFFFFFFFFFFFFFFFFFFFFFFFFFFFFFFFFFFFFFF AND PUSH20 0xFFFFFFFFFFFFFFFFFFFFFFFFFFFFFFFFFFFFFFFF AND CALLER PUSH20 0xFFFFFFFFFFFFFFFFFFFFFFFFFFFFFFFFFFFFFFFF AND EQ PUSH2 0x374 JUMPI PUSH1 0x40 MLOAD PUSH32 0x8C379A000000000000000000000000000000000000000000000000000000000 DUP2 MSTORE PUSH1 0x4 ADD PUSH2 0x36B SWAP1 PUSH2 0xE76 JUMP JUMPDEST PUSH1 0x40 MLOAD DUP1 SWAP2 SUB SWAP1 REVERT JUMPDEST PUSH0 DUP1 PUSH0 PUSH2 0x100 EXP DUP2 SLOAD DUP2 PUSH1 0xFF MUL NOT AND SWAP1 DUP4 PUSH1 0x2 DUP2 GT ISZERO PUSH2 0x397 JUMPI PUSH2 0x396 PUSH2 0xD0F JUMP JUMPDEST JUMPDEST MUL OR SWAP1 SSTORE POP TIMESTAMP PUSH1 0x1 DUP2 SWAP1 SSTORE POP JUMP JUMPDEST PUSH1 0x7 PUSH0 CALLER PUSH20 0xFFFFFFFFFFFFFFFFFFFFFFFFFFFFFFFFFFFFFFFF AND PUSH20 0xFFFFFFFFFFFFFFFFFFFFFFFFFFFFFFFFFFFFFFFF AND DUP2 MSTORE PUSH1 0x20 ADD SWAP1 DUP2 MSTORE PUSH1 0x20 ADD PUSH0 KECCAK256 PUSH0 SWAP1 SLOAD SWAP1 PUSH2 0x100 EXP SWAP1 DIV PUSH1 0xFF AND PUSH2 0x42E JUMPI PUSH1 0x40 MLOAD PUSH32 0x8C379A000000000000000000000000000000000000000000000000000000000 DUP2 MSTORE PUSH1 0x4 ADD PUSH2 0x425 SWAP1 PUSH2 0xF04 JUMP JUMPDEST PUSH1 0x40 MLOAD DUP1 SWAP2 SUB SWAP1 REVERT JUMPDEST PUSH0 PUSH1 0x7 PUSH0 CALLER PUSH20 0xFFFFFFFFFFFFFFFFFFFFFFFFFFFFFFFFFFFFFFFF AND PUSH20 0xFFFFFFFFFFFFFFFFFFFFFFFFFFFFFFFFFFFFFFFF AND DUP2 MSTORE PUSH1 0x20 ADD SWAP1 DUP2 MSTORE PUSH1 0x20 ADD PUSH0 KECCAK256 PUSH0 PUSH2 0x100 EXP DUP2 SLOAD DUP2 PUSH1 0xFF MUL NOT AND SWAP1 DUP4 ISZERO ISZERO MUL OR SWAP1 SSTORE POP PUSH1 0x5 PUSH0 DUP2 SLOAD DUP1 SWAP3 SWAP2 SWAP1 PUSH2 0x494 SWAP1 PUSH2 0xF4F JUMP JUMPDEST SWAP2 SWAP1 POP SSTORE POP PUSH32 0x2E88CEAE333B5A571097904AED082642C40E10839DD32E2A0753D8008A89E2E1 CALLER PUSH1 0x40 MLOAD PUSH2 0x4C8 SWAP2 SWAP1 PUSH2 0xDAA JUMP JUMPDEST PUSH1 0x40 MLOAD DUP1 SWAP2 SUB SWAP1 LOG1 JUMP JUMPDEST PUSH0 PUSH1 0x1 SWAP1 SLOAD SWAP1 PUSH2 0x100 EXP SWAP1 DIV PUSH20 0xFFFFFFFFFFFFFFFFFFFFFFFFFFFFFFFFFFFFFFFF AND DUP2 JUMP JUMPDEST PUSH1 0x8 PUSH1 0x20 MSTORE DUP1 PUSH0 MSTORE PUSH1 0x40 PUSH0 KECCAK256 PUSH0 SWAP2 POP SLOAD SWAP1 PUSH2 0x100 EXP SWAP1 DIV PUSH1 0xFF AND DUP2 JUMP JUMPDEST PUSH1 0x7 PUSH1 0x20 MSTORE DUP1 PUSH0 MSTORE PUSH1 0x40 PUSH0 KECCAK256 PUSH0 SWAP2 POP SLOAD SWAP1 PUSH2 0x100 EXP SWAP1 DIV PUSH1 0xFF AND DUP2 JUMP JUMPDEST PUSH1 0x1 SLOAD DUP2 JUMP JUMPDEST PUSH1 0x5 SLOAD DUP2 JUMP JUMPDEST PUSH1 0x8 PUSH0 CALLER PUSH20 0xFFFFFFFFFFFFFFFFFFFFFFFFFFFFFFFFFFFFFFFF AND PUSH20 0xFFFFFFFFFFFFFFFFFFFFFFFFFFFFFFFFFFFFFFFF AND DUP2 MSTORE PUSH1 0x20 ADD SWAP1 DUP2 MSTORE PUSH1 0x20 ADD PUSH0 KECCAK256 PUSH0 SWAP1 SLOAD SWAP1 PUSH2 0x100 EXP SWAP1 DIV PUSH1 0xFF AND PUSH2 0x5C6 JUMPI PUSH1 0x40 MLOAD PUSH32 0x8C379A000000000000000000000000000000000000000000000000000000000 DUP2 MSTORE PUSH1 0x4 ADD PUSH2 0x5BD SWAP1 PUSH2 0xFE6 JUMP JUMPDEST PUSH1 0x40 MLOAD DUP1 SWAP2 SUB SWAP1 REVERT JUMPDEST PUSH0 PUSH1 0x8 PUSH0 CALLER PUSH20 0xFFFFFFFFFFFFFFFFFFFFFFFFFFFFFFFFFFFFFFFF AND PUSH20 0xFFFFFFFFFFFFFFFFFFFFFFFFFFFFFFFFFFFFFFFF AND DUP2 MSTORE PUSH1 0x20 ADD SWAP1 DUP2 MSTORE PUSH1 0x20 ADD PUSH0 KECCAK256 PUSH0 PUSH2 0x100 EXP DUP2 SLOAD DUP2 PUSH1 0xFF MUL NOT AND SWAP1 DUP4 ISZERO ISZERO MUL OR SWAP1 SSTORE POP PUSH1 0x6 PUSH0 DUP2 SLOAD DUP1 SWAP3 SWAP2 SWAP1 PUSH2 0x62C SWAP1 PUSH2 0xF4F JUMP JUMPDEST SWAP2 SWAP1 POP SSTORE POP PUSH0 PUSH1 0x6 SLOAD SUB PUSH2 0x663 JUMPI PUSH0 DUP1 PUSH0 PUSH2 0x100 EXP DUP2 SLOAD DUP2 PUSH1 0xFF MUL NOT AND SWAP1 DUP4 PUSH1 0x2 DUP2 GT ISZERO PUSH2 0x65D JUMPI PUSH2 0x65C PUSH2 0xD0F JUMP JUMPDEST JUMPDEST MUL OR SWAP1 SSTORE POP JUMPDEST PUSH32 0x3C0EA4A00D4DE0CCC27897A7A04782DE620B5FE6DF6CB5601D2560E3AEE591C4 CALLER PUSH1 0x40 MLOAD PUSH2 0x692 SWAP2 SWAP1 PUSH2 0xDAA JUMP JUMPDEST PUSH1 0x40 MLOAD DUP1 SWAP2 SUB SWAP1 LOG1 JUMP JUMPDEST PUSH1 0x2 SLOAD DUP2 JUMP JUMPDEST PUSH32 0x99DABED7F6F5ED6344A92AA6D218A2783233053B23AAB6CC21A53BF4C5980F50 CALLER PUSH1 0x8 PUSH0 CALLER PUSH20 0xFFFFFFFFFFFFFFFFFFFFFFFFFFFFFFFFFFFFFFFF AND PUSH20 0xFFFFFFFFFFFFFFFFFFFFFFFFFFFFFFFFFFFFFFFF AND DUP2 MSTORE PUSH1 0x20 ADD SWAP1 DUP2 MSTORE PUSH1 0x20 ADD PUSH0 KECCAK256 PUSH0 SWAP1 SLOAD SWAP1 PUSH2 0x100 EXP SWAP1 DIV PUSH1 0xFF AND ISZERO PUSH1 0x40 MLOAD PUSH2 0x71D SWAP3 SWAP2 SWAP1 PUSH2 0x1004 JUMP JUMPDEST PUSH1 0x40 MLOAD DUP1 SWAP2 SUB SWAP1 LOG1 PUSH1 0x8 PUSH0 CALLER PUSH20 0xFFFFFFFFFFFFFFFFFFFFFFFFFFFFFFFFFFFFFFFF AND PUSH20 0xFFFFFFFFFFFFFFFFFFFFFFFFFFFFFFFFFFFFFFFF AND DUP2 MSTORE PUSH1 0x20 ADD SWAP1 DUP2 MSTORE PUSH1 0x20 ADD PUSH0 KECCAK256 PUSH0 SWAP1 SLOAD SWAP1 PUSH2 0x100 EXP SWAP1 DIV PUSH1 0xFF AND PUSH2 0x822 JUMPI PUSH1 0x1 PUSH1 0x8 PUSH0 CALLER PUSH20 0xFFFFFFFFFFFFFFFFFFFFFFFFFFFFFFFFFFFFFFFF AND PUSH20 0xFFFFFFFFFFFFFFFFFFFFFFFFFFFFFFFFFFFFFFFF AND DUP2 MSTORE PUSH1 0x20 ADD SWAP1 DUP2 MSTORE PUSH1 0x20 ADD PUSH0 KECCAK256 PUSH0 PUSH2 0x100 EXP DUP2 SLOAD DUP2 PUSH1 0xFF MUL NOT AND SWAP1 DUP4 ISZERO ISZERO MUL OR SWAP1 SSTORE POP TIMESTAMP PUSH1 0x9 PUSH0 CALLER PUSH20 0xFFFFFFFFFFFFFFFFFFFFFFFFFFFFFFFFFFFFFFFF AND PUSH20 0xFFFFFFFFFFFFFFFFFFFFFFFFFFFFFFFFFFFFFFFF AND DUP2 MSTORE PUSH1 0x20 ADD SWAP1 DUP2 MSTORE PUSH1 0x20 ADD PUSH0 KECCAK256 DUP2 SWAP1 SSTORE POP PUSH1 0x6 PUSH0 DUP2 SLOAD DUP1 SWAP3 SWAP2 SWAP1 PUSH2 0x81C SWAP1 PUSH2 0x102B JUMP JUMPDEST SWAP2 SWAP1 POP SSTORE POP JUMPDEST PUSH2 0x82A PUSH2 0xB94 JUMP JUMPDEST PUSH1 0x2 DUP1 DUP2 GT ISZERO PUSH2 0x83D JUMPI PUSH2 0x83C PUSH2 0xD0F JUMP JUMPDEST JUMPDEST PUSH0 DUP1 SLOAD SWAP1 PUSH2 0x100 EXP SWAP1 DIV PUSH1 0xFF AND PUSH1 0x2 DUP2 GT ISZERO PUSH2 0x85C JUMPI PUSH2 0x85B PUSH2 0xD0F JUMP JUMPDEST JUMPDEST SUB PUSH2 0x92B JUMPI PUSH1 0x4 SLOAD PUSH1 0x9 PUSH0 CALLER PUSH20 0xFFFFFFFFFFFFFFFFFFFFFFFFFFFFFFFFFFFFFFFF AND PUSH20 0xFFFFFFFFFFFFFFFFFFFFFFFFFFFFFFFFFFFFFFFF AND DUP2 MSTORE PUSH1 0x20 ADD SWAP1 DUP2 MSTORE PUSH1 0x20 ADD PUSH0 KECCAK256 SLOAD TIMESTAMP PUSH2 0x8AD SWAP2 SWAP1 PUSH2 0x1072 JUMP JUMPDEST GT ISZERO PUSH2 0x8EF JUMPI PUSH32 0x273D510E41FD7354AECC3DD5A1AF735CAE0C081CF7142DA8245E713E3EE4F488 CALLER PUSH1 0x40 MLOAD PUSH2 0x8E2 SWAP2 SWAP1 PUSH2 0xDAA JUMP JUMPDEST PUSH1 0x40 MLOAD DUP1 SWAP2 SUB SWAP1 LOG1 PUSH2 0x99D JUMP JUMPDEST PUSH32 0x3F79930BE7ED586C284CB8BA2FEAA12B5BC8B3F6F0788A2C0577C66876C591BF CALLER PUSH1 0x40 MLOAD PUSH2 0x91E SWAP2 SWAP1 PUSH2 0xDAA JUMP JUMPDEST PUSH1 0x40 MLOAD DUP1 SWAP2 SUB SWAP1 LOG1 PUSH2 0x99C JUMP JUMPDEST PUSH1 0x1 PUSH1 0x2 DUP2 GT ISZERO PUSH2 0x93F JUMPI PUSH2 0x93E PUSH2 0xD0F JUMP JUMPDEST JUMPDEST PUSH0 DUP1 SLOAD SWAP1 PUSH2 0x100 EXP SWAP1 DIV PUSH1 0xFF AND PUSH1 0x2 DUP2 GT ISZERO PUSH2 0x95E JUMPI PUSH2 0x95D PUSH2 0xD0F JUMP JUMPDEST JUMPDEST SUB PUSH2 0x99B JUMPI PUSH32 0xAF562694FB399E648B3C3C32D69AF1A74406EAAB624EAFF9802AA97414DFDE33 CALLER PUSH1 0x40 MLOAD PUSH2 0x992 SWAP2 SWAP1 PUSH2 0xDAA JUMP JUMPDEST PUSH1 0x40 MLOAD DUP1 SWAP2 SUB SWAP1 LOG1 JUMPDEST JUMPDEST JUMPDEST JUMP JUMPDEST PUSH2 0x9A7 PUSH2 0xBF8 JUMP JUMPDEST PUSH0 PUSH1 0x2 DUP2 GT ISZERO PUSH2 0x9BA JUMPI PUSH2 0x9B9 PUSH2 0xD0F JUMP JUMPDEST JUMPDEST PUSH0 DUP1 SLOAD SWAP1 PUSH2 0x100 EXP SWAP1 DIV PUSH1 0xFF AND PUSH1 0x2 DUP2 GT ISZERO PUSH2 0x9D9 JUMPI PUSH2 0x9D8 PUSH2 0xD0F JUMP JUMPDEST JUMPDEST EQ PUSH2 0xA19 JUMPI PUSH1 0x40 MLOAD PUSH32 0x8C379A000000000000000000000000000000000000000000000000000000000 DUP2 MSTORE PUSH1 0x4 ADD PUSH2 0xA10 SWAP1 PUSH2 0x10EF JUMP JUMPDEST PUSH1 0x40 MLOAD DUP1 SWAP2 SUB SWAP1 REVERT JUMPDEST PUSH1 0x3 SLOAD PUSH1 0x5 SLOAD LT PUSH2 0xA5F JUMPI PUSH1 0x40 MLOAD PUSH32 0x8C379A000000000000000000000000000000000000000000000000000000000 DUP2 MSTORE PUSH1 0x4 ADD PUSH2 0xA56 SWAP1 PUSH2 0x1157 JUMP JUMPDEST PUSH1 0x40 MLOAD DUP1 SWAP2 SUB SWAP1 REVERT JUMPDEST PUSH1 0x7 PUSH0 CALLER PUSH20 0xFFFFFFFFFFFFFFFFFFFFFFFFFFFFFFFFFFFFFFFF AND PUSH20 0xFFFFFFFFFFFFFFFFFFFFFFFFFFFFFFFFFFFFFFFF AND DUP2 MSTORE PUSH1 0x20 ADD SWAP1 DUP2 MSTORE PUSH1 0x20 ADD PUSH0 KECCAK256 PUSH0 SWAP1 SLOAD SWAP1 PUSH2 0x100 EXP SWAP1 DIV PUSH1 0xFF AND ISZERO PUSH2 0xAE9 JUMPI PUSH1 0x40 MLOAD PUSH32 0x8C379A000000000000000000000000000000000000000000000000000000000 DUP2 MSTORE PUSH1 0x4 ADD PUSH2 0xAE0 SWAP1 PUSH2 0x11BF JUMP JUMPDEST PUSH1 0x40 MLOAD DUP1 SWAP2 SUB SWAP1 REVERT JUMPDEST PUSH1 0x1 PUSH1 0x7 PUSH0 CALLER PUSH20 0xFFFFFFFFFFFFFFFFFFFFFFFFFFFFFFFFFFFFFFFF AND PUSH20 0xFFFFFFFFFFFFFFFFFFFFFFFFFFFFFFFFFFFFFFFF AND DUP2 MSTORE PUSH1 0x20 ADD SWAP1 DUP2 MSTORE PUSH1 0x20 ADD PUSH0 KECCAK256 PUSH0 PUSH2 0x100 EXP DUP2 SLOAD DUP2 PUSH1 0xFF MUL NOT AND SWAP1 DUP4 ISZERO ISZERO MUL OR SWAP1 SSTORE POP PUSH1 0x5 PUSH0 DUP2 SLOAD DUP1 SWAP3 SWAP2 SWAP1 PUSH2 0xB50 SWAP1 PUSH2 0x102B JUMP JUMPDEST SWAP2 SWAP1 POP SSTORE POP PUSH32 0x8B0924EAA49635981070514597E848549ADC7D69BC943B4B2A7CEEFB16003DC2 CALLER PUSH1 0x40 MLOAD PUSH2 0xB84 SWAP2 SWAP1 PUSH2 0xDAA JUMP JUMPDEST PUSH1 0x40 MLOAD DUP1 SWAP2 SUB SWAP1 LOG1 JUMP JUMPDEST PUSH1 0x6 SLOAD DUP2 JUMP JUMPDEST PUSH0 PUSH1 0x5 SLOAD GT ISZERO PUSH2 0xBCC JUMPI PUSH1 0x2 PUSH0 DUP1 PUSH2 0x100 EXP DUP2 SLOAD DUP2 PUSH1 0xFF MUL NOT AND SWAP1 DUP4 PUSH1 0x2 DUP2 GT ISZERO PUSH2 0xBC2 JUMPI PUSH2 0xBC1 PUSH2 0xD0F JUMP JUMPDEST JUMPDEST MUL OR SWAP1 SSTORE POP PUSH2 0xBF6 JUMP JUMPDEST PUSH1 0x1 PUSH0 DUP1 PUSH2 0x100 EXP DUP2 SLOAD DUP2 PUSH1 0xFF MUL NOT AND SWAP1 DUP4 PUSH1 0x2 DUP2 GT ISZERO PUSH2 0xBF0 JUMPI PUSH2 0xBEF PUSH2 0xD0F JUMP JUMPDEST JUMPDEST MUL OR SWAP1 SSTORE POP JUMPDEST JUMP JUMPDEST PUSH1 0x2 SLOAD PUSH1 0x1 SLOAD TIMESTAMP PUSH2 0xC09 SWAP2 SWAP1 PUSH2 0x1072 JUMP JUMPDEST GT DUP1 ISZERO PUSH2 0xC45 JUMPI POP PUSH0 PUSH1 0x2 DUP2 GT ISZERO PUSH2 0xC24 JUMPI PUSH2 0xC23 PUSH2 0xD0F JUMP JUMPDEST JUMPDEST PUSH0 DUP1 SLOAD SWAP1 PUSH2 0x100 EXP SWAP1 DIV PUSH1 0xFF AND PUSH1 0x2 DUP2 GT ISZERO PUSH2 0xC43 JUMPI PUSH2 0xC42 PUSH2 0xD0F JUMP JUMPDEST JUMPDEST EQ JUMPDEST ISZERO PUSH2 0xC53 JUMPI PUSH2 0xC52 PUSH2 0xB94 JUMP JUMPDEST JUMPDEST JUMP JUMPDEST PUSH0 DUP1 REVERT JUMPDEST PUSH0 PUSH20 0xFFFFFFFFFFFFFFFFFFFFFFFFFFFFFFFFFFFFFFFF DUP3 AND SWAP1 POP SWAP2 SWAP1 POP JUMP JUMPDEST PUSH0 PUSH2 0xC82 DUP3 PUSH2 0xC59 JUMP JUMPDEST SWAP1 POP SWAP2 SWAP1 POP JUMP JUMPDEST PUSH2 0xC92 DUP2 PUSH2 0xC78 JUMP JUMPDEST DUP2 EQ PUSH2 0xC9C JUMPI PUSH0 DUP1 REVERT JUMPDEST POP JUMP JUMPDEST PUSH0 DUP2 CALLDATALOAD SWAP1 POP PUSH2 0xCAD DUP2 PUSH2 0xC89 JUMP JUMPDEST SWAP3 SWAP2 POP POP JUMP JUMPDEST PUSH0 PUSH1 0x20 DUP3 DUP5 SUB SLT ISZERO PUSH2 0xCC8 JUMPI PUSH2 0xCC7 PUSH2 0xC55 JUMP JUMPDEST JUMPDEST PUSH0 PUSH2 0xCD5 DUP5 DUP3 DUP6 ADD PUSH2 0xC9F JUMP JUMPDEST SWAP2 POP POP SWAP3 SWAP2 POP POP JUMP JUMPDEST PUSH0 DUP2 SWAP1 POP SWAP2 SWAP1 POP JUMP JUMPDEST PUSH2 0xCF0 DUP2 PUSH2 0xCDE JUMP JUMPDEST DUP3 MSTORE POP POP JUMP JUMPDEST PUSH0 PUSH1 0x20 DUP3 ADD SWAP1 POP PUSH2 0xD09 PUSH0 DUP4 ADD DUP5 PUSH2 0xCE7 JUMP JUMPDEST SWAP3 SWAP2 POP POP JUMP JUMPDEST PUSH32 0x4E487B7100000000000000000000000000000000000000000000000000000000 PUSH0 MSTORE PUSH1 0x21 PUSH1 0x4 MSTORE PUSH1 0x24 PUSH0 REVERT JUMPDEST PUSH1 0x3 DUP2 LT PUSH2 0xD4D JUMPI PUSH2 0xD4C PUSH2 0xD0F JUMP JUMPDEST JUMPDEST POP JUMP JUMPDEST PUSH0 DUP2 SWAP1 POP PUSH2 0xD5D DUP3 PUSH2 0xD3C JUMP JUMPDEST SWAP2 SWAP1 POP JUMP JUMPDEST PUSH0 PUSH2 0xD6C DUP3 PUSH2 0xD50 JUMP JUMPDEST SWAP1 POP SWAP2 SWAP1 POP JUMP JUMPDEST PUSH2 0xD7C DUP2 PUSH2 0xD62 JUMP JUMPDEST DUP3 MSTORE POP POP JUMP JUMPDEST PUSH0 PUSH1 0x20 DUP3 ADD SWAP1 POP PUSH2 0xD95 PUSH0 DUP4 ADD DUP5 PUSH2 0xD73 JUMP JUMPDEST SWAP3 SWAP2 POP POP JUMP JUMPDEST PUSH2 0xDA4 DUP2 PUSH2 0xC78 JUMP JUMPDEST DUP3 MSTORE POP POP JUMP JUMPDEST PUSH0 PUSH1 0x20 DUP3 ADD SWAP1 POP PUSH2 0xDBD PUSH0 DUP4 ADD DUP5 PUSH2 0xD9B JUMP JUMPDEST SWAP3 SWAP2 POP POP JUMP JUMPDEST PUSH0 DUP2 ISZERO ISZERO SWAP1 POP SWAP2 SWAP1 POP JUMP JUMPDEST PUSH2 0xDD7 DUP2 PUSH2 0xDC3 JUMP JUMPDEST DUP3 MSTORE POP POP JUMP JUMPDEST PUSH0 PUSH1 0x20 DUP3 ADD SWAP1 POP PUSH2 0xDF0 PUSH0 DUP4 ADD DUP5 PUSH2 0xDCE JUMP JUMPDEST SWAP3 SWAP2 POP POP JUMP JUMPDEST PUSH0 DUP3 DUP3 MSTORE PUSH1 0x20 DUP3 ADD SWAP1 POP SWAP3 SWAP2 POP POP JUMP JUMPDEST PUSH32 0x4F6E6C7920696E6672617374727563747572652063616E2063616C6C20746869 PUSH0 DUP3 ADD MSTORE PUSH32 0x732066756E6374696F6E2E000000000000000000000000000000000000000000 PUSH1 0x20 DUP3 ADD MSTORE POP JUMP JUMPDEST PUSH0 PUSH2 0xE60 PUSH1 0x2B DUP4 PUSH2 0xDF6 JUMP JUMPDEST SWAP2 POP PUSH2 0xE6B DUP3 PUSH2 0xE06 JUMP JUMPDEST PUSH1 0x40 DUP3 ADD SWAP1 POP SWAP2 SWAP1 POP JUMP JUMPDEST PUSH0 PUSH1 0x20 DUP3 ADD SWAP1 POP DUP2 DUP2 SUB PUSH0 DUP4 ADD MSTORE PUSH2 0xE8D DUP2 PUSH2 0xE54 JUMP JUMPDEST SWAP1 POP SWAP2 SWAP1 POP JUMP JUMPDEST PUSH32 0x56656869636C6520686173206E6F7420726571756573746564207065726D6973 PUSH0 DUP3 ADD MSTORE PUSH32 0x73696F6E00000000000000000000000000000000000000000000000000000000 PUSH1 0x20 DUP3 ADD MSTORE POP JUMP JUMPDEST PUSH0 PUSH2 0xEEE PUSH1 0x24 DUP4 PUSH2 0xDF6 JUMP JUMPDEST SWAP2 POP PUSH2 0xEF9 DUP3 PUSH2 0xE94 JUMP JUMPDEST PUSH1 0x40 DUP3 ADD SWAP1 POP SWAP2 SWAP1 POP JUMP JUMPDEST PUSH0 PUSH1 0x20 DUP3 ADD SWAP1 POP DUP2 DUP2 SUB PUSH0 DUP4 ADD MSTORE PUSH2 0xF1B DUP2 PUSH2 0xEE2 JUMP JUMPDEST SWAP1 POP SWAP2 SWAP1 POP JUMP JUMPDEST PUSH32 0x4E487B7100000000000000000000000000000000000000000000000000000000 PUSH0 MSTORE PUSH1 0x11 PUSH1 0x4 MSTORE PUSH1 0x24 PUSH0 REVERT JUMPDEST PUSH0 PUSH2 0xF59 DUP3 PUSH2 0xCDE JUMP JUMPDEST SWAP2 POP PUSH0 DUP3 SUB PUSH2 0xF6B JUMPI PUSH2 0xF6A PUSH2 0xF22 JUMP JUMPDEST JUMPDEST PUSH1 0x1 DUP3 SUB SWAP1 POP SWAP2 SWAP1 POP JUMP JUMPDEST PUSH32 0x596F7520646F6E27742068617665207065726D697373696F6E20746F2072656C PUSH0 DUP3 ADD MSTORE PUSH32 0x656173652E000000000000000000000000000000000000000000000000000000 PUSH1 0x20 DUP3 ADD MSTORE POP JUMP JUMPDEST PUSH0 PUSH2 0xFD0 PUSH1 0x25 DUP4 PUSH2 0xDF6 JUMP JUMPDEST SWAP2 POP PUSH2 0xFDB DUP3 PUSH2 0xF76 JUMP JUMPDEST PUSH1 0x40 DUP3 ADD SWAP1 POP SWAP2 SWAP1 POP JUMP JUMPDEST PUSH0 PUSH1 0x20 DUP3 ADD SWAP1 POP DUP2 DUP2 SUB PUSH0 DUP4 ADD MSTORE PUSH2 0xFFD DUP2 PUSH2 0xFC4 JUMP JUMPDEST SWAP1 POP SWAP2 SWAP1 POP JUMP JUMPDEST PUSH0 PUSH1 0x40 DUP3 ADD SWAP1 POP PUSH2 0x1017 PUSH0 DUP4 ADD DUP6 PUSH2 0xD9B JUMP JUMPDEST PUSH2 0x1024 PUSH1 0x20 DUP4 ADD DUP5 PUSH2 0xDCE JUMP JUMPDEST SWAP4 SWAP3 POP POP POP JUMP JUMPDEST PUSH0 PUSH2 0x1035 DUP3 PUSH2 0xCDE JUMP JUMPDEST SWAP2 POP PUSH32 0xFFFFFFFFFFFFFFFFFFFFFFFFFFFFFFFFFFFFFFFFFFFFFFFFFFFFFFFFFFFFFFFF DUP3 SUB PUSH2 0x1067 JUMPI PUSH2 0x1066 PUSH2 0xF22 JUMP JUMPDEST JUMPDEST PUSH1 0x1 DUP3 ADD SWAP1 POP SWAP2 SWAP1 POP JUMP JUMPDEST PUSH0 PUSH2 0x107C DUP3 PUSH2 0xCDE JUMP JUMPDEST SWAP2 POP PUSH2 0x1087 DUP4 PUSH2 0xCDE JUMP JUMPDEST SWAP3 POP DUP3 DUP3 SUB SWAP1 POP DUP2 DUP2 GT ISZERO PUSH2 0x109F JUMPI PUSH2 0x109E PUSH2 0xF22 JUMP JUMPDEST JUMPDEST SWAP3 SWAP2 POP POP JUMP JUMPDEST PUSH32 0x43726F7373696E67206973206E6F74206672656520746F2063726F73732E0000 PUSH0 DUP3 ADD MSTORE POP JUMP JUMPDEST PUSH0 PUSH2 0x10D9 PUSH1 0x1E DUP4 PUSH2 0xDF6 JUMP JUMPDEST SWAP2 POP PUSH2 0x10E4 DUP3 PUSH2 0x10A5 JUMP JUMPDEST PUSH1 0x20 DUP3 ADD SWAP1 POP SWAP2 SWAP1 POP JUMP JUMPDEST PUSH0 PUSH1 0x20 DUP3 ADD SWAP1 POP DUP2 DUP2 SUB PUSH0 DUP4 ADD MSTORE PUSH2 0x1106 DUP2 PUSH2 0x10CD JUMP JUMPDEST SWAP1 POP SWAP2 SWAP1 POP JUMP JUMPDEST PUSH32 0x43726F7373696E672069732066756C6C2E000000000000000000000000000000 PUSH0 DUP3 ADD MSTORE POP JUMP JUMPDEST PUSH0 PUSH2 0x1141 PUSH1 0x11 DUP4 PUSH2 0xDF6 JUMP JUMPDEST SWAP2 POP PUSH2 0x114C DUP3 PUSH2 0x110D JUMP JUMPDEST PUSH1 0x20 DUP3 ADD SWAP1 POP SWAP2 SWAP1 POP JUMP JUMPDEST PUSH0 PUSH1 0x20 DUP3 ADD SWAP1 POP DUP2 DUP2 SUB PUSH0 DUP4 ADD MSTORE PUSH2 0x116E DUP2 PUSH2 0x1135 JUMP JUMPDEST SWAP1 POP SWAP2 SWAP1 POP JUMP JUMPDEST PUSH32 0x416C72656164792063726F7373696E6700000000000000000000000000000000 PUSH0 DUP3 ADD MSTORE POP JUMP JUMPDEST PUSH0 PUSH2 0x11A9 PUSH1 0x10 DUP4 PUSH2 0xDF6 JUMP JUMPDEST SWAP2 POP PUSH2 0x11B4 DUP3 PUSH2 0x1175 JUMP JUMPDEST PUSH1 0x20 DUP3 ADD SWAP1 POP SWAP2 SWAP1 POP JUMP JUMPDEST PUSH0 PUSH1 0x20 DUP3 ADD SWAP1 POP DUP2 DUP2 SUB PUSH0 DUP4 ADD MSTORE PUSH2 0x11D6 DUP2 PUSH2 0x119D JUMP JUMPDEST SWAP1 POP SWAP2 SWAP1 POP JUMP INVALID LOG2 PUSH5 0x6970667358 0x22 SLT KECCAK256 CALLER EXTCODECOPY SGT CALLDATACOPY SWAP7 SWAP14 0xF7 CREATE2 PUSH23 0x8925C77C3D58114DFDB52238639D8452C1D63ED3B8B084 PUSH5 0x736F6C6343 STOP ADDMOD AND STOP CALLER "
				},
				"gasEstimates": {
					"creation": {
						"codeDepositCost": "925400",
						"executionCost": "infinite",
						"totalCost": "infinite"
					},
					"external": {
						"crossingState()": "2619",
						"crossingValidity()": "2447",
						"crossingVehicles(address)": "2856",
						"currentCrossingCarNumber()": "2492",
						"infrastructure()": "2625",
						"lastUpdate()": "2470",
						"maxCarsPerLane()": "2515",
						"preLockedTime()": "2471",
						"releasePermission()": "52367",
						"requestPermission()": "infinite",
						"trainCrossingRequestNumber()": "2513",
						"trainCrossingRequests(address)": "2922",
						"trainReleaseCrossing()": "78818",
						"trainRequestCrossing()": "infinite",
						"trainRequestTimes(address)": "2826",
						"updateFreeToCrossState()": "48783"
					},
					"internal": {
						"checkFreeToCrossTimer()": "infinite",
						"lockCrossing()": "26431"
					}
				},
				"methodIdentifiers": {
					"crossingState()": "40ef3a69",
					"crossingValidity()": "e4fa8da9",
					"crossingVehicles(address)": "baa12859",
					"currentCrossingCarNumber()": "cee321d6",
					"infrastructure()": "9bd565d6",
					"lastUpdate()": "c0463711",
					"maxCarsPerLane()": "6bab9804",
					"preLockedTime()": "3ed6ba3d",
					"releasePermission()": "96469b25",
					"requestPermission()": "ebe0435c",
					"trainCrossingRequestNumber()": "fae68b4d",
					"trainCrossingRequests(address)": "a21c30de",
					"trainReleaseCrossing()": "e4d6bec8",
					"trainRequestCrossing()": "e8887118",
					"trainRequestTimes(address)": "3c3244ab",
					"updateFreeToCrossState()": "74e18625"
				}
			},
			"storageLayout": {
				"storage": [
					{
						"astId": 8,
						"contract": "contracts/Crossing.sol:TrainCrossing",
						"label": "crossingState",
						"offset": 0,
						"slot": "0",
						"type": "t_enum(CrossingState)5"
					},
					{
						"astId": 10,
						"contract": "contracts/Crossing.sol:TrainCrossing",
						"label": "infrastructure",
						"offset": 1,
						"slot": "0",
						"type": "t_address"
					},
					{
						"astId": 12,
						"contract": "contracts/Crossing.sol:TrainCrossing",
						"label": "lastUpdate",
						"offset": 0,
						"slot": "1",
						"type": "t_uint256"
					},
					{
						"astId": 14,
						"contract": "contracts/Crossing.sol:TrainCrossing",
						"label": "crossingValidity",
						"offset": 0,
						"slot": "2",
						"type": "t_uint256"
					},
					{
						"astId": 16,
						"contract": "contracts/Crossing.sol:TrainCrossing",
						"label": "maxCarsPerLane",
						"offset": 0,
						"slot": "3",
						"type": "t_uint256"
					},
					{
						"astId": 18,
						"contract": "contracts/Crossing.sol:TrainCrossing",
						"label": "preLockedTime",
						"offset": 0,
						"slot": "4",
						"type": "t_uint256"
					},
					{
						"astId": 20,
						"contract": "contracts/Crossing.sol:TrainCrossing",
						"label": "currentCrossingCarNumber",
						"offset": 0,
						"slot": "5",
						"type": "t_uint256"
					},
					{
						"astId": 22,
						"contract": "contracts/Crossing.sol:TrainCrossing",
						"label": "trainCrossingRequestNumber",
						"offset": 0,
						"slot": "6",
						"type": "t_uint256"
					},
					{
						"astId": 26,
						"contract": "contracts/Crossing.sol:TrainCrossing",
						"label": "crossingVehicles",
						"offset": 0,
						"slot": "7",
						"type": "t_mapping(t_address,t_bool)"
					},
					{
						"astId": 30,
						"contract": "contracts/Crossing.sol:TrainCrossing",
						"label": "trainCrossingRequests",
						"offset": 0,
						"slot": "8",
						"type": "t_mapping(t_address,t_bool)"
					},
					{
						"astId": 34,
						"contract": "contracts/Crossing.sol:TrainCrossing",
						"label": "trainRequestTimes",
						"offset": 0,
						"slot": "9",
						"type": "t_mapping(t_address,t_uint256)"
					}
				],
				"types": {
					"t_address": {
						"encoding": "inplace",
						"label": "address",
						"numberOfBytes": "20"
					},
					"t_bool": {
						"encoding": "inplace",
						"label": "bool",
						"numberOfBytes": "1"
					},
					"t_enum(CrossingState)5": {
						"encoding": "inplace",
						"label": "enum TrainCrossing.CrossingState",
						"numberOfBytes": "1"
					},
					"t_mapping(t_address,t_bool)": {
						"encoding": "mapping",
						"key": "t_address",
						"label": "mapping(address => bool)",
						"numberOfBytes": "32",
						"value": "t_bool"
					},
					"t_mapping(t_address,t_uint256)": {
						"encoding": "mapping",
						"key": "t_address",
						"label": "mapping(address => uint256)",
						"numberOfBytes": "32",
						"value": "t_uint256"
					},
					"t_uint256": {
						"encoding": "inplace",
						"label": "uint256",
						"numberOfBytes": "32"
					}
				}
			},
			"userdoc": {
				"kind": "user",
				"methods": {},
				"version": 1
			}
		}
	}
}